{
  "_format": "hh3-artifact-1",
  "contractName": "SimpleTexasHoldem",
  "sourceName": "contracts/SimpleTexasHoldem.sol",
  "abi": [
    {
      "inputs": [
        {
          "internalType": "address",
          "name": "_gameToken",
          "type": "address"
        }
      ],
      "stateMutability": "nonpayable",
      "type": "constructor"
    },
    {
      "inputs": [],
      "name": "AlreadyBet",
      "type": "error"
    },
    {
      "inputs": [],
      "name": "AlreadyParticipated",
      "type": "error"
    },
    {
      "inputs": [],
      "name": "ContractPaused",
      "type": "error"
    },
    {
      "inputs": [],
      "name": "GameAlreadyActive",
      "type": "error"
    },
    {
      "inputs": [],
      "name": "GameFull",
      "type": "error"
    },
    {
      "inputs": [],
      "name": "MaxAttemptsReached",
      "type": "error"
    },
    {
      "inputs": [],
      "name": "MustBetSome",
      "type": "error"
    },
    {
      "inputs": [],
      "name": "MustJoinFirst",
      "type": "error"
    },
    {
      "inputs": [],
      "name": "NoActiveGame",
      "type": "error"
    },
    {
      "inputs": [],
      "name": "NoCardsRemaining",
      "type": "error"
    },
    {
      "inputs": [],
      "name": "NoCardsToReturn",
      "type": "error"
    },
    {
      "inputs": [],
      "name": "NoFees",
      "type": "error"
    },
    {
      "inputs": [],
      "name": "NoPlayers",
      "type": "error"
    },
    {
      "inputs": [],
      "name": "NoWinners",
      "type": "error"
    },
    {
      "inputs": [],
      "name": "NotEnoughCards",
      "type": "error"
    },
    {
      "inputs": [],
      "name": "NotEnoughPlayers",
      "type": "error"
    },
    {
      "inputs": [],
      "name": "NotInGame",
      "type": "error"
    },
    {
      "inputs": [
        {
          "internalType": "address",
          "name": "owner",
          "type": "address"
        }
      ],
      "name": "OwnableInvalidOwner",
      "type": "error"
    },
    {
      "inputs": [
        {
          "internalType": "address",
          "name": "account",
          "type": "address"
        }
      ],
      "name": "OwnableUnauthorizedAccount",
      "type": "error"
    },
    {
      "inputs": [],
      "name": "ReentrancyGuardReentrantCall",
      "type": "error"
    },
    {
      "inputs": [
        {
          "internalType": "address",
          "name": "token",
          "type": "address"
        }
      ],
      "name": "SafeERC20FailedOperation",
      "type": "error"
    },
    {
      "inputs": [],
      "name": "TransferFailed",
      "type": "error"
    },
    {
      "anonymous": false,
      "inputs": [
        {
          "indexed": true,
          "internalType": "uint256",
          "name": "gameId",
          "type": "uint256"
        },
        {
          "indexed": false,
          "internalType": "uint8[5]",
          "name": "boardCards",
          "type": "uint8[5]"
        }
      ],
      "name": "BoardCardsDealt",
      "type": "event"
    },
    {
      "anonymous": false,
      "inputs": [
        {
          "indexed": false,
          "internalType": "bool",
          "name": "gamePaused",
          "type": "bool"
        }
      ],
      "name": "EmergencyPauseToggled",
      "type": "event"
    },
    {
      "anonymous": false,
      "inputs": [
        {
          "indexed": true,
          "internalType": "uint256",
          "name": "gameId",
          "type": "uint256"
        },
        {
          "components": [
            {
              "internalType": "uint256",
              "name": "gameId",
              "type": "uint256"
            },
            {
              "internalType": "uint256",
              "name": "startTime",
              "type": "uint256"
            },
            {
              "internalType": "uint256",
              "name": "endTime",
              "type": "uint256"
            },
            {
              "internalType": "address[]",
              "name": "players",
              "type": "address[]"
            },
            {
              "internalType": "uint256[]",
              "name": "betAmounts",
              "type": "uint256[]"
            },
            {
              "internalType": "uint8[5]",
              "name": "boardCards",
              "type": "uint8[5]"
            },
            {
              "internalType": "address[]",
              "name": "winners",
              "type": "address[]"
            },
            {
              "internalType": "uint256",
              "name": "potPerWinner",
              "type": "uint256"
            },
            {
              "internalType": "uint256",
              "name": "houseFee",
              "type": "uint256"
            }
          ],
          "indexed": false,
          "internalType": "struct TexasHoldemConstants.GameResult",
          "name": "result",
          "type": "tuple"
        }
      ],
      "name": "GameEnded",
      "type": "event"
    },
    {
      "anonymous": false,
      "inputs": [
        {
          "indexed": true,
          "internalType": "uint256",
          "name": "gameId",
          "type": "uint256"
        },
        {
          "indexed": false,
          "internalType": "uint256",
          "name": "startTime",
          "type": "uint256"
        }
      ],
      "name": "GameStarted",
      "type": "event"
    },
    {
      "anonymous": false,
      "inputs": [
        {
          "indexed": true,
          "internalType": "uint256",
          "name": "gameId",
          "type": "uint256"
        },
        {
          "indexed": false,
          "internalType": "uint256",
          "name": "amount",
          "type": "uint256"
        }
      ],
      "name": "HouseFeeWithdrawn",
      "type": "event"
    },
    {
      "anonymous": false,
      "inputs": [
        {
          "indexed": true,
          "internalType": "address",
          "name": "previousOwner",
          "type": "address"
        },
        {
          "indexed": true,
          "internalType": "address",
          "name": "newOwner",
          "type": "address"
        }
      ],
      "name": "OwnershipTransferred",
      "type": "event"
    },
    {
      "anonymous": false,
      "inputs": [
        {
          "indexed": true,
          "internalType": "uint256",
          "name": "gameId",
          "type": "uint256"
        },
        {
          "indexed": true,
          "internalType": "address",
          "name": "player",
          "type": "address"
        },
        {
          "indexed": false,
          "internalType": "uint256",
          "name": "amount",
          "type": "uint256"
        }
      ],
      "name": "PlayerBet",
      "type": "event"
    },
    {
      "anonymous": false,
      "inputs": [
        {
          "indexed": true,
          "internalType": "uint256",
          "name": "gameId",
          "type": "uint256"
        },
        {
          "indexed": true,
          "internalType": "address",
          "name": "player",
          "type": "address"
        },
        {
          "indexed": false,
          "internalType": "uint8[2]",
          "name": "returnedCards",
          "type": "uint8[2]"
        }
      ],
      "name": "PlayerFolded",
      "type": "event"
    },
    {
      "anonymous": false,
      "inputs": [
        {
          "indexed": true,
          "internalType": "uint256",
          "name": "gameId",
          "type": "uint256"
        },
        {
          "indexed": true,
          "internalType": "address",
          "name": "player",
          "type": "address"
        },
        {
          "indexed": false,
          "internalType": "uint8[2]",
          "name": "holeCards",
          "type": "uint8[2]"
        }
      ],
      "name": "PlayerJoined",
      "type": "event"
    },
    {
      "inputs": [],
      "name": "DECK_SIZE",
      "outputs": [
        {
          "internalType": "uint8",
          "name": "",
          "type": "uint8"
        }
      ],
      "stateMutability": "view",
      "type": "function"
    },
    {
      "inputs": [],
      "name": "HOUSE_FEE_PERCENTAGE",
      "outputs": [
        {
          "internalType": "uint256",
          "name": "",
          "type": "uint256"
        }
      ],
      "stateMutability": "view",
      "type": "function"
    },
    {
      "inputs": [],
      "name": "MAX_PLAYERS",
      "outputs": [
        {
          "internalType": "uint256",
          "name": "",
          "type": "uint256"
        }
      ],
      "stateMutability": "view",
      "type": "function"
    },
    {
      "inputs": [],
      "name": "MAX_TOTAL_PLAYERS",
      "outputs": [
        {
          "internalType": "uint256",
          "name": "",
          "type": "uint256"
        }
      ],
      "stateMutability": "view",
      "type": "function"
    },
    {
      "inputs": [],
      "name": "MIN_CARDS_REQUIRED",
      "outputs": [
        {
          "internalType": "uint256",
          "name": "",
          "type": "uint256"
        }
      ],
      "stateMutability": "view",
      "type": "function"
    },
    {
      "inputs": [],
      "name": "MIN_PLAYERS",
      "outputs": [
        {
          "internalType": "uint256",
          "name": "",
          "type": "uint256"
        }
      ],
      "stateMutability": "view",
      "type": "function"
    },
    {
      "inputs": [],
      "name": "accumulatedHouseFees",
      "outputs": [
        {
          "internalType": "uint256",
          "name": "",
          "type": "uint256"
        }
      ],
      "stateMutability": "view",
      "type": "function"
    },
    {
      "inputs": [],
      "name": "currentGameId",
      "outputs": [
        {
          "internalType": "uint256",
          "name": "",
          "type": "uint256"
        }
      ],
      "stateMutability": "view",
      "type": "function"
    },
    {
      "inputs": [],
      "name": "endGame",
      "outputs": [],
      "stateMutability": "nonpayable",
      "type": "function"
    },
    {
      "inputs": [],
      "name": "fold",
      "outputs": [],
      "stateMutability": "nonpayable",
      "type": "function"
    },
    {
      "inputs": [],
      "name": "gameActive",
      "outputs": [
        {
          "internalType": "bool",
          "name": "",
          "type": "bool"
        }
      ],
      "stateMutability": "view",
      "type": "function"
    },
    {
      "inputs": [],
      "name": "gamePaused",
      "outputs": [
        {
          "internalType": "bool",
          "name": "",
          "type": "bool"
        }
      ],
      "stateMutability": "view",
      "type": "function"
    },
    {
      "inputs": [],
      "name": "gameToken",
      "outputs": [
        {
          "internalType": "contract IERC20",
          "name": "",
          "type": "address"
        }
      ],
      "stateMutability": "view",
      "type": "function"
    },
    {
      "inputs": [],
      "name": "getCurrentGameInfo",
      "outputs": [
        {
          "internalType": "uint256",
          "name": "gameId",
          "type": "uint256"
        },
        {
          "internalType": "uint256",
          "name": "startTime",
          "type": "uint256"
        },
        {
          "internalType": "uint256",
          "name": "playerCount",
          "type": "uint256"
        },
        {
          "internalType": "uint256",
          "name": "totalParticipations",
          "type": "uint256"
        },
        {
          "internalType": "uint8",
          "name": "cardsRemaining",
          "type": "uint8"
        },
        {
          "internalType": "bool",
          "name": "isActive",
          "type": "bool"
        }
      ],
      "stateMutability": "view",
      "type": "function"
    },
    {
      "inputs": [],
      "name": "getGamePlayers",
      "outputs": [
        {
          "internalType": "address[]",
          "name": "players",
          "type": "address[]"
        }
      ],
      "stateMutability": "view",
      "type": "function"
    },
    {
      "inputs": [
        {
          "internalType": "address",
          "name": "player",
          "type": "address"
        }
      ],
      "name": "getPlayerInfo",
      "outputs": [
        {
          "internalType": "bool",
          "name": "hasParticipated",
          "type": "bool"
        },
        {
          "internalType": "bool",
          "name": "hasBet",
          "type": "bool"
        },
        {
          "internalType": "uint256",
          "name": "betAmount",
          "type": "uint256"
        },
        {
          "internalType": "uint8[2]",
          "name": "holeCards",
          "type": "uint8[2]"
        }
      ],
      "stateMutability": "view",
      "type": "function"
    },
    {
      "inputs": [],
      "name": "joinGame",
      "outputs": [],
      "stateMutability": "nonpayable",
      "type": "function"
    },
    {
      "inputs": [],
      "name": "owner",
      "outputs": [
        {
          "internalType": "address",
          "name": "",
          "type": "address"
        }
      ],
      "stateMutability": "view",
      "type": "function"
    },
    {
      "inputs": [
        {
          "internalType": "uint256",
          "name": "betAmount",
          "type": "uint256"
        }
      ],
      "name": "placeBet",
      "outputs": [],
      "stateMutability": "payable",
      "type": "function"
    },
    {
      "inputs": [],
      "name": "renounceOwnership",
      "outputs": [],
      "stateMutability": "nonpayable",
      "type": "function"
    },
    {
      "inputs": [],
      "name": "startGame",
      "outputs": [],
      "stateMutability": "nonpayable",
      "type": "function"
    },
    {
      "inputs": [],
      "name": "togglePause",
      "outputs": [],
      "stateMutability": "nonpayable",
      "type": "function"
    },
    {
      "inputs": [
        {
          "internalType": "address",
          "name": "newOwner",
          "type": "address"
        }
      ],
      "name": "transferOwnership",
      "outputs": [],
      "stateMutability": "nonpayable",
      "type": "function"
    },
    {
      "inputs": [],
      "name": "useEth",
      "outputs": [
        {
          "internalType": "bool",
          "name": "",
          "type": "bool"
        }
      ],
      "stateMutability": "view",
      "type": "function"
    },
    {
      "inputs": [],
      "name": "withdrawHouseFees",
      "outputs": [],
      "stateMutability": "nonpayable",
      "type": "function"
    }
  ],
  "bytecode": "0x608060405234801561000f575f5ffd5b50604051615e7c380380615e7c833981810160405281019061003191906102f9565b335f73ffffffffffffffffffffffffffffffffffffffff168173ffffffffffffffffffffffffffffffffffffffff16036100a2575f6040517f1e4fbdf70000000000000000000000000000000000000000000000000000000081526004016100999190610333565b60405180910390fd5b6100b1816101a860201b60201c565b5060016100d06100c561026960201b60201c565b61029260201b60201c565b5f01819055505f73ffffffffffffffffffffffffffffffffffffffff168173ffffffffffffffffffffffffffffffffffffffff16036101285760015f60146101000a81548160ff021916908315150217905550610182565b8060015f6101000a81548173ffffffffffffffffffffffffffffffffffffffff021916908373ffffffffffffffffffffffffffffffffffffffff1602179055505f5f60146101000a81548160ff0219169083151502179055505b5f6002819055505f5f60156101000a81548160ff0219169083151502179055505061034c565b5f5f5f9054906101000a900473ffffffffffffffffffffffffffffffffffffffff169050815f5f6101000a81548173ffffffffffffffffffffffffffffffffffffffff021916908373ffffffffffffffffffffffffffffffffffffffff1602179055508173ffffffffffffffffffffffffffffffffffffffff168173ffffffffffffffffffffffffffffffffffffffff167f8be0079c531659141344cd1fd0a4f28419497f9722a3daafe3b4186f6b6457e060405160405180910390a35050565b5f7f9b779b17422d0df92223018b32b4d1fa46e071723d6817e2486d003becc55f005f1b905090565b5f819050919050565b5f5ffd5b5f73ffffffffffffffffffffffffffffffffffffffff82169050919050565b5f6102c88261029f565b9050919050565b6102d8816102be565b81146102e2575f5ffd5b50565b5f815190506102f3816102cf565b92915050565b5f6020828403121561030e5761030d61029b565b5b5f61031b848285016102e5565b91505092915050565b61032d816102be565b82525050565b5f6020820190506103465f830184610324565b92915050565b615b23806103595f395ff3fe608060405260043610610165575f3560e01c80638da5cb5b116100d0578063c4ae316811610089578063e684f46a11610063578063e684f46a14610483578063f020044f14610499578063f2fde38b146104c3578063f677b4d4146104eb57610165565b8063c4ae316814610441578063d4f77b1c14610457578063d65ab5f21461046d57610165565b80638da5cb5b146103405780639b52474b1461036a5780639f14bbed14610394578063a645e840146103be578063c3de1ab9146103ed578063c3dfdae61461041757610165565b806359328401116101225780635932840114610257578063663e1127146102965780636cbc2ded146102c0578063715018a6146102d657806385f07bbe146102ec5780638d744a241461031657610165565b806310fe7c4814610169578063177e605814610185578063395c197f146101af5780634411b3eb146101d95780634c8b88a814610203578063536a3ddc1461022d575b5f5ffd5b610183600480360381019061017e91906141e8565b610501565b005b348015610190575f5ffd5b5061019961090c565b6040516101a69190614222565b60405180910390f35b3480156101ba575f5ffd5b506101c3610912565b6040516101d09190614256565b60405180910390f35b3480156101e4575f5ffd5b506101ed610917565b6040516101fa9190614222565b60405180910390f35b34801561020e575f5ffd5b5061021761091c565b6040516102249190614356565b60405180910390f35b348015610238575f5ffd5b506102416109aa565b60405161024e9190614222565b60405180910390f35b348015610262575f5ffd5b5061027d600480360381019061027891906143a0565b6109b0565b60405161028d949392919061448a565b60405180910390f35b3480156102a1575f5ffd5b506102aa610bad565b6040516102b79190614222565b60405180910390f35b3480156102cb575f5ffd5b506102d4610bb2565b005b3480156102e1575f5ffd5b506102ea610f45565b005b3480156102f7575f5ffd5b50610300610f58565b60405161030d9190614222565b60405180910390f35b348015610321575f5ffd5b5061032a610f5d565b6040516103379190614222565b60405180910390f35b34801561034b575f5ffd5b50610354610f62565b60405161036191906144dc565b60405180910390f35b348015610375575f5ffd5b5061037e610f89565b60405161038b91906144f5565b60405180910390f35b34801561039f575f5ffd5b506103a8610f9b565b6040516103b59190614222565b60405180910390f35b3480156103c9575f5ffd5b506103d2610fa0565b6040516103e49695949392919061450e565b60405180910390f35b3480156103f8575f5ffd5b50610401610ff5565b60405161040e91906144f5565b60405180910390f35b348015610422575f5ffd5b5061042b611007565b60405161043891906145c8565b60405180910390f35b34801561044c575f5ffd5b5061045561102c565b005b348015610462575f5ffd5b5061046b6110a3565b005b348015610478575f5ffd5b506104816113f0565b005b34801561048e575f5ffd5b50610497611513565b005b3480156104a4575f5ffd5b506104ad6117e7565b6040516104ba91906144f5565b60405180910390f35b3480156104ce575f5ffd5b506104e960048036038101906104e491906143a0565b6117f9565b005b3480156104f6575f5ffd5b506104ff61187d565b005b5f60169054906101000a900460ff1615610547576040517fab35696f00000000000000000000000000000000000000000000000000000000815260040160405180910390fd5b5f60159054906101000a900460ff1661058c576040517f256d984000000000000000000000000000000000000000000000000000000000815260040160405180910390fd5b610594611929565b600580015f3373ffffffffffffffffffffffffffffffffffffffff1673ffffffffffffffffffffffffffffffffffffffff1681526020019081526020015f205f9054906101000a900460ff16610616576040517f456a578600000000000000000000000000000000000000000000000000000000815260040160405180910390fd5b5f60056003015f3373ffffffffffffffffffffffffffffffffffffffff1673ffffffffffffffffffffffffffffffffffffffff1681526020019081526020015f206001015414610692576040517fa820742e00000000000000000000000000000000000000000000000000000000815260040160405180910390fd5b5f5f60149054906101000a900460ff16156106e8575f34036106e0576040517fc288941e00000000000000000000000000000000000000000000000000000000815260040160405180910390fd5b349050610773565b5f8203610721576040517fc288941e00000000000000000000000000000000000000000000000000000000815260040160405180910390fd5b81905061077233308460015f9054906101000a900473ffffffffffffffffffffffffffffffffffffffff1673ffffffffffffffffffffffffffffffffffffffff1661194b909392919063ffffffff16565b5b60056002015f3373ffffffffffffffffffffffffffffffffffffffff1673ffffffffffffffffffffffffffffffffffffffff1681526020019081526020015f2060056003015f3373ffffffffffffffffffffffffffffffffffffffff1673ffffffffffffffffffffffffffffffffffffffff1681526020019081526020015f205f01906002610803929190613f23565b508060056003015f3373ffffffffffffffffffffffffffffffffffffffff1673ffffffffffffffffffffffffffffffffffffffff1681526020019081526020015f2060010181905550600560040133908060018154018082558091505060019003905f5260205f20015f9091909190916101000a81548173ffffffffffffffffffffffffffffffffffffffff021916908373ffffffffffffffffffffffffffffffffffffffff1602179055503373ffffffffffffffffffffffffffffffffffffffff166002547fd4378ef4558c1e2a851456fb0106171f67cc4bc8abe3f27346a47cc6010a291d836040516108f89190614222565b60405180910390a3506109096119a0565b50565b60035481565b603481565b600981565b606060056004018054806020026020016040519081016040528092919081815260200182805480156109a057602002820191905f5260205f20905b815f9054906101000a900473ffffffffffffffffffffffffffffffffffffffff1673ffffffffffffffffffffffffffffffffffffffff1681526020019060010190808311610957575b5050505050905090565b60025481565b5f5f5f6109bb613f6e565b600580015f8673ffffffffffffffffffffffffffffffffffffffff1673ffffffffffffffffffffffffffffffffffffffff1681526020019081526020015f205f9054906101000a900460ff16935060056003015f8673ffffffffffffffffffffffffffffffffffffffff1673ffffffffffffffffffffffffffffffffffffffff1681526020019081526020015f206001015491505f821192508215610b035760056003015f8673ffffffffffffffffffffffffffffffffffffffff1673ffffffffffffffffffffffffffffffffffffffff1681526020019081526020015f205f01600280602002604051908101604052809291908260028015610af7576020028201915f905b82829054906101000a900460ff1660ff16815260200190600101906020825f01049283019260010382029150808411610ac15790505b50505050509050610ba6565b60056002015f8673ffffffffffffffffffffffffffffffffffffffff1673ffffffffffffffffffffffffffffffffffffffff1681526020019081526020015f20600280602002604051908101604052809291908260028015610b9e576020028201915f905b82829054906101000a900460ff1660ff16815260200190600101906020825f01049283019260010382029150808411610b685790505b505050505090505b9193509193565b600181565b610bba6119ba565b5f60169054906101000a900460ff1615610c00576040517fab35696f00000000000000000000000000000000000000000000000000000000815260040160405180910390fd5b5f60159054906101000a900460ff16610c45576040517f256d984000000000000000000000000000000000000000000000000000000000815260040160405180910390fd5b5f5f60156101000a81548160ff0219169083151502179055505f60056004018054905090506002811015610f31575f5f90505b81811015610d2b575f60056004018281548110610c9857610c976145e1565b5b905f5260205f20015f9054906101000a900473ffffffffffffffffffffffffffffffffffffffff1690505f60056003015f8373ffffffffffffffffffffffffffffffffffffffff1673ffffffffffffffffffffffffffffffffffffffff1681526020019081526020015f206001015490505f811115610d1c57610d1b8282611a41565b5b50508080600101915050610c78565b505f604051806101200160405280600254815260200160056001015481526020014281526020016005600401805480602002602001604051908101604052809291908181526020018280548015610dd457602002820191905f5260205f20905b815f9054906101000a900473ffffffffffffffffffffffffffffffffffffffff1673ffffffffffffffffffffffffffffffffffffffff1681526020019060010190808311610d8b575b505050505081526020015f67ffffffffffffffff811115610df857610df761460e565b5b604051908082528060200260200182016040528015610e265781602001602082028036833780820191505090505b5081526020016005600b01600580602002604051908101604052809291908260058015610e8c576020028201915f905b82829054906101000a900460ff1660ff16815260200190600101906020825f01049283019260010382029150808411610e565790505b505050505081526020015f67ffffffffffffffff811115610eb057610eaf61460e565b5b604051908082528060200260200182016040528015610ede5781602001602082028036833780820191505090505b5081526020015f81526020015f81525090506002547f6078529d9020f865ca5321b152951664d06fe9f9ee87e29547bdb9994473da3a82604051610f2291906148af565b60405180910390a25050610f43565b610f39611b4b565b610f41611bf3565b505b565b610f4d6119ba565b610f565f611fee565b565b600281565b603281565b5f5f5f9054906101000a900473ffffffffffffffffffffffffffffffffffffffff16905090565b5f60149054906101000a900460ff1681565b600781565b5f5f5f5f5f5f60055f01546005600101546005600401805490506005600701546005600a015f9054906101000a900460ff165f60159054906101000a900460ff16955095509550955095509550909192939495565b5f60169054906101000a900460ff1681565b60015f9054906101000a900473ffffffffffffffffffffffffffffffffffffffff1681565b6110346119ba565b5f60169054906101000a900460ff16155f60166101000a81548160ff0219169083151502179055507fb5838f871ddee4623a406029b1a0b6013e0ec30f2dc114307f21459a800a82965f60169054906101000a900460ff1660405161109991906144f5565b60405180910390a1565b5f60169054906101000a900460ff16156110e9576040517fab35696f00000000000000000000000000000000000000000000000000000000815260040160405180910390fd5b5f60159054906101000a900460ff1661112e576040517f256d984000000000000000000000000000000000000000000000000000000000815260040160405180910390fd5b600580015f3373ffffffffffffffffffffffffffffffffffffffff1673ffffffffffffffffffffffffffffffffffffffff1681526020019081526020015f205f9054906101000a900460ff16156111b1576040517f22ce1a0700000000000000000000000000000000000000000000000000000000815260040160405180910390fd5b6009600560040180549050106111f3576040517fb3ed896d00000000000000000000000000000000000000000000000000000000815260040160405180910390fd5b603260056007015410611232576040517f2f9f4a5300000000000000000000000000000000000000000000000000000000815260040160405180910390fd5b60076005600a015f9054906101000a900460ff1660ff161015611281576040517fff0b9c2600000000000000000000000000000000000000000000000000000000815260040160405180910390fd5b6001600580015f3373ffffffffffffffffffffffffffffffffffffffff1673ffffffffffffffffffffffffffffffffffffffff1681526020019081526020015f205f6101000a81548160ff021916908315150217905550600560060133908060018154018082558091505060019003905f5260205f20015f9091909190916101000a81548173ffffffffffffffffffffffffffffffffffffffff021916908373ffffffffffffffffffffffffffffffffffffffff16021790555060056007015f815480929190611350906148fc565b919050555061135e336120af565b3373ffffffffffffffffffffffffffffffffffffffff166002547fda4052de60f6327b7721a5aca5ede61d65afb7917b4e83024e3c36bb247bf11b60056002015f3373ffffffffffffffffffffffffffffffffffffffff1673ffffffffffffffffffffffffffffffffffffffff1681526020019081526020015f206040516113e69190615600565b60405180910390a3565b6113f86119ba565b5f60169054906101000a900460ff161561143e576040517fab35696f00000000000000000000000000000000000000000000000000000000815260040160405180910390fd5b5f60159054906101000a900460ff1615611484576040517f91c183df00000000000000000000000000000000000000000000000000000000815260040160405180910390fd5b61148c612164565b60025f81548092919061149e906148fc565b919050555060025460055f0181905550426005600101819055506002547fa2dfaa3573b86004ec9d4d4abe5068d942579c59da4da8cd0d9e45e71a393bc16005600101546040516114ef9190614222565b60405180910390a260015f60156101000a81548160ff021916908315150217905550565b5f60169054906101000a900460ff1615611559576040517fab35696f00000000000000000000000000000000000000000000000000000000815260040160405180910390fd5b5f60159054906101000a900460ff1661159e576040517f256d984000000000000000000000000000000000000000000000000000000000815260040160405180910390fd5b600580015f3373ffffffffffffffffffffffffffffffffffffffff1673ffffffffffffffffffffffffffffffffffffffff1681526020019081526020015f205f9054906101000a900460ff16611620576040517f43050d9600000000000000000000000000000000000000000000000000000000815260040160405180910390fd5b5f60056003015f3373ffffffffffffffffffffffffffffffffffffffff1673ffffffffffffffffffffffffffffffffffffffff1681526020019081526020015f20600101541461169c576040517fa820742e00000000000000000000000000000000000000000000000000000000815260040160405180910390fd5b5f60056002015f3373ffffffffffffffffffffffffffffffffffffffff1673ffffffffffffffffffffffffffffffffffffffff1681526020019081526020015f20600280602002604051908101604052809291908260028015611738576020028201915f905b82829054906101000a900460ff1660ff16815260200190600101906020825f010492830192600103820291508084116117025790505b505050505090506117483361237b565b60056002015f3373ffffffffffffffffffffffffffffffffffffffff1673ffffffffffffffffffffffffffffffffffffffff1681526020019081526020015f205f6117939190613f90565b3373ffffffffffffffffffffffffffffffffffffffff166002547f0b2f59ffaabdec31e4cadf25ba0d9984d4e852c62825c29bcb99461a4ba16603836040516117dc9190615619565b60405180910390a350565b5f60159054906101000a900460ff1681565b6118016119ba565b5f73ffffffffffffffffffffffffffffffffffffffff168173ffffffffffffffffffffffffffffffffffffffff1603611871575f6040517f1e4fbdf700000000000000000000000000000000000000000000000000000000815260040161186891906144dc565b60405180910390fd5b61187a81611fee565b50565b6118856119ba565b61188d611929565b5f60035490505f81036118cc576040517f7f7d9be000000000000000000000000000000000000000000000000000000000815260040160405180910390fd5b5f6003819055506118e46118de610f62565b82611a41565b6002547f3a63405103d4b6408f488200be612649ae784f617455c9eddd22a5a1a57cf22e826040516119169190614222565b60405180910390a2506119276119a0565b565b611931612578565b600261194361193e6125b9565b6125e2565b5f0181905550565b6119598484848460016125eb565b61199a57836040517f5274afe700000000000000000000000000000000000000000000000000000000815260040161199191906144dc565b60405180910390fd5b50505050565b60016119b26119ad6125b9565b6125e2565b5f0181905550565b6119c261265c565b73ffffffffffffffffffffffffffffffffffffffff166119e0610f62565b73ffffffffffffffffffffffffffffffffffffffff1614611a3f57611a0361265c565b6040517f118cdaa7000000000000000000000000000000000000000000000000000000008152600401611a3691906144dc565b60405180910390fd5b565b5f60149054906101000a900460ff1615611afa575f8273ffffffffffffffffffffffffffffffffffffffff1682604051611a7a9061565f565b5f6040518083038185875af1925050503d805f8114611ab4576040519150601f19603f3d011682016040523d82523d5f602084013e611ab9565b606091505b5050905080611af4576040517f90b8ec1800000000000000000000000000000000000000000000000000000000815260040160405180910390fd5b50611b47565b611b46828260015f9054906101000a900473ffffffffffffffffffffffffffffffffffffffff1673ffffffffffffffffffffffffffffffffffffffff166126639092919063ffffffff16565b5b5050565b611b53613f96565b5f5f90505b60058160ff161015611ba057611b6c6126b6565b828260ff1660058110611b8257611b816145e1565b5b602002019060ff16908160ff16815250508080600101915050611b58565b50806005600b01906005611bb5929190613fb8565b506002547f8c37d66c1438d0136c01897f708325c15c0745298af95fe439f7d416ef1f9cfe82604051611be891906156d3565b60405180910390a250565b5f60056004018054905090506002811015611c3a576040517ff770074300000000000000000000000000000000000000000000000000000000815260040160405180910390fd5b5f5f611c446128a2565b91509150816005600c0181905550611c5b816129d1565b5f5f90505f5f90505f5f90505b85811015611f56575f60056004018281548110611c8857611c876145e1565b5b905f5260205f20015f9054906101000a900473ffffffffffffffffffffffffffffffffffffffff1690505f5f611dc360056003015f8573ffffffffffffffffffffffffffffffffffffffff1673ffffffffffffffffffffffffffffffffffffffff1681526020019081526020015f205f01600280602002604051908101604052809291908260028015611d54576020028201915f905b82829054906101000a900460ff1660ff16815260200190600101906020825f01049283019260010382029150808411611d1e5790505b50505050506005600b01600580602002604051908101604052809291908260058015611db9576020028201915f905b82829054906101000a900460ff1660ff16815260200190600101906020825f01049283019260010382029150808411611d835790505b5050505050612aa5565b91509150856008811115611dda57611dd96156ec565b5b826008811115611ded57611dec6156ec565b5b1180611e275750856008811115611e0757611e066156ec565b5b826008811115611e1a57611e196156ec565b5b148015611e2657508481115b5b15611eaa578195508094506005600d015f611e42919061404f565b6005600d0183908060018154018082558091505060019003905f5260205f20015f9091909190916101000a81548173ffffffffffffffffffffffffffffffffffffffff021916908373ffffffffffffffffffffffffffffffffffffffff160217905550611f46565b856008811115611ebd57611ebc6156ec565b5b826008811115611ed057611ecf6156ec565b5b148015611edc57508481145b15611f45576005600d0183908060018154018082558091505060019003905f5260205f20015f9091909190916101000a81548173ffffffffffffffffffffffffffffffffffffffff021916908373ffffffffffffffffffffffffffffffffffffffff1602179055505b5b5050508080600101915050611c68565b50611fe76005600d01805480602002602001604051908101604052809291908181526020018280548015611fdc57602002820191905f5260205f20905b815f9054906101000a900473ffffffffffffffffffffffffffffffffffffffff1673ffffffffffffffffffffffffffffffffffffffff1681526020019060010190808311611f93575b505050505085612abc565b5050505050565b5f5f5f9054906101000a900473ffffffffffffffffffffffffffffffffffffffff169050815f5f6101000a81548173ffffffffffffffffffffffffffffffffffffffff021916908373ffffffffffffffffffffffffffffffffffffffff1602179055508173ffffffffffffffffffffffffffffffffffffffff168173ffffffffffffffffffffffffffffffffffffffff167f8be0079c531659141344cd1fd0a4f28419497f9722a3daafe3b4186f6b6457e060405160405180910390a35050565b6120b7613f6e565b6120bf6126b6565b815f600281106120d2576120d16145e1565b5b602002019060ff16908160ff16815250506120eb6126b6565b816001600281106120ff576120fe6145e1565b5b602002019060ff16908160ff16815250508060056002015f8473ffffffffffffffffffffffffffffffffffffffff1673ffffffffffffffffffffffffffffffffffffffff1681526020019081526020015f2090600261215f92919061406d565b505050565b5f5f90505b6005600601805490508110156122ba575f60056006018281548110612191576121906145e1565b5b905f5260205f20015f9054906101000a900473ffffffffffffffffffffffffffffffffffffffff16905060056002015f8273ffffffffffffffffffffffffffffffffffffffff1673ffffffffffffffffffffffffffffffffffffffff1681526020019081526020015f205f6122069190613f90565b60056003015f8273ffffffffffffffffffffffffffffffffffffffff1673ffffffffffffffffffffffffffffffffffffffff1681526020019081526020015f205f5f82015f6122559190613f90565b600182015f90555050600580015f8273ffffffffffffffffffffffffffffffffffffffff1673ffffffffffffffffffffffffffffffffffffffff1681526020019081526020015f205f6101000a81549060ff0219169055508080600101915050612169565b5060056006015f6122cb919061404f565b60056004015f6122db919061404f565b6005600d015f6122eb919061404f565b5f60056007018190555060346005600a015f6101000a81548160ff021916908360ff1602179055505f6005600c01819055505f5f90505b603460ff168160ff161015612378575f60056008018260ff166034811061234c5761234b6145e1565b5b602091828204019190066101000a81548160ff0219169083151502179055508080600101915050612322565b50565b5f60056002015f8373ffffffffffffffffffffffffffffffffffffffff1673ffffffffffffffffffffffffffffffffffffffff1681526020019081526020015f20600280602002604051908101604052809291908260028015612417576020028201915f905b82829054906101000a900460ff1660ff16815260200190600101906020825f010492830192600103820291508084116123e15790505b505050505090505f815f60028110612432576124316145e1565b5b602002015160ff1614801561246157505f81600160028110612457576124566145e1565b5b602002015160ff16145b15612498576040517faab7da5100000000000000000000000000000000000000000000000000000000815260040160405180910390fd5b5f6005600801825f600281106124b1576124b06145e1565b5b602002015160ff16603481106124ca576124c96145e1565b5b602091828204019190066101000a81548160ff0219169083151502179055505f600560080182600160028110612503576125026145e1565b5b602002015160ff166034811061251c5761251b6145e1565b5b602091828204019190066101000a81548160ff02191690831515021790555060026005600a015f8282829054906101000a900460ff1661255c9190615719565b92506101000a81548160ff021916908360ff1602179055505050565b612580612be0565b156125b7576040517f3ee5aeb500000000000000000000000000000000000000000000000000000000815260040160405180910390fd5b565b5f7f9b779b17422d0df92223018b32b4d1fa46e071723d6817e2486d003becc55f005f1b905090565b5f819050919050565b5f5f6323b872dd60e01b9050604051815f525f1960601c87166004525f1960601c86166024528460445260205f60645f5f8c5af1925060015f5114831661264957838315161561263d573d5f823e3d81fd5b5f883b113d1516831692505b806040525f606052505095945050505050565b5f33905090565b6126708383836001612bfc565b6126b157826040517f5274afe70000000000000000000000000000000000000000000000000000000081526004016126a891906144dc565b60405180910390fd5b505050565b5f5f6005600a015f9054906101000a900460ff1660ff1603612704576040517fb5ea5abf00000000000000000000000000000000000000000000000000000000815260040160405180910390fd5b5f42443360045f81548092919061271a906148fc565b9190505560405160200161273194939291906157b2565b604051602081830303815290604052805190602001205f1c90505f5f90505b603460ff16811015612864575f603460ff168361276d919061582c565b905060056008018160ff1660348110612789576127886145e1565b5b602091828204019190069054906101000a900460ff1661282357600160056008018260ff16603481106127bf576127be6145e1565b5b602091828204019190066101000a81548160ff0219169083151502179055506005600a015f81819054906101000a900460ff16809291906127ff9061585c565b91906101000a81548160ff021916908360ff1602179055505080935050505061289f565b8282604051602001612836929190615883565b604051602081830303815290604052805190602001205f1c9250818061285b906148fc565b92505050612750565b6040517f08c379a000000000000000000000000000000000000000000000000000000000815260040161289690615908565b60405180910390fd5b90565b5f5f5f60056004018054905090505f81036128e9576040517fdff55bfb00000000000000000000000000000000000000000000000000000000815260040160405180910390fd5b7fffffffffffffffffffffffffffffffffffffffffffffffffffffffffffffffff91505f5f90505b818110156129bd575f60056004018281548110612931576129306145e1565b5b905f5260205f20015f9054906101000a900473ffffffffffffffffffffffffffffffffffffffff1690505f60056003015f8373ffffffffffffffffffffffffffffffffffffffff1673ffffffffffffffffffffffffffffffffffffffff1681526020019081526020015f20600101549050848110156129ae578094505b50508080600101915050612911565b5080826129ca9190615926565b9250509091565b5f5f90505b600560040180549050811015612aa1575f600560040182815481106129fe576129fd6145e1565b5b905f5260205f20015f9054906101000a900473ffffffffffffffffffffffffffffffffffffffff1690505f60056003015f8373ffffffffffffffffffffffffffffffffffffffff1673ffffffffffffffffffffffffffffffffffffffff1681526020019081526020015f2060010154905083811115612a92575f8482612a849190615967565b9050612a908382611a41565b505b505080806001019150506129d6565b5050565b5f5f612ab18484612c5e565b915091509250929050565b5f825103612af6576040517f3728feb300000000000000000000000000000000000000000000000000000000815260040160405180910390fd5b5f6064600183612b069190615926565b612b10919061599a565b90505f8183612b1f9190615967565b90505f845182612b2f919061599a565b90508260035f828254612b4291906159ca565b92505081905550826005600e01819055505f5f90505b8551811015612b9257612b85868281518110612b7757612b766145e1565b5b602002602001015183611a41565b8080600101915050612b58565b505f612b9c612ecd565b90506002547f6078529d9020f865ca5321b152951664d06fe9f9ee87e29547bdb9994473da3a82604051612bd091906148af565b60405180910390a2505050505050565b5f6002612bf3612bee6125b9565b6125e2565b5f015414905090565b5f5f63a9059cbb60e01b9050604051815f525f1960601c86166004528460245260205f60445f5f8b5af1925060015f51148316612c50578383151615612c44573d5f823e3d81fd5b5f873b113d1516831692505b806040525050949350505050565b5f5f612c68614104565b845f60028110612c7b57612c7a6145e1565b5b6020020151815f60078110612c9357612c926145e1565b5b602002019060ff16908160ff168152505084600160028110612cb857612cb76145e1565b5b602002015181600160078110612cd157612cd06145e1565b5b602002019060ff16908160ff16815250505f5f90505b60058160ff161015612d4e57848160ff1660058110612d0957612d086145e1565b5b602002015182600283612d1c9190615719565b60ff1660078110612d3057612d2f6145e1565b5b602002019060ff16908160ff16815250508080600101915050612ce7565b505f5f90505f5f90505f5f90505b60078160ff161015612ebc575f600182612d769190615719565b90505b60078160ff161015612eae57612d8d613f96565b5f5f90505f5f90505b60078160ff161015612e21578460ff168160ff1614158015612dbe57508360ff168160ff1614155b15612e1457878160ff1660078110612dd957612dd86145e1565b5b6020020151838360ff1660058110612df457612df36145e1565b5b602002019060ff16908160ff16815250508180612e10906159fd565b9250505b8080600101915050612d96565b505f5f612e2d846131f2565b91509150876008811115612e4457612e436156ec565b5b826008811115612e5757612e566156ec565b5b1180612e915750876008811115612e7157612e706156ec565b5b826008811115612e8457612e836156ec565b5b148015612e9057508681115b5b15612e9d578197508096505b505050508080600101915050612d79565b508080600101915050612d5c565b508181945094505050509250929050565b612ed5614126565b5f60056004018054905090505f8167ffffffffffffffff811115612efc57612efb61460e565b5b604051908082528060200260200182016040528015612f2a5781602001602082028036833780820191505090505b5090505f5f90505b82811015612fe85760056003015f60056004018381548110612f5757612f566145e1565b5b905f5260205f20015f9054906101000a900473ffffffffffffffffffffffffffffffffffffffff1673ffffffffffffffffffffffffffffffffffffffff1673ffffffffffffffffffffffffffffffffffffffff1681526020019081526020015f2060010154828281518110612fcf57612fce6145e1565b5b6020026020010181815250508080600101915050612f32565b505f5f90505f6005600d0180549050111561302e575f6005600e01546005600c01546130149190615967565b90506005600d01805490508161302a919061599a565b9150505b6040518061012001604052806002548152602001600560010154815260200142815260200160056004018054806020026020016040519081016040528092919081815260200182805480156130d557602002820191905f5260205f20905b815f9054906101000a900473ffffffffffffffffffffffffffffffffffffffff1673ffffffffffffffffffffffffffffffffffffffff168152602001906001019080831161308c575b505050505081526020018381526020016005600b01600580602002604051908101604052809291908260058015613145576020028201915f905b82829054906101000a900460ff1660ff16815260200190600101906020825f0104928301926001038202915080841161310f5790505b505050505081526020016005600d018054806020026020016040519081016040528092919081815260200182805480156131d157602002820191905f5260205f20905b815f9054906101000a900473ffffffffffffffffffffffffffffffffffffffff1673ffffffffffffffffffffffffffffffffffffffff1681526020019060010190808311613188575b505050505081526020018281526020016005600e0154815250935050505090565b5f5f6131fc613f96565b613204613f96565b5f5f90505b60058160ff1610156132b657613238868260ff166005811061322e5761322d6145e1565b5b6020020151613b3d565b838260ff166005811061324e5761324d6145e1565b5b602002019060ff16908160ff1681525050613282868260ff1660058110613278576132776145e1565b5b6020020151613ba4565b828260ff1660058110613298576132976145e1565b5b602002019060ff16908160ff16815250508080600101915050613209565b506132c082613bff565b5f816001600581106132d5576132d46145e1565b5b602002015160ff16825f600581106132f0576132ef6145e1565b5b602002015160ff1614801561333a575081600260058110613314576133136145e1565b5b602002015160ff16826001600581106133305761332f6145e1565b5b602002015160ff16145b801561337b575081600360058110613355576133546145e1565b5b602002015160ff1682600260058110613371576133706145e1565b5b602002015160ff16145b80156133bc575081600460058110613396576133956145e1565b5b602002015160ff16826003600581106133b2576133b16145e1565b5b602002015160ff16145b90505f6133c884613d18565b90506133d2614173565b5f5f90505b60058160ff16101561343c5781868260ff16600581106133fa576133f96145e1565b5b602002015160ff16600f8110613413576134126145e1565b5b602002018051809190613425906159fd565b60ff1660ff168152505080806001019150506133d7565b505f5f90505f5f90505f5f90505f5f90505f5f90505f600e90505b60028160ff1610613528576004878260ff16600f811061347a576134796145e1565b5b602002015160ff160361348b578095505b6003878260ff16600f81106134a3576134a26145e1565b5b602002015160ff16036134b4578094505b6002878260ff16600f81106134cc576134cb6145e1565b5b602002015160ff1603613509575f8360ff16036134eb578092506134fa565b5f8260ff16036134f9578091505b5b8380613505906159fd565b9450505b60028160ff1603156135285780806135209061585c565b915050613457565b508680156135335750875b156135785760086402540be4008b5f60058110613553576135526145e1565b5b602002015160ff166135659190615926565b9b509b5050505050505050505050613b38565b5f8560ff161115613623575f5f90505f5f90505b60058160ff1610156135ea578660ff168c8260ff16600581106135b2576135b16145e1565b5b602002015160ff16146135dd578b8160ff16600581106135d5576135d46145e1565b5b602002015191505b808060010191505061358c565b5060078160ff166402540be4008860ff166136059190615926565b61360f91906159ca565b9c509c505050505050505050505050613b38565b5f8460ff1611801561363757505f8360ff16115b156136735760068260ff166402540be4008660ff166136569190615926565b61366091906159ca565b9b509b5050505050505050505050613b38565b871561377b5760058a60046005811061368f5761368e6145e1565b5b602002015160ff166127108c6003600581106136ae576136ad6145e1565b5b602002015160ff166136c09190615926565b620f42408d6002600581106136d8576136d76145e1565b5b602002015160ff166136ea9190615926565b6305f5e1008e600160058110613703576137026145e1565b5b602002015160ff166137159190615926565b6402540be4008f5f6005811061372e5761372d6145e1565b5b602002015160ff166137409190615926565b61374a91906159ca565b61375491906159ca565b61375e91906159ca565b61376891906159ca565b9b509b5050505050505050505050613b38565b86156137c15760046402540be4008b5f6005811061379c5761379b6145e1565b5b602002015160ff166137ae9190615926565b9b509b5050505050505050505050613b38565b5f8460ff161115613883575f5f90505f5f90505b60058160ff16101561384d578560ff168c8260ff16600581106137fb576137fa6145e1565b5b602002015160ff1614613840578b8160ff166005811061381e5761381d6145e1565b5b602002015160ff166064836138339190615926565b61383d91906159ca565b91505b80806001019150506137d5565b506003816402540be4008760ff166138659190615926565b61386f91906159ca565b9c509c505050505050505050505050613b38565b60028360ff1603613979575f5f90505f5f90505b60058160ff161015613923578360ff168c8260ff16600581106138bd576138bc6145e1565b5b602002015160ff16141580156138f357508260ff168c8260ff16600581106138e8576138e76145e1565b5b602002015160ff1614155b15613916578b8160ff166005811061390e5761390d6145e1565b5b602002015191505b8080600101915050613897565b5060028160ff166305f5e1008460ff1661393d9190615926565b6402540be4008660ff166139519190615926565b61395b91906159ca565b61396591906159ca565b9c509c505050505050505050505050613b38565b60018360ff1603613a3b575f5f90505f5f90505b60058160ff161015613a05578360ff168c8260ff16600581106139b3576139b26145e1565b5b602002015160ff16146139f8578b8160ff16600581106139d6576139d56145e1565b5b602002015160ff166064836139eb9190615926565b6139f591906159ca565b91505b808060010191505061398d565b506001816402540be4008560ff16613a1d9190615926565b613a2791906159ca565b9c509c505050505050505050505050613b38565b5f8a600460058110613a5057613a4f6145e1565b5b602002015160ff166127108c600360058110613a6f57613a6e6145e1565b5b602002015160ff16613a819190615926565b620f42408d600260058110613a9957613a986145e1565b5b602002015160ff16613aab9190615926565b6305f5e1008e600160058110613ac457613ac36145e1565b5b602002015160ff16613ad69190615926565b6402540be4008f5f60058110613aef57613aee6145e1565b5b602002015160ff16613b019190615926565b613b0b91906159ca565b613b1591906159ca565b613b1f91906159ca565b613b2991906159ca565b9b509b50505050505050505050505b915091565b5f60348260ff1610613b84576040517f08c379a0000000000000000000000000000000000000000000000000000000008152600401613b7b90615a6f565b60405180910390fd5b6002600d83613b939190615a8d565b613b9d9190615719565b9050919050565b5f60348260ff1610613beb576040517f08c379a0000000000000000000000000000000000000000000000000000000008152600401613be290615a6f565b60405180910390fd5b600d82613bf89190615abd565b9050919050565b5f5f90505b60058160ff161015613d14575f600182613c1e9190615719565b90505b60058160ff161015613d0657828260ff1660058110613c4357613c426145e1565b5b602002015160ff16838260ff1660058110613c6157613c606145e1565b5b602002015160ff161115613cf9575f838360ff1660058110613c8657613c856145e1565b5b60200201519050838260ff1660058110613ca357613ca26145e1565b5b6020020151848460ff1660058110613cbe57613cbd6145e1565b5b602002019060ff16908160ff168152505080848360ff1660058110613ce657613ce56145e1565b5b602002019060ff16908160ff1681525050505b8080600101915050613c21565b508080600101915050613c04565b5050565b5f600182600160058110613d2f57613d2e6145e1565b5b6020020151613d3e9190615719565b60ff16825f60058110613d5457613d536145e1565b5b602002015160ff16148015613daa5750600182600260058110613d7a57613d796145e1565b5b6020020151613d899190615719565b60ff1682600160058110613da057613d9f6145e1565b5b602002015160ff16145b8015613df75750600182600360058110613dc757613dc66145e1565b5b6020020151613dd69190615719565b60ff1682600260058110613ded57613dec6145e1565b5b602002015160ff16145b8015613e445750600182600460058110613e1457613e136145e1565b5b6020020151613e239190615719565b60ff1682600360058110613e3a57613e396145e1565b5b602002015160ff16145b15613e525760019050613f1e565b600e825f60058110613e6757613e666145e1565b5b602002015160ff16148015613e975750600582600160058110613e8d57613e8c6145e1565b5b602002015160ff16145b8015613ebe5750600482600260058110613eb457613eb36145e1565b5b602002015160ff16145b8015613ee55750600382600360058110613edb57613eda6145e1565b5b602002015160ff16145b8015613f0c5750600282600460058110613f0257613f016145e1565b5b602002015160ff16145b15613f1a5760019050613f1e565b5f90505b919050565b826002601f01602090048101928215613f5d5791601f016020900482015b82811115613f5c578254825591600101919060010190613f41565b5b509050613f6a9190614196565b5090565b6040518060400160405280600290602082028036833780820191505090505090565b505f9055565b6040518060a00160405280600590602082028036833780820191505090505090565b826005601f0160209004810192821561403e579160200282015f5b8382111561401057835183826101000a81548160ff021916908360ff16021790555092602001926001016020815f01049283019260010302613fd3565b801561403c5782816101000a81549060ff02191690556001016020815f01049283019260010302614010565b505b50905061404b9190614196565b5090565b5080545f8255905f5260205f209081019061406a9190614196565b50565b826002601f016020900481019282156140f3579160200282015f5b838211156140c557835183826101000a81548160ff021916908360ff16021790555092602001926001016020815f01049283019260010302614088565b80156140f15782816101000a81549060ff02191690556001016020815f010492830192600103026140c5565b505b5090506141009190614196565b5090565b6040518060e00160405280600790602082028036833780820191505090505090565b6040518061012001604052805f81526020015f81526020015f8152602001606081526020016060815260200161415a613f96565b8152602001606081526020015f81526020015f81525090565b604051806101e00160405280600f90602082028036833780820191505090505090565b5b808211156141ad575f815f905550600101614197565b5090565b5f5ffd5b5f819050919050565b6141c7816141b5565b81146141d1575f5ffd5b50565b5f813590506141e2816141be565b92915050565b5f602082840312156141fd576141fc6141b1565b5b5f61420a848285016141d4565b91505092915050565b61421c816141b5565b82525050565b5f6020820190506142355f830184614213565b92915050565b5f60ff82169050919050565b6142508161423b565b82525050565b5f6020820190506142695f830184614247565b92915050565b5f81519050919050565b5f82825260208201905092915050565b5f819050602082019050919050565b5f73ffffffffffffffffffffffffffffffffffffffff82169050919050565b5f6142c182614298565b9050919050565b6142d1816142b7565b82525050565b5f6142e283836142c8565b60208301905092915050565b5f602082019050919050565b5f6143048261426f565b61430e8185614279565b935061431983614289565b805f5b8381101561434957815161433088826142d7565b975061433b836142ee565b92505060018101905061431c565b5085935050505092915050565b5f6020820190508181035f83015261436e81846142fa565b905092915050565b61437f816142b7565b8114614389575f5ffd5b50565b5f8135905061439a81614376565b92915050565b5f602082840312156143b5576143b46141b1565b5b5f6143c28482850161438c565b91505092915050565b5f8115159050919050565b6143df816143cb565b82525050565b5f60029050919050565b5f81905092915050565b5f819050919050565b61440b8161423b565b82525050565b5f61441c8383614402565b60208301905092915050565b5f602082019050919050565b61443d816143e5565b61444781846143ef565b9250614452826143f9565b805f5b838110156144825781516144698782614411565b965061447483614428565b925050600181019050614455565b505050505050565b5f60a08201905061449d5f8301876143d6565b6144aa60208301866143d6565b6144b76040830185614213565b6144c46060830184614434565b95945050505050565b6144d6816142b7565b82525050565b5f6020820190506144ef5f8301846144cd565b92915050565b5f6020820190506145085f8301846143d6565b92915050565b5f60c0820190506145215f830189614213565b61452e6020830188614213565b61453b6040830187614213565b6145486060830186614213565b6145556080830185614247565b61456260a08301846143d6565b979650505050505050565b5f819050919050565b5f61459061458b61458684614298565b61456d565b614298565b9050919050565b5f6145a182614576565b9050919050565b5f6145b282614597565b9050919050565b6145c2816145a8565b82525050565b5f6020820190506145db5f8301846145b9565b92915050565b7f4e487b71000000000000000000000000000000000000000000000000000000005f52603260045260245ffd5b7f4e487b71000000000000000000000000000000000000000000000000000000005f52604160045260245ffd5b614644816141b5565b82525050565b5f82825260208201905092915050565b5f6146648261426f565b61466e818561464a565b935061467983614289565b805f5b838110156146a957815161469088826142d7565b975061469b836142ee565b92505060018101905061467c565b5085935050505092915050565b5f81519050919050565b5f82825260208201905092915050565b5f819050602082019050919050565b5f6146ea838361463b565b60208301905092915050565b5f602082019050919050565b5f61470c826146b6565b61471681856146c0565b9350614721836146d0565b805f5b8381101561475157815161473888826146df565b9750614743836146f6565b925050600181019050614724565b5085935050505092915050565b5f60059050919050565b5f81905092915050565b5f819050919050565b5f602082019050919050565b6147908161475e565b61479a8184614768565b92506147a582614772565b805f5b838110156147d55781516147bc8782614411565b96506147c78361477b565b9250506001810190506147a8565b505050505050565b5f6101a083015f8301516147f35f86018261463b565b506020830151614806602086018261463b565b506040830151614819604086018261463b565b5060608301518482036060860152614831828261465a565b9150506080830151848203608086015261484b8282614702565b91505060a083015161486060a0860182614787565b5060c0830151848203610140860152614879828261465a565b91505060e083015161488f61016086018261463b565b506101008301516148a461018086018261463b565b508091505092915050565b5f6020820190508181035f8301526148c781846147dd565b905092915050565b7f4e487b71000000000000000000000000000000000000000000000000000000005f52601160045260245ffd5b5f614906826141b5565b91507fffffffffffffffffffffffffffffffffffffffffffffffffffffffffffffffff8203614938576149376148cf565b5b600182019050919050565b5f60029050919050565b5f819050919050565b5f815f1c9050919050565b5f60ff82169050919050565b5f61497f61497a83614956565b614961565b9050919050565b5f8160081c9050919050565b5f6149a461499f83614986565b614961565b9050919050565b5f8160101c9050919050565b5f6149c96149c4836149ab565b614961565b9050919050565b5f8160181c9050919050565b5f6149ee6149e9836149d0565b614961565b9050919050565b5f8160201c9050919050565b5f614a13614a0e836149f5565b614961565b9050919050565b5f8160281c9050919050565b5f614a38614a3383614a1a565b614961565b9050919050565b5f8160301c9050919050565b5f614a5d614a5883614a3f565b614961565b9050919050565b5f8160381c9050919050565b5f614a82614a7d83614a64565b614961565b9050919050565b5f8160401c9050919050565b5f614aa7614aa283614a89565b614961565b9050919050565b5f8160481c9050919050565b5f614acc614ac783614aae565b614961565b9050919050565b5f8160501c9050919050565b5f614af1614aec83614ad3565b614961565b9050919050565b5f8160581c9050919050565b5f614b16614b1183614af8565b614961565b9050919050565b5f8160601c9050919050565b5f614b3b614b3683614b1d565b614961565b9050919050565b5f8160681c9050919050565b5f614b60614b5b83614b42565b614961565b9050919050565b5f8160701c9050919050565b5f614b85614b8083614b67565b614961565b9050919050565b5f8160781c9050919050565b5f614baa614ba583614b8c565b614961565b9050919050565b5f8160801c9050919050565b5f614bcf614bca83614bb1565b614961565b9050919050565b5f8160881c9050919050565b5f614bf4614bef83614bd6565b614961565b9050919050565b5f8160901c9050919050565b5f614c19614c1483614bfb565b614961565b9050919050565b5f8160981c9050919050565b5f614c3e614c3983614c20565b614961565b9050919050565b5f8160a01c9050919050565b5f614c63614c5e83614c45565b614961565b9050919050565b5f8160a81c9050919050565b5f614c88614c8383614c6a565b614961565b9050919050565b5f8160b01c9050919050565b5f614cad614ca883614c8f565b614961565b9050919050565b5f8160b81c9050919050565b5f614cd2614ccd83614cb4565b614961565b9050919050565b5f8160c01c9050919050565b5f614cf7614cf283614cd9565b614961565b9050919050565b5f8160c81c9050919050565b5f614d1c614d1783614cfe565b614961565b9050919050565b5f8160d01c9050919050565b5f614d41614d3c83614d23565b614961565b9050919050565b5f8160d81c9050919050565b5f614d66614d6183614d48565b614961565b9050919050565b5f8160e01c9050919050565b5f614d8b614d8683614d6d565b614961565b9050919050565b5f8160e81c9050919050565b5f614db0614dab83614d92565b614961565b9050919050565b5f8160f01c9050919050565b5f614dd5614dd083614db7565b614961565b9050919050565b5f8160f81c9050919050565b5f614dfa614df583614ddc565b614961565b9050919050565b614e0a81614943565b614e1481846143ef565b925082614e208361494d565b5f5f1561514b575b8360016020038201101561514a578154614e4a87614e458361496d565b614402565b602087019650614e6287614e5d83614992565b614402565b602087019650614e7a87614e75836149b7565b614402565b602087019650614e9287614e8d836149dc565b614402565b602087019650614eaa87614ea583614a01565b614402565b602087019650614ec287614ebd83614a26565b614402565b602087019650614eda87614ed583614a4b565b614402565b602087019650614ef287614eed83614a70565b614402565b602087019650614f0a87614f0583614a95565b614402565b602087019650614f2287614f1d83614aba565b614402565b602087019650614f3a87614f3583614adf565b614402565b602087019650614f5287614f4d83614b04565b614402565b602087019650614f6a87614f6583614b29565b614402565b602087019650614f8287614f7d83614b4e565b614402565b602087019650614f9a87614f9583614b73565b614402565b602087019650614fb287614fad83614b98565b614402565b602087019650614fca87614fc583614bbd565b614402565b602087019650614fe287614fdd83614be2565b614402565b602087019650614ffa87614ff583614c07565b614402565b6020870196506150128761500d83614c2c565b614402565b60208701965061502a8761502583614c51565b614402565b6020870196506150428761503d83614c76565b614402565b60208701965061505a8761505583614c9b565b614402565b6020870196506150728761506d83614cc0565b614402565b60208701965061508a8761508583614ce5565b614402565b6020870196506150a28761509d83614d0a565b614402565b6020870196506150ba876150b583614d2f565b614402565b6020870196506150d2876150cd83614d54565b614402565b6020870196506150ea876150e583614d79565b614402565b602087019650615102876150fd83614d9e565b614402565b60208701965061511a8761511583614dc3565b614402565b6020870196506151328761512d83614de8565b614402565b60208701965060018301925050602081019050614e28565b5b6001156155f857815460011561517a5761516d876151688361496d565b614402565b6020870196506001820191505b6001156151a0576151938761518e83614992565b614402565b6020870196506001820191505b5f156151c5576151b8876151b3836149b7565b614402565b6020870196506001820191505b5f156151ea576151dd876151d8836149dc565b614402565b6020870196506001820191505b5f1561520f57615202876151fd83614a01565b614402565b6020870196506001820191505b5f15615234576152278761522283614a26565b614402565b6020870196506001820191505b5f156152595761524c8761524783614a4b565b614402565b6020870196506001820191505b5f1561527e576152718761526c83614a70565b614402565b6020870196506001820191505b5f156152a3576152968761529183614a95565b614402565b6020870196506001820191505b5f156152c8576152bb876152b683614aba565b614402565b6020870196506001820191505b5f156152ed576152e0876152db83614adf565b614402565b6020870196506001820191505b5f15615312576153058761530083614b04565b614402565b6020870196506001820191505b5f156153375761532a8761532583614b29565b614402565b6020870196506001820191505b5f1561535c5761534f8761534a83614b4e565b614402565b6020870196506001820191505b5f15615381576153748761536f83614b73565b614402565b6020870196506001820191505b5f156153a6576153998761539483614b98565b614402565b6020870196506001820191505b5f156153cb576153be876153b983614bbd565b614402565b6020870196506001820191505b5f156153f0576153e3876153de83614be2565b614402565b6020870196506001820191505b5f15615415576154088761540383614c07565b614402565b6020870196506001820191505b5f1561543a5761542d8761542883614c2c565b614402565b6020870196506001820191505b5f1561545f576154528761544d83614c51565b614402565b6020870196506001820191505b5f15615484576154778761547283614c76565b614402565b6020870196506001820191505b5f156154a95761549c8761549783614c9b565b614402565b6020870196506001820191505b5f156154ce576154c1876154bc83614cc0565b614402565b6020870196506001820191505b5f156154f3576154e6876154e183614ce5565b614402565b6020870196506001820191505b5f156155185761550b8761550683614d0a565b614402565b6020870196506001820191505b5f1561553d576155308761552b83614d2f565b614402565b6020870196506001820191505b5f15615562576155558761555083614d54565b614402565b6020870196506001820191505b5f156155875761557a8761557583614d79565b614402565b6020870196506001820191505b5f156155ac5761559f8761559a83614d9e565b614402565b6020870196506001820191505b5f156155d1576155c4876155bf83614dc3565b614402565b6020870196506001820191505b5f156155f6576155e9876155e483614de8565b614402565b6020870196506001820191505b505b505050505050565b5f6040820190506156135f830184614e01565b92915050565b5f60408201905061562c5f830184614434565b92915050565b5f81905092915050565b50565b5f61564a5f83615632565b91506156558261563c565b5f82019050919050565b5f6156698261563f565b9150819050919050565b5f81905092915050565b6156868161475e565b6156908184615673565b925061569b82614772565b805f5b838110156156cb5781516156b28782614411565b96506156bd8361477b565b92505060018101905061569e565b505050505050565b5f60a0820190506156e65f83018461567d565b92915050565b7f4e487b71000000000000000000000000000000000000000000000000000000005f52602160045260245ffd5b5f6157238261423b565b915061572e8361423b565b9250828201905060ff811115615747576157466148cf565b5b92915050565b5f819050919050565b615767615762826141b5565b61574d565b82525050565b5f8160601b9050919050565b5f6157838261576d565b9050919050565b5f61579482615779565b9050919050565b6157ac6157a7826142b7565b61578a565b82525050565b5f6157bd8287615756565b6020820191506157cd8286615756565b6020820191506157dd828561579b565b6014820191506157ed8284615756565b60208201915081905095945050505050565b7f4e487b71000000000000000000000000000000000000000000000000000000005f52601260045260245ffd5b5f615836826141b5565b9150615841836141b5565b925082615851576158506157ff565b5b828206905092915050565b5f6158668261423b565b91505f8203615878576158776148cf565b5b600182039050919050565b5f61588e8285615756565b60208201915061589e8284615756565b6020820191508190509392505050565b5f82825260208201905092915050565b7f4661696c656420746f2066696e6420617661696c61626c6520636172640000005f82015250565b5f6158f2601d836158ae565b91506158fd826158be565b602082019050919050565b5f6020820190508181035f83015261591f816158e6565b9050919050565b5f615930826141b5565b915061593b836141b5565b9250828202615949816141b5565b915082820484148315176159605761595f6148cf565b5b5092915050565b5f615971826141b5565b915061597c836141b5565b9250828203905081811115615994576159936148cf565b5b92915050565b5f6159a4826141b5565b91506159af836141b5565b9250826159bf576159be6157ff565b5b828204905092915050565b5f6159d4826141b5565b91506159df836141b5565b92508282019050808211156159f7576159f66148cf565b5b92915050565b5f615a078261423b565b915060ff8203615a1a57615a196148cf565b5b600182019050919050565b7f496e76616c6964206361726420696e64657800000000000000000000000000005f82015250565b5f615a596012836158ae565b9150615a6482615a25565b602082019050919050565b5f6020820190508181035f830152615a8681615a4d565b9050919050565b5f615a978261423b565b9150615aa28361423b565b925082615ab257615ab16157ff565b5b828206905092915050565b5f615ac78261423b565b9150615ad28361423b565b925082615ae257615ae16157ff565b5b82820490509291505056fea26469706673582212205245da457eb3dc837e3586693d4aa0f05c0eb77833d58f3f91a53f0656c01e4564736f6c634300081d0033",
  "linkReferences": {},
  "deployedLinkReferences": {},
  "immutableReferences": {},
  "inputSourceName": "project/contracts/SimpleTexasHoldem.sol",
  "buildInfoId": "solc-0_8_29-3a17389685b4ff532dd36634761bbf3b3af7b421"
}