{
  "_format": "hh3-artifact-1",
  "contractName": "SimpleTexasHoldem",
  "sourceName": "contracts/SimpleTexasHoldem.sol",
  "abi": [
    {
      "inputs": [
        {
          "internalType": "address",
          "name": "_gameToken",
          "type": "address"
        }
      ],
      "stateMutability": "nonpayable",
      "type": "constructor"
    },
    {
      "inputs": [],
      "name": "AlreadyBet",
      "type": "error"
    },
    {
      "inputs": [],
      "name": "AlreadyParticipated",
      "type": "error"
    },
    {
      "inputs": [],
      "name": "ContractPaused",
      "type": "error"
    },
    {
      "inputs": [],
      "name": "DurationTooShort",
      "type": "error"
    },
    {
      "inputs": [],
      "name": "GameAlreadyActive",
      "type": "error"
    },
    {
      "inputs": [],
      "name": "GameFull",
      "type": "error"
    },
    {
      "inputs": [],
      "name": "JoinPeriodClosed",
      "type": "error"
    },
    {
      "inputs": [],
      "name": "MaxAttemptsReached",
      "type": "error"
    },
    {
      "inputs": [],
      "name": "MustBetSome",
      "type": "error"
    },
    {
      "inputs": [],
      "name": "MustJoinFirst",
      "type": "error"
    },
    {
      "inputs": [],
      "name": "NoActiveGame",
      "type": "error"
    },
    {
      "inputs": [],
      "name": "NoCardsRemaining",
      "type": "error"
    },
    {
      "inputs": [],
      "name": "NoCardsToReturn",
      "type": "error"
    },
    {
      "inputs": [],
      "name": "NoFees",
      "type": "error"
    },
    {
      "inputs": [],
      "name": "NoPlayers",
      "type": "error"
    },
    {
      "inputs": [],
      "name": "NoWinners",
      "type": "error"
    },
    {
      "inputs": [],
      "name": "NotEnoughCards",
      "type": "error"
    },
    {
      "inputs": [],
      "name": "NotEnoughPlayers",
      "type": "error"
    },
    {
      "inputs": [],
      "name": "NotInGame",
      "type": "error"
    },
    {
      "inputs": [
        {
          "internalType": "address",
          "name": "owner",
          "type": "address"
        }
      ],
      "name": "OwnableInvalidOwner",
      "type": "error"
    },
    {
      "inputs": [
        {
          "internalType": "address",
          "name": "account",
          "type": "address"
        }
      ],
      "name": "OwnableUnauthorizedAccount",
      "type": "error"
    },
    {
      "inputs": [],
      "name": "ReentrancyGuardReentrantCall",
      "type": "error"
    },
    {
      "inputs": [
        {
          "internalType": "address",
          "name": "token",
          "type": "address"
        }
      ],
      "name": "SafeERC20FailedOperation",
      "type": "error"
    },
    {
      "inputs": [],
      "name": "TransferFailed",
      "type": "error"
    },
    {
      "anonymous": false,
      "inputs": [
        {
          "indexed": true,
          "internalType": "uint256",
          "name": "gameId",
          "type": "uint256"
        },
        {
          "indexed": false,
          "internalType": "uint8[5]",
          "name": "boardCards",
          "type": "uint8[5]"
        }
      ],
      "name": "BoardCardsDealt",
      "type": "event"
    },
    {
      "anonymous": false,
      "inputs": [
        {
          "indexed": false,
          "internalType": "bool",
          "name": "gamePaused",
          "type": "bool"
        }
      ],
      "name": "EmergencyPauseToggled",
      "type": "event"
    },
    {
      "anonymous": false,
      "inputs": [
        {
          "indexed": true,
          "internalType": "uint256",
          "name": "gameId",
          "type": "uint256"
        },
        {
          "components": [
            {
              "internalType": "uint256",
              "name": "gameId",
              "type": "uint256"
            },
            {
              "internalType": "uint256",
              "name": "startTime",
              "type": "uint256"
            },
            {
              "internalType": "uint256",
              "name": "endTime",
              "type": "uint256"
            },
            {
              "internalType": "address[]",
              "name": "players",
              "type": "address[]"
            },
            {
              "internalType": "uint256[]",
              "name": "betAmounts",
              "type": "uint256[]"
            },
            {
              "internalType": "uint8[5]",
              "name": "boardCards",
              "type": "uint8[5]"
            },
            {
              "internalType": "address[]",
              "name": "winners",
              "type": "address[]"
            },
            {
              "internalType": "uint256",
              "name": "potPerWinner",
              "type": "uint256"
            },
            {
              "internalType": "uint256",
              "name": "houseFee",
              "type": "uint256"
            }
          ],
          "indexed": false,
          "internalType": "struct TexasHoldemConstants.GameResult",
          "name": "result",
          "type": "tuple"
        }
      ],
      "name": "GameEnded",
      "type": "event"
    },
    {
      "anonymous": false,
      "inputs": [
        {
          "indexed": true,
          "internalType": "uint256",
          "name": "gameId",
          "type": "uint256"
        },
        {
          "indexed": false,
          "internalType": "uint256",
          "name": "startTime",
          "type": "uint256"
        },
        {
          "indexed": false,
          "internalType": "uint256",
          "name": "endTime",
          "type": "uint256"
        }
      ],
      "name": "GameStarted",
      "type": "event"
    },
    {
      "anonymous": false,
      "inputs": [
        {
          "indexed": true,
          "internalType": "address",
          "name": "owner",
          "type": "address"
        },
        {
          "indexed": false,
          "internalType": "uint256",
          "name": "amount",
          "type": "uint256"
        }
      ],
      "name": "HouseFeeWithdrawn",
      "type": "event"
    },
    {
      "anonymous": false,
      "inputs": [
        {
          "indexed": true,
          "internalType": "address",
          "name": "previousOwner",
          "type": "address"
        },
        {
          "indexed": true,
          "internalType": "address",
          "name": "newOwner",
          "type": "address"
        }
      ],
      "name": "OwnershipTransferred",
      "type": "event"
    },
    {
      "anonymous": false,
      "inputs": [
        {
          "indexed": true,
          "internalType": "uint256",
          "name": "gameId",
          "type": "uint256"
        },
        {
          "indexed": true,
          "internalType": "address",
          "name": "player",
          "type": "address"
        },
        {
          "indexed": false,
          "internalType": "uint256",
          "name": "amount",
          "type": "uint256"
        }
      ],
      "name": "PlayerBet",
      "type": "event"
    },
    {
      "anonymous": false,
      "inputs": [
        {
          "indexed": true,
          "internalType": "uint256",
          "name": "gameId",
          "type": "uint256"
        },
        {
          "indexed": true,
          "internalType": "address",
          "name": "player",
          "type": "address"
        },
        {
          "indexed": false,
          "internalType": "uint8[2]",
          "name": "returnedCards",
          "type": "uint8[2]"
        }
      ],
      "name": "PlayerFolded",
      "type": "event"
    },
    {
      "anonymous": false,
      "inputs": [
        {
          "indexed": true,
          "internalType": "uint256",
          "name": "gameId",
          "type": "uint256"
        },
        {
          "indexed": true,
          "internalType": "address",
          "name": "player",
          "type": "address"
        },
        {
          "indexed": false,
          "internalType": "uint8[2]",
          "name": "holeCards",
          "type": "uint8[2]"
        }
      ],
      "name": "PlayerJoined",
      "type": "event"
    },
    {
      "inputs": [],
      "name": "DECK_SIZE",
      "outputs": [
        {
          "internalType": "uint8",
          "name": "",
          "type": "uint8"
        }
      ],
      "stateMutability": "view",
      "type": "function"
    },
    {
      "inputs": [],
      "name": "HOUSE_FEE_PERCENTAGE",
      "outputs": [
        {
          "internalType": "uint256",
          "name": "",
          "type": "uint256"
        }
      ],
      "stateMutability": "view",
      "type": "function"
    },
    {
      "inputs": [],
      "name": "JOIN_CUTOFF",
      "outputs": [
        {
          "internalType": "uint256",
          "name": "",
          "type": "uint256"
        }
      ],
      "stateMutability": "view",
      "type": "function"
    },
    {
      "inputs": [],
      "name": "MAX_PLAYERS",
      "outputs": [
        {
          "internalType": "uint256",
          "name": "",
          "type": "uint256"
        }
      ],
      "stateMutability": "view",
      "type": "function"
    },
    {
      "inputs": [],
      "name": "MAX_TOTAL_PLAYERS",
      "outputs": [
        {
          "internalType": "uint256",
          "name": "",
          "type": "uint256"
        }
      ],
      "stateMutability": "view",
      "type": "function"
    },
    {
      "inputs": [],
      "name": "MIN_CARDS_REQUIRED",
      "outputs": [
        {
          "internalType": "uint256",
          "name": "",
          "type": "uint256"
        }
      ],
      "stateMutability": "view",
      "type": "function"
    },
    {
      "inputs": [],
      "name": "MIN_PLAYERS",
      "outputs": [
        {
          "internalType": "uint256",
          "name": "",
          "type": "uint256"
        }
      ],
      "stateMutability": "view",
      "type": "function"
    },
    {
      "inputs": [],
      "name": "accumulatedHouseFees",
      "outputs": [
        {
          "internalType": "uint256",
          "name": "",
          "type": "uint256"
        }
      ],
      "stateMutability": "view",
      "type": "function"
    },
    {
      "inputs": [],
      "name": "currentGameId",
      "outputs": [
        {
          "internalType": "uint256",
          "name": "",
          "type": "uint256"
        }
      ],
      "stateMutability": "view",
      "type": "function"
    },
    {
      "inputs": [],
      "name": "endGame",
      "outputs": [],
      "stateMutability": "nonpayable",
      "type": "function"
    },
    {
      "inputs": [],
      "name": "fold",
      "outputs": [],
      "stateMutability": "nonpayable",
      "type": "function"
    },
    {
      "inputs": [],
      "name": "gameActive",
      "outputs": [
        {
          "internalType": "bool",
          "name": "",
          "type": "bool"
        }
      ],
      "stateMutability": "view",
      "type": "function"
    },
    {
      "inputs": [],
      "name": "gamePaused",
      "outputs": [
        {
          "internalType": "bool",
          "name": "",
          "type": "bool"
        }
      ],
      "stateMutability": "view",
      "type": "function"
    },
    {
      "inputs": [],
      "name": "gameToken",
      "outputs": [
        {
          "internalType": "contract IERC20",
          "name": "",
          "type": "address"
        }
      ],
      "stateMutability": "view",
      "type": "function"
    },
    {
      "inputs": [],
      "name": "getCurrentGameInfo",
      "outputs": [
        {
          "internalType": "uint256",
          "name": "gameId",
          "type": "uint256"
        },
        {
          "internalType": "uint256",
          "name": "startTime",
          "type": "uint256"
        },
        {
          "internalType": "uint256",
          "name": "endTime",
          "type": "uint256"
        },
        {
          "internalType": "uint256",
          "name": "playerCount",
          "type": "uint256"
        },
        {
          "internalType": "uint256",
          "name": "totalParticipations",
          "type": "uint256"
        },
        {
          "internalType": "uint256",
          "name": "cardsRemaining",
          "type": "uint256"
        },
        {
          "internalType": "bool",
          "name": "isActive",
          "type": "bool"
        }
      ],
      "stateMutability": "view",
      "type": "function"
    },
    {
      "inputs": [],
      "name": "getGamePlayers",
      "outputs": [
        {
          "internalType": "address[]",
          "name": "players",
          "type": "address[]"
        }
      ],
      "stateMutability": "view",
      "type": "function"
    },
    {
      "inputs": [
        {
          "internalType": "address",
          "name": "player",
          "type": "address"
        }
      ],
      "name": "getPlayerInfo",
      "outputs": [
        {
          "internalType": "bool",
          "name": "hasParticipated",
          "type": "bool"
        },
        {
          "internalType": "bool",
          "name": "hasBet",
          "type": "bool"
        },
        {
          "internalType": "uint256",
          "name": "betAmount",
          "type": "uint256"
        },
        {
          "internalType": "uint8[2]",
          "name": "holeCards",
          "type": "uint8[2]"
        }
      ],
      "stateMutability": "view",
      "type": "function"
    },
    {
      "inputs": [],
      "name": "joinGame",
      "outputs": [],
      "stateMutability": "nonpayable",
      "type": "function"
    },
    {
      "inputs": [],
      "name": "owner",
      "outputs": [
        {
          "internalType": "address",
          "name": "",
          "type": "address"
        }
      ],
      "stateMutability": "view",
      "type": "function"
    },
    {
      "inputs": [
        {
          "internalType": "uint256",
          "name": "betAmount",
          "type": "uint256"
        }
      ],
      "name": "placeBet",
      "outputs": [],
      "stateMutability": "payable",
      "type": "function"
    },
    {
      "inputs": [],
      "name": "renounceOwnership",
      "outputs": [],
      "stateMutability": "nonpayable",
      "type": "function"
    },
    {
      "inputs": [
        {
          "internalType": "uint256",
          "name": "duration",
          "type": "uint256"
        }
      ],
      "name": "startGame",
      "outputs": [],
      "stateMutability": "nonpayable",
      "type": "function"
    },
    {
      "inputs": [],
      "name": "togglePause",
      "outputs": [],
      "stateMutability": "nonpayable",
      "type": "function"
    },
    {
      "inputs": [
        {
          "internalType": "address",
          "name": "newOwner",
          "type": "address"
        }
      ],
      "name": "transferOwnership",
      "outputs": [],
      "stateMutability": "nonpayable",
      "type": "function"
    },
    {
      "inputs": [],
      "name": "useEth",
      "outputs": [
        {
          "internalType": "bool",
          "name": "",
          "type": "bool"
        }
      ],
      "stateMutability": "view",
      "type": "function"
    },
    {
      "inputs": [],
      "name": "withdrawHouseFees",
      "outputs": [],
      "stateMutability": "nonpayable",
      "type": "function"
    }
  ],
  "bytecode": "0x608060405234801561000f575f5ffd5b50604051615fdc380380615fdc833981810160405281019061003191906102f9565b335f73ffffffffffffffffffffffffffffffffffffffff168173ffffffffffffffffffffffffffffffffffffffff16036100a2575f6040517f1e4fbdf70000000000000000000000000000000000000000000000000000000081526004016100999190610333565b60405180910390fd5b6100b1816101a860201b60201c565b5060016100d06100c561026960201b60201c565b61029260201b60201c565b5f01819055505f73ffffffffffffffffffffffffffffffffffffffff168173ffffffffffffffffffffffffffffffffffffffff16036101285760015f60146101000a81548160ff021916908315150217905550610182565b8060015f6101000a81548173ffffffffffffffffffffffffffffffffffffffff021916908373ffffffffffffffffffffffffffffffffffffffff1602179055505f5f60146101000a81548160ff0219169083151502179055505b5f6002819055505f5f60156101000a81548160ff0219169083151502179055505061034c565b5f5f5f9054906101000a900473ffffffffffffffffffffffffffffffffffffffff169050815f5f6101000a81548173ffffffffffffffffffffffffffffffffffffffff021916908373ffffffffffffffffffffffffffffffffffffffff1602179055508173ffffffffffffffffffffffffffffffffffffffff168173ffffffffffffffffffffffffffffffffffffffff167f8be0079c531659141344cd1fd0a4f28419497f9722a3daafe3b4186f6b6457e060405160405180910390a35050565b5f7f9b779b17422d0df92223018b32b4d1fa46e071723d6817e2486d003becc55f005f1b905090565b5f819050919050565b5f5ffd5b5f73ffffffffffffffffffffffffffffffffffffffff82169050919050565b5f6102c88261029f565b9050919050565b6102d8816102be565b81146102e2575f5ffd5b50565b5f815190506102f3816102cf565b92915050565b5f6020828403121561030e5761030d61029b565b5b5f61031b848285016102e5565b91505092915050565b61032d816102be565b82525050565b5f6020820190506103465f830184610324565b92915050565b615c83806103595f395ff3fe608060405260043610610180575f3560e01c80638da5cb5b116100d0578063c4ae316811610089578063e684f46a11610063578063e684f46a146104db578063f020044f146104f1578063f2fde38b1461051b578063f677b4d41461054357610180565b8063c4ae316814610487578063d4f77b1c1461049d578063e5ed1d59146104b357610180565b80638da5cb5b146103855780639b52474b146103af5780639f14bbed146103d9578063a645e84014610403578063c3de1ab914610433578063c3dfdae61461045d57610180565b8063593284011161013d5780636cbc2ded116101175780636cbc2ded14610305578063715018a61461031b57806385f07bbe146103315780638d744a241461035b57610180565b80635932840114610272578063595b533b146102b1578063663e1127146102db57610180565b806310fe7c4814610184578063177e6058146101a0578063395c197f146101ca5780634411b3eb146101f45780634c8b88a81461021e578063536a3ddc14610248575b5f5ffd5b61019e60048036038101906101999190614313565b610559565b005b3480156101ab575f5ffd5b506101b4610964565b6040516101c1919061434d565b60405180910390f35b3480156101d5575f5ffd5b506101de61096a565b6040516101eb9190614381565b60405180910390f35b3480156101ff575f5ffd5b5061020861096f565b604051610215919061434d565b60405180910390f35b348015610229575f5ffd5b50610232610974565b60405161023f9190614481565b60405180910390f35b348015610253575f5ffd5b5061025c610a01565b604051610269919061434d565b60405180910390f35b34801561027d575f5ffd5b50610298600480360381019061029391906144cb565b610a07565b6040516102a894939291906145b5565b60405180910390f35b3480156102bc575f5ffd5b506102c5610c05565b6040516102d2919061434d565b60405180910390f35b3480156102e6575f5ffd5b506102ef610c0b565b6040516102fc919061434d565b60405180910390f35b348015610310575f5ffd5b50610319610c10565b005b348015610326575f5ffd5b5061032f610fa5565b005b34801561033c575f5ffd5b50610345610fb8565b604051610352919061434d565b60405180910390f35b348015610366575f5ffd5b5061036f610fbd565b60405161037c919061434d565b60405180910390f35b348015610390575f5ffd5b50610399610fc2565b6040516103a69190614607565b60405180910390f35b3480156103ba575f5ffd5b506103c3610fe9565b6040516103d09190614620565b60405180910390f35b3480156103e4575f5ffd5b506103ed610ffb565b6040516103fa919061434d565b60405180910390f35b34801561040e575f5ffd5b50610417611000565b60405161042a9796959493929190614639565b60405180910390f35b34801561043e575f5ffd5b50610447611064565b6040516104549190614620565b60405180910390f35b348015610468575f5ffd5b50610471611076565b60405161047e9190614701565b60405180910390f35b348015610492575f5ffd5b5061049b61109b565b005b3480156104a8575f5ffd5b506104b1611112565b005b3480156104be575f5ffd5b506104d960048036038101906104d49190614313565b6114ab565b005b3480156104e6575f5ffd5b506104ef611626565b005b3480156104fc575f5ffd5b506105056118fb565b6040516105129190614620565b60405180910390f35b348015610526575f5ffd5b50610541600480360381019061053c91906144cb565b61190d565b005b34801561054e575f5ffd5b50610557611991565b005b5f60169054906101000a900460ff161561059f576040517fab35696f00000000000000000000000000000000000000000000000000000000815260040160405180910390fd5b5f60159054906101000a900460ff166105e4576040517f256d984000000000000000000000000000000000000000000000000000000000815260040160405180910390fd5b6105ec611a58565b60056006015f3373ffffffffffffffffffffffffffffffffffffffff1673ffffffffffffffffffffffffffffffffffffffff1681526020019081526020015f205f9054906101000a900460ff1661066f576040517f456a578600000000000000000000000000000000000000000000000000000000815260040160405180910390fd5b5f60056004015f3373ffffffffffffffffffffffffffffffffffffffff1673ffffffffffffffffffffffffffffffffffffffff1681526020019081526020015f2060010154146106eb576040517fa820742e00000000000000000000000000000000000000000000000000000000815260040160405180910390fd5b5f5f60149054906101000a900460ff1615610741575f3403610739576040517fc288941e00000000000000000000000000000000000000000000000000000000815260040160405180910390fd5b3490506107cc565b5f820361077a576040517fc288941e00000000000000000000000000000000000000000000000000000000815260040160405180910390fd5b8190506107cb33308460015f9054906101000a900473ffffffffffffffffffffffffffffffffffffffff1673ffffffffffffffffffffffffffffffffffffffff16611a7a909392919063ffffffff16565b5b60056003015f3373ffffffffffffffffffffffffffffffffffffffff1673ffffffffffffffffffffffffffffffffffffffff1681526020019081526020015f2060056004015f3373ffffffffffffffffffffffffffffffffffffffff1673ffffffffffffffffffffffffffffffffffffffff1681526020019081526020015f205f0190600261085c92919061404e565b508060056004015f3373ffffffffffffffffffffffffffffffffffffffff1673ffffffffffffffffffffffffffffffffffffffff1681526020019081526020015f20600101819055506005800133908060018154018082558091505060019003905f5260205f20015f9091909190916101000a81548173ffffffffffffffffffffffffffffffffffffffff021916908373ffffffffffffffffffffffffffffffffffffffff1602179055503373ffffffffffffffffffffffffffffffffffffffff166002547fd4378ef4558c1e2a851456fb0106171f67cc4bc8abe3f27346a47cc6010a291d83604051610950919061434d565b60405180910390a350610961611acf565b50565b60035481565b603481565b600981565b6060600580018054806020026020016040519081016040528092919081815260200182805480156109f757602002820191905f5260205f20905b815f9054906101000a900473ffffffffffffffffffffffffffffffffffffffff1673ffffffffffffffffffffffffffffffffffffffff16815260200190600101908083116109ae575b5050505050905090565b60025481565b5f5f5f610a12614099565b60056006015f8673ffffffffffffffffffffffffffffffffffffffff1673ffffffffffffffffffffffffffffffffffffffff1681526020019081526020015f205f9054906101000a900460ff16935060056004015f8673ffffffffffffffffffffffffffffffffffffffff1673ffffffffffffffffffffffffffffffffffffffff1681526020019081526020015f206001015491505f821192508215610b5b5760056004015f8673ffffffffffffffffffffffffffffffffffffffff1673ffffffffffffffffffffffffffffffffffffffff1681526020019081526020015f205f01600280602002604051908101604052809291908260028015610b4f576020028201915f905b82829054906101000a900460ff1660ff16815260200190600101906020825f01049283019260010382029150808411610b195790505b50505050509050610bfe565b60056003015f8673ffffffffffffffffffffffffffffffffffffffff1673ffffffffffffffffffffffffffffffffffffffff1681526020019081526020015f20600280602002604051908101604052809291908260028015610bf6576020028201915f905b82829054906101000a900460ff1660ff16815260200190600101906020825f01049283019260010382029150808411610bc05790505b505050505090505b9193509193565b61012c81565b600181565b610c18611ae9565b5f60169054906101000a900460ff1615610c5e576040517fab35696f00000000000000000000000000000000000000000000000000000000815260040160405180910390fd5b5f60159054906101000a900460ff16610ca3576040517f256d984000000000000000000000000000000000000000000000000000000000815260040160405180910390fd5b5f5f60156101000a81548160ff0219169083151502179055505f600580018054905090506002811015610f91575f5f90505b81811015610d87575f600580018281548110610cf457610cf361471a565b5b905f5260205f20015f9054906101000a900473ffffffffffffffffffffffffffffffffffffffff1690505f60056004015f8373ffffffffffffffffffffffffffffffffffffffff1673ffffffffffffffffffffffffffffffffffffffff1681526020019081526020015f206001015490505f811115610d7857610d778282611b70565b5b50508080600101915050610cd5565b505f60405180610120016040528060025481526020016005600101548152602001600560020154815260200160058001805480602002602001604051908101604052809291908181526020018280548015610e3457602002820191905f5260205f20905b815f9054906101000a900473ffffffffffffffffffffffffffffffffffffffff1673ffffffffffffffffffffffffffffffffffffffff1681526020019060010190808311610deb575b505050505081526020015f67ffffffffffffffff811115610e5857610e57614747565b5b604051908082528060200260200182016040528015610e865781602001602082028036833780820191505090505b5081526020016005600c01600580602002604051908101604052809291908260058015610eec576020028201915f905b82829054906101000a900460ff1660ff16815260200190600101906020825f01049283019260010382029150808411610eb65790505b505050505081526020015f67ffffffffffffffff811115610f1057610f0f614747565b5b604051908082528060200260200182016040528015610f3e5781602001602082028036833780820191505090505b5081526020015f81526020015f81525090506002547f6078529d9020f865ca5321b152951664d06fe9f9ee87e29547bdb9994473da3a82604051610f8291906149e8565b60405180910390a25050610fa3565b610f99611c7a565b610fa1611d22565b505b565b610fad611ae9565b610fb65f61211b565b565b600281565b603281565b5f5f5f9054906101000a900473ffffffffffffffffffffffffffffffffffffffff16905090565b5f60149054906101000a900460ff1681565b600781565b5f5f5f5f5f5f5f60055f015460056001015460056002015460058001805490506005600801546005600b015f9054906101000a900460ff165f60159054906101000a900460ff168160ff169150965096509650965096509650965090919293949596565b5f60169054906101000a900460ff1681565b60015f9054906101000a900473ffffffffffffffffffffffffffffffffffffffff1681565b6110a3611ae9565b5f60169054906101000a900460ff16155f60166101000a81548160ff0219169083151502179055507fb5838f871ddee4623a406029b1a0b6013e0ec30f2dc114307f21459a800a82965f60169054906101000a900460ff166040516111089190614620565b60405180910390a1565b5f60169054906101000a900460ff1615611158576040517fab35696f00000000000000000000000000000000000000000000000000000000815260040160405180910390fd5b5f60159054906101000a900460ff1661119d576040517f256d984000000000000000000000000000000000000000000000000000000000815260040160405180910390fd5b60056006015f3373ffffffffffffffffffffffffffffffffffffffff1673ffffffffffffffffffffffffffffffffffffffff1681526020019081526020015f205f9054906101000a900460ff1615611221576040517f22ce1a0700000000000000000000000000000000000000000000000000000000815260040160405180910390fd5b6009600580018054905010611262576040517fb3ed896d00000000000000000000000000000000000000000000000000000000815260040160405180910390fd5b6032600560080154106112a1576040517f2f9f4a5300000000000000000000000000000000000000000000000000000000815260040160405180910390fd5b60076005600b015f9054906101000a900460ff1660ff1610156112f0576040517fff0b9c2600000000000000000000000000000000000000000000000000000000815260040160405180910390fd5b61012c6005600201546113039190614a35565b421061133b576040517f853996a100000000000000000000000000000000000000000000000000000000815260040160405180910390fd5b600160056006015f3373ffffffffffffffffffffffffffffffffffffffff1673ffffffffffffffffffffffffffffffffffffffff1681526020019081526020015f205f6101000a81548160ff021916908315150217905550600560070133908060018154018082558091505060019003905f5260205f20015f9091909190916101000a81548173ffffffffffffffffffffffffffffffffffffffff021916908373ffffffffffffffffffffffffffffffffffffffff16021790555060056008015f81548092919061140b90614a68565b9190505550611419336121dc565b3373ffffffffffffffffffffffffffffffffffffffff166002547fda4052de60f6327b7721a5aca5ede61d65afb7917b4e83024e3c36bb247bf11b60056003015f3373ffffffffffffffffffffffffffffffffffffffff1673ffffffffffffffffffffffffffffffffffffffff1681526020019081526020015f206040516114a1919061576c565b60405180910390a3565b6114b3611ae9565b5f60169054906101000a900460ff16156114f9576040517fab35696f00000000000000000000000000000000000000000000000000000000815260040160405180910390fd5b5f60159054906101000a900460ff161561153f576040517f91c183df00000000000000000000000000000000000000000000000000000000815260040160405180910390fd5b61012c811161157a576040517f25c3636700000000000000000000000000000000000000000000000000000000815260040160405180910390fd5b611582612291565b60025f81548092919061159490614a68565b919050555060025460055f01819055504260056001018190555080426115ba9190615785565b6005600201819055506002547fedb371157a97763aaa1b348e6811cbb8c9eb299aaf93a6f5ba91f312bcb40fcf6005600101546005600201546040516116019291906157b8565b60405180910390a260015f60156101000a81548160ff02191690831515021790555050565b5f60169054906101000a900460ff161561166c576040517fab35696f00000000000000000000000000000000000000000000000000000000815260040160405180910390fd5b5f60159054906101000a900460ff166116b1576040517f256d984000000000000000000000000000000000000000000000000000000000815260040160405180910390fd5b60056006015f3373ffffffffffffffffffffffffffffffffffffffff1673ffffffffffffffffffffffffffffffffffffffff1681526020019081526020015f205f9054906101000a900460ff16611734576040517f43050d9600000000000000000000000000000000000000000000000000000000815260040160405180910390fd5b5f60056004015f3373ffffffffffffffffffffffffffffffffffffffff1673ffffffffffffffffffffffffffffffffffffffff1681526020019081526020015f2060010154146117b0576040517fa820742e00000000000000000000000000000000000000000000000000000000815260040160405180910390fd5b5f60056003015f3373ffffffffffffffffffffffffffffffffffffffff1673ffffffffffffffffffffffffffffffffffffffff1681526020019081526020015f2060028060200260405190810160405280929190826002801561184c576020028201915f905b82829054906101000a900460ff1660ff16815260200190600101906020825f010492830192600103820291508084116118165790505b5050505050905061185c336124a8565b60056003015f3373ffffffffffffffffffffffffffffffffffffffff1673ffffffffffffffffffffffffffffffffffffffff1681526020019081526020015f205f6118a791906140bb565b3373ffffffffffffffffffffffffffffffffffffffff166002547f0b2f59ffaabdec31e4cadf25ba0d9984d4e852c62825c29bcb99461a4ba16603836040516118f091906157df565b60405180910390a350565b5f60159054906101000a900460ff1681565b611915611ae9565b5f73ffffffffffffffffffffffffffffffffffffffff168173ffffffffffffffffffffffffffffffffffffffff1603611985575f6040517f1e4fbdf700000000000000000000000000000000000000000000000000000000815260040161197c9190614607565b60405180910390fd5b61198e8161211b565b50565b611999611ae9565b6119a1611a58565b5f60035490505f81036119e0576040517f7f7d9be000000000000000000000000000000000000000000000000000000000815260040160405180910390fd5b5f6003819055506119f86119f2610fc2565b82611b70565b611a00610fc2565b73ffffffffffffffffffffffffffffffffffffffff167f19f7a31ae4185f3274e252a5a78ec36ba85c01300bc8a800d41d79be74662a8e82604051611a45919061434d565b60405180910390a250611a56611acf565b565b611a606126a5565b6002611a72611a6d6126e6565b61270f565b5f0181905550565b611a88848484846001612718565b611ac957836040517f5274afe7000000000000000000000000000000000000000000000000000000008152600401611ac09190614607565b60405180910390fd5b50505050565b6001611ae1611adc6126e6565b61270f565b5f0181905550565b611af1612789565b73ffffffffffffffffffffffffffffffffffffffff16611b0f610fc2565b73ffffffffffffffffffffffffffffffffffffffff1614611b6e57611b32612789565b6040517f118cdaa7000000000000000000000000000000000000000000000000000000008152600401611b659190614607565b60405180910390fd5b565b5f60149054906101000a900460ff1615611c29575f8273ffffffffffffffffffffffffffffffffffffffff1682604051611ba990615825565b5f6040518083038185875af1925050503d805f8114611be3576040519150601f19603f3d011682016040523d82523d5f602084013e611be8565b606091505b5050905080611c23576040517f90b8ec1800000000000000000000000000000000000000000000000000000000815260040160405180910390fd5b50611c76565b611c75828260015f9054906101000a900473ffffffffffffffffffffffffffffffffffffffff1673ffffffffffffffffffffffffffffffffffffffff166127909092919063ffffffff16565b5b5050565b611c826140c1565b5f5f90505b60058160ff161015611ccf57611c9b6127e3565b828260ff1660058110611cb157611cb061471a565b5b602002019060ff16908160ff16815250508080600101915050611c87565b50806005600c01906005611ce49291906140e3565b506002547f8c37d66c1438d0136c01897f708325c15c0745298af95fe439f7d416ef1f9cfe82604051611d179190615899565b60405180910390a250565b5f600580018054905090506002811015611d68576040517ff770074300000000000000000000000000000000000000000000000000000000815260040160405180910390fd5b5f5f611d726129cf565b91509150816005600d0181905550611d8981612afc565b5f5f90505f5f90505f5f90505b85811015612083575f600580018281548110611db557611db461471a565b5b905f5260205f20015f9054906101000a900473ffffffffffffffffffffffffffffffffffffffff1690505f5f611ef060056004015f8573ffffffffffffffffffffffffffffffffffffffff1673ffffffffffffffffffffffffffffffffffffffff1681526020019081526020015f205f01600280602002604051908101604052809291908260028015611e81576020028201915f905b82829054906101000a900460ff1660ff16815260200190600101906020825f01049283019260010382029150808411611e4b5790505b50505050506005600c01600580602002604051908101604052809291908260058015611ee6576020028201915f905b82829054906101000a900460ff1660ff16815260200190600101906020825f01049283019260010382029150808411611eb05790505b5050505050612bce565b91509150856008811115611f0757611f066158b2565b5b826008811115611f1a57611f196158b2565b5b1180611f545750856008811115611f3457611f336158b2565b5b826008811115611f4757611f466158b2565b5b148015611f5357508481115b5b15611fd7578195508094506005600e015f611f6f919061417a565b6005600e0183908060018154018082558091505060019003905f5260205f20015f9091909190916101000a81548173ffffffffffffffffffffffffffffffffffffffff021916908373ffffffffffffffffffffffffffffffffffffffff160217905550612073565b856008811115611fea57611fe96158b2565b5b826008811115611ffd57611ffc6158b2565b5b14801561200957508481145b15612072576005600e0183908060018154018082558091505060019003905f5260205f20015f9091909190916101000a81548173ffffffffffffffffffffffffffffffffffffffff021916908373ffffffffffffffffffffffffffffffffffffffff1602179055505b5b5050508080600101915050611d96565b506121146005600e0180548060200260200160405190810160405280929190818152602001828054801561210957602002820191905f5260205f20905b815f9054906101000a900473ffffffffffffffffffffffffffffffffffffffff1673ffffffffffffffffffffffffffffffffffffffff16815260200190600101908083116120c0575b505050505085612be5565b5050505050565b5f5f5f9054906101000a900473ffffffffffffffffffffffffffffffffffffffff169050815f5f6101000a81548173ffffffffffffffffffffffffffffffffffffffff021916908373ffffffffffffffffffffffffffffffffffffffff1602179055508173ffffffffffffffffffffffffffffffffffffffff168173ffffffffffffffffffffffffffffffffffffffff167f8be0079c531659141344cd1fd0a4f28419497f9722a3daafe3b4186f6b6457e060405160405180910390a35050565b6121e4614099565b6121ec6127e3565b815f600281106121ff576121fe61471a565b5b602002019060ff16908160ff16815250506122186127e3565b8160016002811061222c5761222b61471a565b5b602002019060ff16908160ff16815250508060056003015f8473ffffffffffffffffffffffffffffffffffffffff1673ffffffffffffffffffffffffffffffffffffffff1681526020019081526020015f2090600261228c929190614198565b505050565b5f5f90505b6005600701805490508110156123e8575f600560070182815481106122be576122bd61471a565b5b905f5260205f20015f9054906101000a900473ffffffffffffffffffffffffffffffffffffffff16905060056003015f8273ffffffffffffffffffffffffffffffffffffffff1673ffffffffffffffffffffffffffffffffffffffff1681526020019081526020015f205f61233391906140bb565b60056004015f8273ffffffffffffffffffffffffffffffffffffffff1673ffffffffffffffffffffffffffffffffffffffff1681526020019081526020015f205f5f82015f61238291906140bb565b600182015f9055505060056006015f8273ffffffffffffffffffffffffffffffffffffffff1673ffffffffffffffffffffffffffffffffffffffff1681526020019081526020015f205f6101000a81549060ff0219169055508080600101915050612296565b5060056007015f6123f9919061417a565b600580015f612408919061417a565b6005600e015f612418919061417a565b5f60056008018190555060346005600b015f6101000a81548160ff021916908360ff1602179055505f6005600d01819055505f5f90505b603460ff168160ff1610156124a5575f60056009018260ff16603481106124795761247861471a565b5b602091828204019190066101000a81548160ff021916908315150217905550808060010191505061244f565b50565b5f60056003015f8373ffffffffffffffffffffffffffffffffffffffff1673ffffffffffffffffffffffffffffffffffffffff1681526020019081526020015f20600280602002604051908101604052809291908260028015612544576020028201915f905b82829054906101000a900460ff1660ff16815260200190600101906020825f0104928301926001038202915080841161250e5790505b505050505090505f815f6002811061255f5761255e61471a565b5b602002015160ff1614801561258e57505f816001600281106125845761258361471a565b5b602002015160ff16145b156125c5576040517faab7da5100000000000000000000000000000000000000000000000000000000815260040160405180910390fd5b5f6005600901825f600281106125de576125dd61471a565b5b602002015160ff16603481106125f7576125f661471a565b5b602091828204019190066101000a81548160ff0219169083151502179055505f6005600901826001600281106126305761262f61471a565b5b602002015160ff16603481106126495761264861471a565b5b602091828204019190066101000a81548160ff02191690831515021790555060026005600b015f8282829054906101000a900460ff1661268991906158df565b92506101000a81548160ff021916908360ff1602179055505050565b6126ad612d09565b156126e4576040517f3ee5aeb500000000000000000000000000000000000000000000000000000000815260040160405180910390fd5b565b5f7f9b779b17422d0df92223018b32b4d1fa46e071723d6817e2486d003becc55f005f1b905090565b5f819050919050565b5f5f6323b872dd60e01b9050604051815f525f1960601c87166004525f1960601c86166024528460445260205f60645f5f8c5af1925060015f5114831661277657838315161561276a573d5f823e3d81fd5b5f883b113d1516831692505b806040525f606052505095945050505050565b5f33905090565b61279d8383836001612d25565b6127de57826040517f5274afe70000000000000000000000000000000000000000000000000000000081526004016127d59190614607565b60405180910390fd5b505050565b5f5f6005600b015f9054906101000a900460ff1660ff1603612831576040517fb5ea5abf00000000000000000000000000000000000000000000000000000000815260040160405180910390fd5b5f42443360045f81548092919061284790614a68565b9190505560405160200161285e9493929190615978565b604051602081830303815290604052805190602001205f1c90505f5f90505b603460ff16811015612991575f603460ff168361289a91906159f2565b905060056009018160ff16603481106128b6576128b561471a565b5b602091828204019190069054906101000a900460ff1661295057600160056009018260ff16603481106128ec576128eb61471a565b5b602091828204019190066101000a81548160ff0219169083151502179055506005600b015f81819054906101000a900460ff168092919061292c90615a22565b91906101000a81548160ff021916908360ff160217905550508093505050506129cc565b8282604051602001612963929190615a49565b604051602081830303815290604052805190602001205f1c9250818061298890614a68565b9250505061287d565b6040517f08c379a00000000000000000000000000000000000000000000000000000000081526004016129c390615ace565b60405180910390fd5b90565b5f5f5f600580018054905090505f8103612a15576040517fdff55bfb00000000000000000000000000000000000000000000000000000000815260040160405180910390fd5b7fffffffffffffffffffffffffffffffffffffffffffffffffffffffffffffffff91505f5f90505b81811015612ae8575f600580018281548110612a5c57612a5b61471a565b5b905f5260205f20015f9054906101000a900473ffffffffffffffffffffffffffffffffffffffff1690505f60056004015f8373ffffffffffffffffffffffffffffffffffffffff1673ffffffffffffffffffffffffffffffffffffffff1681526020019081526020015f2060010154905084811015612ad9578094505b50508080600101915050612a3d565b508082612af59190615aec565b9250509091565b5f5f90505b6005800180549050811015612bca575f600580018281548110612b2757612b2661471a565b5b905f5260205f20015f9054906101000a900473ffffffffffffffffffffffffffffffffffffffff1690505f60056004015f8373ffffffffffffffffffffffffffffffffffffffff1673ffffffffffffffffffffffffffffffffffffffff1681526020019081526020015f2060010154905083811115612bbb575f8482612bad9190614a35565b9050612bb98382611b70565b505b50508080600101915050612b01565b5050565b5f5f612bda8484612d87565b915091509250929050565b5f825103612c1f576040517f3728feb300000000000000000000000000000000000000000000000000000000815260040160405180910390fd5b5f6064600183612c2f9190615aec565b612c399190615b2d565b90505f8183612c489190614a35565b90505f845182612c589190615b2d565b90508260035f828254612c6b9190615785565b92505081905550826005600f01819055505f5f90505b8551811015612cbb57612cae868281518110612ca057612c9f61471a565b5b602002602001015183611b70565b8080600101915050612c81565b505f612cc5612ff6565b90506002547f6078529d9020f865ca5321b152951664d06fe9f9ee87e29547bdb9994473da3a82604051612cf991906149e8565b60405180910390a2505050505050565b5f6002612d1c612d176126e6565b61270f565b5f015414905090565b5f5f63a9059cbb60e01b9050604051815f525f1960601c86166004528460245260205f60445f5f8b5af1925060015f51148316612d79578383151615612d6d573d5f823e3d81fd5b5f873b113d1516831692505b806040525050949350505050565b5f5f612d9161422f565b845f60028110612da457612da361471a565b5b6020020151815f60078110612dbc57612dbb61471a565b5b602002019060ff16908160ff168152505084600160028110612de157612de061471a565b5b602002015181600160078110612dfa57612df961471a565b5b602002019060ff16908160ff16815250505f5f90505b60058160ff161015612e7757848160ff1660058110612e3257612e3161471a565b5b602002015182600283612e4591906158df565b60ff1660078110612e5957612e5861471a565b5b602002019060ff16908160ff16815250508080600101915050612e10565b505f5f90505f5f90505f5f90505b60078160ff161015612fe5575f600182612e9f91906158df565b90505b60078160ff161015612fd757612eb66140c1565b5f5f90505f5f90505b60078160ff161015612f4a578460ff168160ff1614158015612ee757508360ff168160ff1614155b15612f3d57878160ff1660078110612f0257612f0161471a565b5b6020020151838360ff1660058110612f1d57612f1c61471a565b5b602002019060ff16908160ff16815250508180612f3990615b5d565b9250505b8080600101915050612ebf565b505f5f612f568461331d565b91509150876008811115612f6d57612f6c6158b2565b5b826008811115612f8057612f7f6158b2565b5b1180612fba5750876008811115612f9a57612f996158b2565b5b826008811115612fad57612fac6158b2565b5b148015612fb957508681115b5b15612fc6578197508096505b505050508080600101915050612ea2565b508080600101915050612e85565b508181945094505050509250929050565b612ffe614251565b5f600580018054905090505f8167ffffffffffffffff81111561302457613023614747565b5b6040519080825280602002602001820160405280156130525781602001602082028036833780820191505090505b5090505f5f90505b8281101561310f5760056004015f60058001838154811061307e5761307d61471a565b5b905f5260205f20015f9054906101000a900473ffffffffffffffffffffffffffffffffffffffff1673ffffffffffffffffffffffffffffffffffffffff1673ffffffffffffffffffffffffffffffffffffffff1681526020019081526020015f20600101548282815181106130f6576130f561471a565b5b602002602001018181525050808060010191505061305a565b505f5f90505f6005600e01805490501115613155575f6005600f01546005600d015461313b9190614a35565b90506005600e0180549050816131519190615b2d565b9150505b6040518061012001604052806002548152602001600560010154815260200160056002015481526020016005800180548060200260200160405190810160405280929190818152602001828054801561320057602002820191905f5260205f20905b815f9054906101000a900473ffffffffffffffffffffffffffffffffffffffff1673ffffffffffffffffffffffffffffffffffffffff16815260200190600101908083116131b7575b505050505081526020018381526020016005600c01600580602002604051908101604052809291908260058015613270576020028201915f905b82829054906101000a900460ff1660ff16815260200190600101906020825f0104928301926001038202915080841161323a5790505b505050505081526020016005600e018054806020026020016040519081016040528092919081815260200182805480156132fc57602002820191905f5260205f20905b815f9054906101000a900473ffffffffffffffffffffffffffffffffffffffff1673ffffffffffffffffffffffffffffffffffffffff16815260200190600101908083116132b3575b505050505081526020018281526020016005600f0154815250935050505090565b5f5f6133276140c1565b61332f6140c1565b5f5f90505b60058160ff1610156133e157613363868260ff16600581106133595761335861471a565b5b6020020151613c68565b838260ff16600581106133795761337861471a565b5b602002019060ff16908160ff16815250506133ad868260ff16600581106133a3576133a261471a565b5b6020020151613ccf565b828260ff16600581106133c3576133c261471a565b5b602002019060ff16908160ff16815250508080600101915050613334565b506133eb82613d2a565b5f81600160058110613400576133ff61471a565b5b602002015160ff16825f6005811061341b5761341a61471a565b5b602002015160ff1614801561346557508160026005811061343f5761343e61471a565b5b602002015160ff168260016005811061345b5761345a61471a565b5b602002015160ff16145b80156134a65750816003600581106134805761347f61471a565b5b602002015160ff168260026005811061349c5761349b61471a565b5b602002015160ff16145b80156134e75750816004600581106134c1576134c061471a565b5b602002015160ff16826003600581106134dd576134dc61471a565b5b602002015160ff16145b90505f6134f384613e43565b90506134fd61429e565b5f5f90505b60058160ff1610156135675781868260ff16600581106135255761352461471a565b5b602002015160ff16600f811061353e5761353d61471a565b5b60200201805180919061355090615b5d565b60ff1660ff16815250508080600101915050613502565b505f5f90505f5f90505f5f90505f5f90505f5f90505f600e90505b60028160ff1610613653576004878260ff16600f81106135a5576135a461471a565b5b602002015160ff16036135b6578095505b6003878260ff16600f81106135ce576135cd61471a565b5b602002015160ff16036135df578094505b6002878260ff16600f81106135f7576135f661471a565b5b602002015160ff1603613634575f8360ff160361361657809250613625565b5f8260ff1603613624578091505b5b838061363090615b5d565b9450505b60028160ff16031561365357808061364b90615a22565b915050613582565b5086801561365e5750875b156136a35760086402540be4008b5f6005811061367e5761367d61471a565b5b602002015160ff166136909190615aec565b9b509b5050505050505050505050613c63565b5f8560ff16111561374e575f5f90505f5f90505b60058160ff161015613715578660ff168c8260ff16600581106136dd576136dc61471a565b5b602002015160ff1614613708578b8160ff1660058110613700576136ff61471a565b5b602002015191505b80806001019150506136b7565b5060078160ff166402540be4008860ff166137309190615aec565b61373a9190615785565b9c509c505050505050505050505050613c63565b5f8460ff1611801561376257505f8360ff16115b1561379e5760068260ff166402540be4008660ff166137819190615aec565b61378b9190615785565b9b509b5050505050505050505050613c63565b87156138a65760058a6004600581106137ba576137b961471a565b5b602002015160ff166127108c6003600581106137d9576137d861471a565b5b602002015160ff166137eb9190615aec565b620f42408d6002600581106138035761380261471a565b5b602002015160ff166138159190615aec565b6305f5e1008e60016005811061382e5761382d61471a565b5b602002015160ff166138409190615aec565b6402540be4008f5f600581106138595761385861471a565b5b602002015160ff1661386b9190615aec565b6138759190615785565b61387f9190615785565b6138899190615785565b6138939190615785565b9b509b5050505050505050505050613c63565b86156138ec5760046402540be4008b5f600581106138c7576138c661471a565b5b602002015160ff166138d99190615aec565b9b509b5050505050505050505050613c63565b5f8460ff1611156139ae575f5f90505f5f90505b60058160ff161015613978578560ff168c8260ff16600581106139265761392561471a565b5b602002015160ff161461396b578b8160ff16600581106139495761394861471a565b5b602002015160ff1660648361395e9190615aec565b6139689190615785565b91505b8080600101915050613900565b506003816402540be4008760ff166139909190615aec565b61399a9190615785565b9c509c505050505050505050505050613c63565b60028360ff1603613aa4575f5f90505f5f90505b60058160ff161015613a4e578360ff168c8260ff16600581106139e8576139e761471a565b5b602002015160ff1614158015613a1e57508260ff168c8260ff1660058110613a1357613a1261471a565b5b602002015160ff1614155b15613a41578b8160ff1660058110613a3957613a3861471a565b5b602002015191505b80806001019150506139c2565b5060028160ff166305f5e1008460ff16613a689190615aec565b6402540be4008660ff16613a7c9190615aec565b613a869190615785565b613a909190615785565b9c509c505050505050505050505050613c63565b60018360ff1603613b66575f5f90505f5f90505b60058160ff161015613b30578360ff168c8260ff1660058110613ade57613add61471a565b5b602002015160ff1614613b23578b8160ff1660058110613b0157613b0061471a565b5b602002015160ff16606483613b169190615aec565b613b209190615785565b91505b8080600101915050613ab8565b506001816402540be4008560ff16613b489190615aec565b613b529190615785565b9c509c505050505050505050505050613c63565b5f8a600460058110613b7b57613b7a61471a565b5b602002015160ff166127108c600360058110613b9a57613b9961471a565b5b602002015160ff16613bac9190615aec565b620f42408d600260058110613bc457613bc361471a565b5b602002015160ff16613bd69190615aec565b6305f5e1008e600160058110613bef57613bee61471a565b5b602002015160ff16613c019190615aec565b6402540be4008f5f60058110613c1a57613c1961471a565b5b602002015160ff16613c2c9190615aec565b613c369190615785565b613c409190615785565b613c4a9190615785565b613c549190615785565b9b509b50505050505050505050505b915091565b5f60348260ff1610613caf576040517f08c379a0000000000000000000000000000000000000000000000000000000008152600401613ca690615bcf565b60405180910390fd5b6002600d83613cbe9190615bed565b613cc891906158df565b9050919050565b5f60348260ff1610613d16576040517f08c379a0000000000000000000000000000000000000000000000000000000008152600401613d0d90615bcf565b60405180910390fd5b600d82613d239190615c1d565b9050919050565b5f5f90505b60058160ff161015613e3f575f600182613d4991906158df565b90505b60058160ff161015613e3157828260ff1660058110613d6e57613d6d61471a565b5b602002015160ff16838260ff1660058110613d8c57613d8b61471a565b5b602002015160ff161115613e24575f838360ff1660058110613db157613db061471a565b5b60200201519050838260ff1660058110613dce57613dcd61471a565b5b6020020151848460ff1660058110613de957613de861471a565b5b602002019060ff16908160ff168152505080848360ff1660058110613e1157613e1061471a565b5b602002019060ff16908160ff1681525050505b8080600101915050613d4c565b508080600101915050613d2f565b5050565b5f600182600160058110613e5a57613e5961471a565b5b6020020151613e6991906158df565b60ff16825f60058110613e7f57613e7e61471a565b5b602002015160ff16148015613ed55750600182600260058110613ea557613ea461471a565b5b6020020151613eb491906158df565b60ff1682600160058110613ecb57613eca61471a565b5b602002015160ff16145b8015613f225750600182600360058110613ef257613ef161471a565b5b6020020151613f0191906158df565b60ff1682600260058110613f1857613f1761471a565b5b602002015160ff16145b8015613f6f5750600182600460058110613f3f57613f3e61471a565b5b6020020151613f4e91906158df565b60ff1682600360058110613f6557613f6461471a565b5b602002015160ff16145b15613f7d5760019050614049565b600e825f60058110613f9257613f9161471a565b5b602002015160ff16148015613fc25750600582600160058110613fb857613fb761471a565b5b602002015160ff16145b8015613fe95750600482600260058110613fdf57613fde61471a565b5b602002015160ff16145b801561401057506003826003600581106140065761400561471a565b5b602002015160ff16145b8015614037575060028260046005811061402d5761402c61471a565b5b602002015160ff16145b156140455760019050614049565b5f90505b919050565b826002601f016020900481019282156140885791601f016020900482015b8281111561408757825482559160010191906001019061406c565b5b50905061409591906142c1565b5090565b6040518060400160405280600290602082028036833780820191505090505090565b505f9055565b6040518060a00160405280600590602082028036833780820191505090505090565b826005601f01602090048101928215614169579160200282015f5b8382111561413b57835183826101000a81548160ff021916908360ff16021790555092602001926001016020815f010492830192600103026140fe565b80156141675782816101000a81549060ff02191690556001016020815f0104928301926001030261413b565b505b50905061417691906142c1565b5090565b5080545f8255905f5260205f209081019061419591906142c1565b50565b826002601f0160209004810192821561421e579160200282015f5b838211156141f057835183826101000a81548160ff021916908360ff16021790555092602001926001016020815f010492830192600103026141b3565b801561421c5782816101000a81549060ff02191690556001016020815f010492830192600103026141f0565b505b50905061422b91906142c1565b5090565b6040518060e00160405280600790602082028036833780820191505090505090565b6040518061012001604052805f81526020015f81526020015f815260200160608152602001606081526020016142856140c1565b8152602001606081526020015f81526020015f81525090565b604051806101e00160405280600f90602082028036833780820191505090505090565b5b808211156142d8575f815f9055506001016142c2565b5090565b5f5ffd5b5f819050919050565b6142f2816142e0565b81146142fc575f5ffd5b50565b5f8135905061430d816142e9565b92915050565b5f60208284031215614328576143276142dc565b5b5f614335848285016142ff565b91505092915050565b614347816142e0565b82525050565b5f6020820190506143605f83018461433e565b92915050565b5f60ff82169050919050565b61437b81614366565b82525050565b5f6020820190506143945f830184614372565b92915050565b5f81519050919050565b5f82825260208201905092915050565b5f819050602082019050919050565b5f73ffffffffffffffffffffffffffffffffffffffff82169050919050565b5f6143ec826143c3565b9050919050565b6143fc816143e2565b82525050565b5f61440d83836143f3565b60208301905092915050565b5f602082019050919050565b5f61442f8261439a565b61443981856143a4565b9350614444836143b4565b805f5b8381101561447457815161445b8882614402565b975061446683614419565b925050600181019050614447565b5085935050505092915050565b5f6020820190508181035f8301526144998184614425565b905092915050565b6144aa816143e2565b81146144b4575f5ffd5b50565b5f813590506144c5816144a1565b92915050565b5f602082840312156144e0576144df6142dc565b5b5f6144ed848285016144b7565b91505092915050565b5f8115159050919050565b61450a816144f6565b82525050565b5f60029050919050565b5f81905092915050565b5f819050919050565b61453681614366565b82525050565b5f614547838361452d565b60208301905092915050565b5f602082019050919050565b61456881614510565b614572818461451a565b925061457d82614524565b805f5b838110156145ad578151614594878261453c565b965061459f83614553565b925050600181019050614580565b505050505050565b5f60a0820190506145c85f830187614501565b6145d56020830186614501565b6145e2604083018561433e565b6145ef606083018461455f565b95945050505050565b614601816143e2565b82525050565b5f60208201905061461a5f8301846145f8565b92915050565b5f6020820190506146335f830184614501565b92915050565b5f60e08201905061464c5f83018a61433e565b614659602083018961433e565b614666604083018861433e565b614673606083018761433e565b614680608083018661433e565b61468d60a083018561433e565b61469a60c0830184614501565b98975050505050505050565b5f819050919050565b5f6146c96146c46146bf846143c3565b6146a6565b6143c3565b9050919050565b5f6146da826146af565b9050919050565b5f6146eb826146d0565b9050919050565b6146fb816146e1565b82525050565b5f6020820190506147145f8301846146f2565b92915050565b7f4e487b71000000000000000000000000000000000000000000000000000000005f52603260045260245ffd5b7f4e487b71000000000000000000000000000000000000000000000000000000005f52604160045260245ffd5b61477d816142e0565b82525050565b5f82825260208201905092915050565b5f61479d8261439a565b6147a78185614783565b93506147b2836143b4565b805f5b838110156147e25781516147c98882614402565b97506147d483614419565b9250506001810190506147b5565b5085935050505092915050565b5f81519050919050565b5f82825260208201905092915050565b5f819050602082019050919050565b5f6148238383614774565b60208301905092915050565b5f602082019050919050565b5f614845826147ef565b61484f81856147f9565b935061485a83614809565b805f5b8381101561488a5781516148718882614818565b975061487c8361482f565b92505060018101905061485d565b5085935050505092915050565b5f60059050919050565b5f81905092915050565b5f819050919050565b5f602082019050919050565b6148c981614897565b6148d381846148a1565b92506148de826148ab565b805f5b8381101561490e5781516148f5878261453c565b9650614900836148b4565b9250506001810190506148e1565b505050505050565b5f6101a083015f83015161492c5f860182614774565b50602083015161493f6020860182614774565b5060408301516149526040860182614774565b506060830151848203606086015261496a8282614793565b91505060808301518482036080860152614984828261483b565b91505060a083015161499960a08601826148c0565b5060c08301518482036101408601526149b28282614793565b91505060e08301516149c8610160860182614774565b506101008301516149dd610180860182614774565b508091505092915050565b5f6020820190508181035f830152614a008184614916565b905092915050565b7f4e487b71000000000000000000000000000000000000000000000000000000005f52601160045260245ffd5b5f614a3f826142e0565b9150614a4a836142e0565b9250828203905081811115614a6257614a61614a08565b5b92915050565b5f614a72826142e0565b91507fffffffffffffffffffffffffffffffffffffffffffffffffffffffffffffffff8203614aa457614aa3614a08565b5b600182019050919050565b5f60029050919050565b5f819050919050565b5f815f1c9050919050565b5f60ff82169050919050565b5f614aeb614ae683614ac2565b614acd565b9050919050565b5f8160081c9050919050565b5f614b10614b0b83614af2565b614acd565b9050919050565b5f8160101c9050919050565b5f614b35614b3083614b17565b614acd565b9050919050565b5f8160181c9050919050565b5f614b5a614b5583614b3c565b614acd565b9050919050565b5f8160201c9050919050565b5f614b7f614b7a83614b61565b614acd565b9050919050565b5f8160281c9050919050565b5f614ba4614b9f83614b86565b614acd565b9050919050565b5f8160301c9050919050565b5f614bc9614bc483614bab565b614acd565b9050919050565b5f8160381c9050919050565b5f614bee614be983614bd0565b614acd565b9050919050565b5f8160401c9050919050565b5f614c13614c0e83614bf5565b614acd565b9050919050565b5f8160481c9050919050565b5f614c38614c3383614c1a565b614acd565b9050919050565b5f8160501c9050919050565b5f614c5d614c5883614c3f565b614acd565b9050919050565b5f8160581c9050919050565b5f614c82614c7d83614c64565b614acd565b9050919050565b5f8160601c9050919050565b5f614ca7614ca283614c89565b614acd565b9050919050565b5f8160681c9050919050565b5f614ccc614cc783614cae565b614acd565b9050919050565b5f8160701c9050919050565b5f614cf1614cec83614cd3565b614acd565b9050919050565b5f8160781c9050919050565b5f614d16614d1183614cf8565b614acd565b9050919050565b5f8160801c9050919050565b5f614d3b614d3683614d1d565b614acd565b9050919050565b5f8160881c9050919050565b5f614d60614d5b83614d42565b614acd565b9050919050565b5f8160901c9050919050565b5f614d85614d8083614d67565b614acd565b9050919050565b5f8160981c9050919050565b5f614daa614da583614d8c565b614acd565b9050919050565b5f8160a01c9050919050565b5f614dcf614dca83614db1565b614acd565b9050919050565b5f8160a81c9050919050565b5f614df4614def83614dd6565b614acd565b9050919050565b5f8160b01c9050919050565b5f614e19614e1483614dfb565b614acd565b9050919050565b5f8160b81c9050919050565b5f614e3e614e3983614e20565b614acd565b9050919050565b5f8160c01c9050919050565b5f614e63614e5e83614e45565b614acd565b9050919050565b5f8160c81c9050919050565b5f614e88614e8383614e6a565b614acd565b9050919050565b5f8160d01c9050919050565b5f614ead614ea883614e8f565b614acd565b9050919050565b5f8160d81c9050919050565b5f614ed2614ecd83614eb4565b614acd565b9050919050565b5f8160e01c9050919050565b5f614ef7614ef283614ed9565b614acd565b9050919050565b5f8160e81c9050919050565b5f614f1c614f1783614efe565b614acd565b9050919050565b5f8160f01c9050919050565b5f614f41614f3c83614f23565b614acd565b9050919050565b5f8160f81c9050919050565b5f614f66614f6183614f48565b614acd565b9050919050565b614f7681614aaf565b614f80818461451a565b925082614f8c83614ab9565b5f5f156152b7575b836001602003820110156152b6578154614fb687614fb183614ad9565b61452d565b602087019650614fce87614fc983614afe565b61452d565b602087019650614fe687614fe183614b23565b61452d565b602087019650614ffe87614ff983614b48565b61452d565b6020870196506150168761501183614b6d565b61452d565b60208701965061502e8761502983614b92565b61452d565b6020870196506150468761504183614bb7565b61452d565b60208701965061505e8761505983614bdc565b61452d565b6020870196506150768761507183614c01565b61452d565b60208701965061508e8761508983614c26565b61452d565b6020870196506150a6876150a183614c4b565b61452d565b6020870196506150be876150b983614c70565b61452d565b6020870196506150d6876150d183614c95565b61452d565b6020870196506150ee876150e983614cba565b61452d565b6020870196506151068761510183614cdf565b61452d565b60208701965061511e8761511983614d04565b61452d565b6020870196506151368761513183614d29565b61452d565b60208701965061514e8761514983614d4e565b61452d565b6020870196506151668761516183614d73565b61452d565b60208701965061517e8761517983614d98565b61452d565b6020870196506151968761519183614dbd565b61452d565b6020870196506151ae876151a983614de2565b61452d565b6020870196506151c6876151c183614e07565b61452d565b6020870196506151de876151d983614e2c565b61452d565b6020870196506151f6876151f183614e51565b61452d565b60208701965061520e8761520983614e76565b61452d565b6020870196506152268761522183614e9b565b61452d565b60208701965061523e8761523983614ec0565b61452d565b6020870196506152568761525183614ee5565b61452d565b60208701965061526e8761526983614f0a565b61452d565b6020870196506152868761528183614f2f565b61452d565b60208701965061529e8761529983614f54565b61452d565b60208701965060018301925050602081019050614f94565b5b6001156157645781546001156152e6576152d9876152d483614ad9565b61452d565b6020870196506001820191505b60011561530c576152ff876152fa83614afe565b61452d565b6020870196506001820191505b5f15615331576153248761531f83614b23565b61452d565b6020870196506001820191505b5f15615356576153498761534483614b48565b61452d565b6020870196506001820191505b5f1561537b5761536e8761536983614b6d565b61452d565b6020870196506001820191505b5f156153a0576153938761538e83614b92565b61452d565b6020870196506001820191505b5f156153c5576153b8876153b383614bb7565b61452d565b6020870196506001820191505b5f156153ea576153dd876153d883614bdc565b61452d565b6020870196506001820191505b5f1561540f57615402876153fd83614c01565b61452d565b6020870196506001820191505b5f15615434576154278761542283614c26565b61452d565b6020870196506001820191505b5f156154595761544c8761544783614c4b565b61452d565b6020870196506001820191505b5f1561547e576154718761546c83614c70565b61452d565b6020870196506001820191505b5f156154a3576154968761549183614c95565b61452d565b6020870196506001820191505b5f156154c8576154bb876154b683614cba565b61452d565b6020870196506001820191505b5f156154ed576154e0876154db83614cdf565b61452d565b6020870196506001820191505b5f15615512576155058761550083614d04565b61452d565b6020870196506001820191505b5f156155375761552a8761552583614d29565b61452d565b6020870196506001820191505b5f1561555c5761554f8761554a83614d4e565b61452d565b6020870196506001820191505b5f15615581576155748761556f83614d73565b61452d565b6020870196506001820191505b5f156155a6576155998761559483614d98565b61452d565b6020870196506001820191505b5f156155cb576155be876155b983614dbd565b61452d565b6020870196506001820191505b5f156155f0576155e3876155de83614de2565b61452d565b6020870196506001820191505b5f15615615576156088761560383614e07565b61452d565b6020870196506001820191505b5f1561563a5761562d8761562883614e2c565b61452d565b6020870196506001820191505b5f1561565f576156528761564d83614e51565b61452d565b6020870196506001820191505b5f15615684576156778761567283614e76565b61452d565b6020870196506001820191505b5f156156a95761569c8761569783614e9b565b61452d565b6020870196506001820191505b5f156156ce576156c1876156bc83614ec0565b61452d565b6020870196506001820191505b5f156156f3576156e6876156e183614ee5565b61452d565b6020870196506001820191505b5f156157185761570b8761570683614f0a565b61452d565b6020870196506001820191505b5f1561573d576157308761572b83614f2f565b61452d565b6020870196506001820191505b5f15615762576157558761575083614f54565b61452d565b6020870196506001820191505b505b505050505050565b5f60408201905061577f5f830184614f6d565b92915050565b5f61578f826142e0565b915061579a836142e0565b92508282019050808211156157b2576157b1614a08565b5b92915050565b5f6040820190506157cb5f83018561433e565b6157d8602083018461433e565b9392505050565b5f6040820190506157f25f83018461455f565b92915050565b5f81905092915050565b50565b5f6158105f836157f8565b915061581b82615802565b5f82019050919050565b5f61582f82615805565b9150819050919050565b5f81905092915050565b61584c81614897565b6158568184615839565b9250615861826148ab565b805f5b83811015615891578151615878878261453c565b9650615883836148b4565b925050600181019050615864565b505050505050565b5f60a0820190506158ac5f830184615843565b92915050565b7f4e487b71000000000000000000000000000000000000000000000000000000005f52602160045260245ffd5b5f6158e982614366565b91506158f483614366565b9250828201905060ff81111561590d5761590c614a08565b5b92915050565b5f819050919050565b61592d615928826142e0565b615913565b82525050565b5f8160601b9050919050565b5f61594982615933565b9050919050565b5f61595a8261593f565b9050919050565b61597261596d826143e2565b615950565b82525050565b5f615983828761591c565b602082019150615993828661591c565b6020820191506159a38285615961565b6014820191506159b3828461591c565b60208201915081905095945050505050565b7f4e487b71000000000000000000000000000000000000000000000000000000005f52601260045260245ffd5b5f6159fc826142e0565b9150615a07836142e0565b925082615a1757615a166159c5565b5b828206905092915050565b5f615a2c82614366565b91505f8203615a3e57615a3d614a08565b5b600182039050919050565b5f615a54828561591c565b602082019150615a64828461591c565b6020820191508190509392505050565b5f82825260208201905092915050565b7f4661696c656420746f2066696e6420617661696c61626c6520636172640000005f82015250565b5f615ab8601d83615a74565b9150615ac382615a84565b602082019050919050565b5f6020820190508181035f830152615ae581615aac565b9050919050565b5f615af6826142e0565b9150615b01836142e0565b9250828202615b0f816142e0565b91508282048414831517615b2657615b25614a08565b5b5092915050565b5f615b37826142e0565b9150615b42836142e0565b925082615b5257615b516159c5565b5b828204905092915050565b5f615b6782614366565b915060ff8203615b7a57615b79614a08565b5b600182019050919050565b7f496e76616c6964206361726420696e64657800000000000000000000000000005f82015250565b5f615bb9601283615a74565b9150615bc482615b85565b602082019050919050565b5f6020820190508181035f830152615be681615bad565b9050919050565b5f615bf782614366565b9150615c0283614366565b925082615c1257615c116159c5565b5b828206905092915050565b5f615c2782614366565b9150615c3283614366565b925082615c4257615c416159c5565b5b82820490509291505056fea26469706673582212204590069067bd60eedf9f83062bb27e47aa6bd62ec6943701a18eeb866ec7a4a164736f6c634300081c0033",
  "linkReferences": {},
  "deployedLinkReferences": {},
  "immutableReferences": {},
  "inputSourceName": "project/contracts/SimpleTexasHoldem.sol",
  "buildInfoId": "solc-0_8_28-ef96474ca5e1ca0df7910b1d3876b3c46f5ccd94"
}