{
  "_format": "hh3-artifact-1",
  "contractName": "SimpleTexasHoldem",
  "sourceName": "contracts/SimpleTexasHoldem.sol",
  "abi": [
    {
      "inputs": [
        {
          "internalType": "address",
          "name": "_gameToken",
          "type": "address"
        }
      ],
      "stateMutability": "nonpayable",
      "type": "constructor"
    },
    {
      "inputs": [],
      "name": "AlreadyBet",
      "type": "error"
    },
    {
      "inputs": [],
      "name": "AlreadyParticipated",
      "type": "error"
    },
    {
      "inputs": [],
      "name": "ContractPaused",
      "type": "error"
    },
    {
      "inputs": [],
      "name": "GameAlreadyActive",
      "type": "error"
    },
    {
      "inputs": [],
      "name": "GameFull",
      "type": "error"
    },
    {
      "inputs": [],
      "name": "MaxAttemptsReached",
      "type": "error"
    },
    {
      "inputs": [],
      "name": "MustBetSome",
      "type": "error"
    },
    {
      "inputs": [],
      "name": "MustJoinFirst",
      "type": "error"
    },
    {
      "inputs": [],
      "name": "NoActiveGame",
      "type": "error"
    },
    {
      "inputs": [],
      "name": "NoCardsRemaining",
      "type": "error"
    },
    {
      "inputs": [],
      "name": "NoCardsToReturn",
      "type": "error"
    },
    {
      "inputs": [],
      "name": "NoFees",
      "type": "error"
    },
    {
      "inputs": [],
      "name": "NoPlayers",
      "type": "error"
    },
    {
      "inputs": [],
      "name": "NoWinners",
      "type": "error"
    },
    {
      "inputs": [],
      "name": "NotEnoughCards",
      "type": "error"
    },
    {
      "inputs": [],
      "name": "NotEnoughPlayers",
      "type": "error"
    },
    {
      "inputs": [],
      "name": "NotInGame",
      "type": "error"
    },
    {
      "inputs": [
        {
          "internalType": "address",
          "name": "owner",
          "type": "address"
        }
      ],
      "name": "OwnableInvalidOwner",
      "type": "error"
    },
    {
      "inputs": [
        {
          "internalType": "address",
          "name": "account",
          "type": "address"
        }
      ],
      "name": "OwnableUnauthorizedAccount",
      "type": "error"
    },
    {
      "inputs": [],
      "name": "ReentrancyGuardReentrantCall",
      "type": "error"
    },
    {
      "inputs": [
        {
          "internalType": "address",
          "name": "token",
          "type": "address"
        }
      ],
      "name": "SafeERC20FailedOperation",
      "type": "error"
    },
    {
      "inputs": [],
      "name": "TransferFailed",
      "type": "error"
    },
    {
      "anonymous": false,
      "inputs": [
        {
          "indexed": true,
          "internalType": "uint256",
          "name": "gameId",
          "type": "uint256"
        },
        {
          "indexed": false,
          "internalType": "uint8[5]",
          "name": "boardCards",
          "type": "uint8[5]"
        }
      ],
      "name": "BoardCardsDealt",
      "type": "event"
    },
    {
      "anonymous": false,
      "inputs": [
        {
          "indexed": false,
          "internalType": "bool",
          "name": "gamePaused",
          "type": "bool"
        }
      ],
      "name": "EmergencyPauseToggled",
      "type": "event"
    },
    {
      "anonymous": false,
      "inputs": [
        {
          "indexed": true,
          "internalType": "uint256",
          "name": "gameId",
          "type": "uint256"
        },
        {
          "components": [
            {
              "internalType": "uint256",
              "name": "gameId",
              "type": "uint256"
            },
            {
              "internalType": "uint256",
              "name": "startTime",
              "type": "uint256"
            },
            {
              "internalType": "uint256",
              "name": "endTime",
              "type": "uint256"
            },
            {
              "internalType": "address[]",
              "name": "players",
              "type": "address[]"
            },
            {
              "internalType": "uint256[]",
              "name": "betAmounts",
              "type": "uint256[]"
            },
            {
              "internalType": "uint8[5]",
              "name": "boardCards",
              "type": "uint8[5]"
            },
            {
              "internalType": "address[]",
              "name": "winners",
              "type": "address[]"
            },
            {
              "internalType": "uint256",
              "name": "potPerWinner",
              "type": "uint256"
            },
            {
              "internalType": "uint256",
              "name": "houseFee",
              "type": "uint256"
            }
          ],
          "indexed": false,
          "internalType": "struct TexasHoldemConstants.GameResult",
          "name": "result",
          "type": "tuple"
        }
      ],
      "name": "GameEnded",
      "type": "event"
    },
    {
      "anonymous": false,
      "inputs": [
        {
          "indexed": true,
          "internalType": "uint256",
          "name": "gameId",
          "type": "uint256"
        },
        {
          "indexed": false,
          "internalType": "uint256",
          "name": "startTime",
          "type": "uint256"
        }
      ],
      "name": "GameStarted",
      "type": "event"
    },
    {
      "anonymous": false,
      "inputs": [
        {
          "indexed": true,
          "internalType": "uint256",
          "name": "gameId",
          "type": "uint256"
        },
        {
          "indexed": false,
          "internalType": "uint256",
          "name": "amount",
          "type": "uint256"
        }
      ],
      "name": "HouseFeeWithdrawn",
      "type": "event"
    },
    {
      "anonymous": false,
      "inputs": [
        {
          "indexed": true,
          "internalType": "address",
          "name": "previousOwner",
          "type": "address"
        },
        {
          "indexed": true,
          "internalType": "address",
          "name": "newOwner",
          "type": "address"
        }
      ],
      "name": "OwnershipTransferred",
      "type": "event"
    },
    {
      "anonymous": false,
      "inputs": [
        {
          "indexed": true,
          "internalType": "uint256",
          "name": "gameId",
          "type": "uint256"
        },
        {
          "indexed": true,
          "internalType": "address",
          "name": "player",
          "type": "address"
        },
        {
          "indexed": false,
          "internalType": "uint256",
          "name": "amount",
          "type": "uint256"
        }
      ],
      "name": "PlayerBet",
      "type": "event"
    },
    {
      "anonymous": false,
      "inputs": [
        {
          "indexed": true,
          "internalType": "uint256",
          "name": "gameId",
          "type": "uint256"
        },
        {
          "indexed": true,
          "internalType": "address",
          "name": "player",
          "type": "address"
        }
      ],
      "name": "PlayerFolded",
      "type": "event"
    },
    {
      "anonymous": false,
      "inputs": [
        {
          "indexed": true,
          "internalType": "uint256",
          "name": "gameId",
          "type": "uint256"
        },
        {
          "indexed": true,
          "internalType": "address",
          "name": "player",
          "type": "address"
        },
        {
          "indexed": false,
          "internalType": "uint8[2]",
          "name": "holeCards",
          "type": "uint8[2]"
        }
      ],
      "name": "PlayerJoined",
      "type": "event"
    },
    {
      "inputs": [],
      "name": "DECK_SIZE",
      "outputs": [
        {
          "internalType": "uint8",
          "name": "",
          "type": "uint8"
        }
      ],
      "stateMutability": "view",
      "type": "function"
    },
    {
      "inputs": [],
      "name": "HOUSE_FEE_PERCENTAGE",
      "outputs": [
        {
          "internalType": "uint256",
          "name": "",
          "type": "uint256"
        }
      ],
      "stateMutability": "view",
      "type": "function"
    },
    {
      "inputs": [],
      "name": "MAX_PLAYERS",
      "outputs": [
        {
          "internalType": "uint256",
          "name": "",
          "type": "uint256"
        }
      ],
      "stateMutability": "view",
      "type": "function"
    },
    {
      "inputs": [],
      "name": "MAX_TOTAL_PLAYERS",
      "outputs": [
        {
          "internalType": "uint256",
          "name": "",
          "type": "uint256"
        }
      ],
      "stateMutability": "view",
      "type": "function"
    },
    {
      "inputs": [],
      "name": "MIN_CARDS_REQUIRED",
      "outputs": [
        {
          "internalType": "uint256",
          "name": "",
          "type": "uint256"
        }
      ],
      "stateMutability": "view",
      "type": "function"
    },
    {
      "inputs": [],
      "name": "MIN_PLAYERS",
      "outputs": [
        {
          "internalType": "uint256",
          "name": "",
          "type": "uint256"
        }
      ],
      "stateMutability": "view",
      "type": "function"
    },
    {
      "inputs": [],
      "name": "accumulatedHouseFees",
      "outputs": [
        {
          "internalType": "uint256",
          "name": "",
          "type": "uint256"
        }
      ],
      "stateMutability": "view",
      "type": "function"
    },
    {
      "inputs": [],
      "name": "currentGameId",
      "outputs": [
        {
          "internalType": "uint256",
          "name": "",
          "type": "uint256"
        }
      ],
      "stateMutability": "view",
      "type": "function"
    },
    {
      "inputs": [],
      "name": "endGame",
      "outputs": [],
      "stateMutability": "nonpayable",
      "type": "function"
    },
    {
      "inputs": [],
      "name": "fold",
      "outputs": [],
      "stateMutability": "nonpayable",
      "type": "function"
    },
    {
      "inputs": [],
      "name": "gameActive",
      "outputs": [
        {
          "internalType": "bool",
          "name": "",
          "type": "bool"
        }
      ],
      "stateMutability": "view",
      "type": "function"
    },
    {
      "inputs": [],
      "name": "gamePaused",
      "outputs": [
        {
          "internalType": "bool",
          "name": "",
          "type": "bool"
        }
      ],
      "stateMutability": "view",
      "type": "function"
    },
    {
      "inputs": [],
      "name": "gameToken",
      "outputs": [
        {
          "internalType": "contract IERC20",
          "name": "",
          "type": "address"
        }
      ],
      "stateMutability": "view",
      "type": "function"
    },
    {
      "inputs": [],
      "name": "getCurrentGameInfo",
      "outputs": [
        {
          "internalType": "uint256",
          "name": "gameId",
          "type": "uint256"
        },
        {
          "internalType": "uint256",
          "name": "startTime",
          "type": "uint256"
        },
        {
          "internalType": "uint256",
          "name": "playerCount",
          "type": "uint256"
        },
        {
          "internalType": "uint256",
          "name": "totalParticipations",
          "type": "uint256"
        },
        {
          "internalType": "uint8",
          "name": "cardsRemaining",
          "type": "uint8"
        },
        {
          "internalType": "bool",
          "name": "isActive",
          "type": "bool"
        }
      ],
      "stateMutability": "view",
      "type": "function"
    },
    {
      "inputs": [],
      "name": "getGamePlayers",
      "outputs": [
        {
          "internalType": "address[]",
          "name": "players",
          "type": "address[]"
        }
      ],
      "stateMutability": "view",
      "type": "function"
    },
    {
      "inputs": [
        {
          "internalType": "address",
          "name": "player",
          "type": "address"
        }
      ],
      "name": "getPlayerInfo",
      "outputs": [
        {
          "internalType": "bool",
          "name": "hasParticipated",
          "type": "bool"
        },
        {
          "internalType": "bool",
          "name": "hasBet",
          "type": "bool"
        },
        {
          "internalType": "uint256",
          "name": "betAmount",
          "type": "uint256"
        },
        {
          "internalType": "uint8[2]",
          "name": "holeCards",
          "type": "uint8[2]"
        }
      ],
      "stateMutability": "view",
      "type": "function"
    },
    {
      "inputs": [],
      "name": "joinGame",
      "outputs": [],
      "stateMutability": "nonpayable",
      "type": "function"
    },
    {
      "inputs": [],
      "name": "owner",
      "outputs": [
        {
          "internalType": "address",
          "name": "",
          "type": "address"
        }
      ],
      "stateMutability": "view",
      "type": "function"
    },
    {
      "inputs": [
        {
          "internalType": "uint256",
          "name": "betAmount",
          "type": "uint256"
        }
      ],
      "name": "placeBet",
      "outputs": [],
      "stateMutability": "payable",
      "type": "function"
    },
    {
      "inputs": [],
      "name": "renounceOwnership",
      "outputs": [],
      "stateMutability": "nonpayable",
      "type": "function"
    },
    {
      "inputs": [],
      "name": "startGame",
      "outputs": [],
      "stateMutability": "nonpayable",
      "type": "function"
    },
    {
      "inputs": [],
      "name": "togglePause",
      "outputs": [],
      "stateMutability": "nonpayable",
      "type": "function"
    },
    {
      "inputs": [
        {
          "internalType": "address",
          "name": "newOwner",
          "type": "address"
        }
      ],
      "name": "transferOwnership",
      "outputs": [],
      "stateMutability": "nonpayable",
      "type": "function"
    },
    {
      "inputs": [],
      "name": "useEth",
      "outputs": [
        {
          "internalType": "bool",
          "name": "",
          "type": "bool"
        }
      ],
      "stateMutability": "view",
      "type": "function"
    },
    {
      "inputs": [],
      "name": "withdrawHouseFees",
      "outputs": [],
      "stateMutability": "nonpayable",
      "type": "function"
    }
  ],
  "bytecode": "0x608060405234801561000f575f5ffd5b50604051615ce7380380615ce7833981810160405281019061003191906102f9565b335f73ffffffffffffffffffffffffffffffffffffffff168173ffffffffffffffffffffffffffffffffffffffff16036100a2575f6040517f1e4fbdf70000000000000000000000000000000000000000000000000000000081526004016100999190610333565b60405180910390fd5b6100b1816101a860201b60201c565b5060016100d06100c561026960201b60201c565b61029260201b60201c565b5f01819055505f73ffffffffffffffffffffffffffffffffffffffff168173ffffffffffffffffffffffffffffffffffffffff16036101285760015f60146101000a81548160ff021916908315150217905550610182565b8060015f6101000a81548173ffffffffffffffffffffffffffffffffffffffff021916908373ffffffffffffffffffffffffffffffffffffffff1602179055505f5f60146101000a81548160ff0219169083151502179055505b5f6002819055505f5f60156101000a81548160ff0219169083151502179055505061034c565b5f5f5f9054906101000a900473ffffffffffffffffffffffffffffffffffffffff169050815f5f6101000a81548173ffffffffffffffffffffffffffffffffffffffff021916908373ffffffffffffffffffffffffffffffffffffffff1602179055508173ffffffffffffffffffffffffffffffffffffffff168173ffffffffffffffffffffffffffffffffffffffff167f8be0079c531659141344cd1fd0a4f28419497f9722a3daafe3b4186f6b6457e060405160405180910390a35050565b5f7f9b779b17422d0df92223018b32b4d1fa46e071723d6817e2486d003becc55f005f1b905090565b5f819050919050565b5f5ffd5b5f73ffffffffffffffffffffffffffffffffffffffff82169050919050565b5f6102c88261029f565b9050919050565b6102d8816102be565b81146102e2575f5ffd5b50565b5f815190506102f3816102cf565b92915050565b5f6020828403121561030e5761030d61029b565b5b5f61031b848285016102e5565b91505092915050565b61032d816102be565b82525050565b5f6020820190506103465f830184610324565b92915050565b61598e806103595f395ff3fe608060405260043610610165575f3560e01c80638da5cb5b116100d0578063c4ae316811610089578063e684f46a11610063578063e684f46a14610483578063f020044f14610499578063f2fde38b146104c3578063f677b4d4146104eb57610165565b8063c4ae316814610441578063d4f77b1c14610457578063d65ab5f21461046d57610165565b80638da5cb5b146103405780639b52474b1461036a5780639f14bbed14610394578063a645e840146103be578063c3de1ab9146103ed578063c3dfdae61461041757610165565b806359328401116101225780635932840114610257578063663e1127146102965780636cbc2ded146102c0578063715018a6146102d657806385f07bbe146102ec5780638d744a241461031657610165565b806310fe7c4814610169578063177e605814610185578063395c197f146101af5780634411b3eb146101d95780634c8b88a814610203578063536a3ddc1461022d575b5f5ffd5b610183600480360381019061017e91906140a0565b610501565b005b348015610190575f5ffd5b5061019961090c565b6040516101a691906140da565b60405180910390f35b3480156101ba575f5ffd5b506101c3610912565b6040516101d0919061410e565b60405180910390f35b3480156101e4575f5ffd5b506101ed610917565b6040516101fa91906140da565b60405180910390f35b34801561020e575f5ffd5b5061021761091c565b604051610224919061420e565b60405180910390f35b348015610238575f5ffd5b506102416109aa565b60405161024e91906140da565b60405180910390f35b348015610262575f5ffd5b5061027d60048036038101906102789190614258565b6109b0565b60405161028d9493929190614342565b60405180910390f35b3480156102a1575f5ffd5b506102aa610bad565b6040516102b791906140da565b60405180910390f35b3480156102cb575f5ffd5b506102d4610bb2565b005b3480156102e1575f5ffd5b506102ea610f45565b005b3480156102f7575f5ffd5b50610300610f58565b60405161030d91906140da565b60405180910390f35b348015610321575f5ffd5b5061032a610f5d565b60405161033791906140da565b60405180910390f35b34801561034b575f5ffd5b50610354610f62565b6040516103619190614394565b60405180910390f35b348015610375575f5ffd5b5061037e610f89565b60405161038b91906143ad565b60405180910390f35b34801561039f575f5ffd5b506103a8610f9b565b6040516103b591906140da565b60405180910390f35b3480156103c9575f5ffd5b506103d2610fa0565b6040516103e4969594939291906143c6565b60405180910390f35b3480156103f8575f5ffd5b50610401611001565b60405161040e91906143ad565b60405180910390f35b348015610422575f5ffd5b5061042b611013565b6040516104389190614480565b60405180910390f35b34801561044c575f5ffd5b50610455611038565b005b348015610462575f5ffd5b5061046b6110af565b005b348015610478575f5ffd5b5061048161140d565b005b34801561048e575f5ffd5b50610497611538565b005b3480156104a4575f5ffd5b506104ad611754565b6040516104ba91906143ad565b60405180910390f35b3480156104ce575f5ffd5b506104e960048036038101906104e49190614258565b611766565b005b3480156104f6575f5ffd5b506104ff6117ea565b005b5f60169054906101000a900460ff1615610547576040517fab35696f00000000000000000000000000000000000000000000000000000000815260040160405180910390fd5b5f60159054906101000a900460ff1661058c576040517f256d984000000000000000000000000000000000000000000000000000000000815260040160405180910390fd5b610594611896565b600580015f3373ffffffffffffffffffffffffffffffffffffffff1673ffffffffffffffffffffffffffffffffffffffff1681526020019081526020015f205f9054906101000a900460ff16610616576040517f456a578600000000000000000000000000000000000000000000000000000000815260040160405180910390fd5b5f60056003015f3373ffffffffffffffffffffffffffffffffffffffff1673ffffffffffffffffffffffffffffffffffffffff1681526020019081526020015f206001015414610692576040517fa820742e00000000000000000000000000000000000000000000000000000000815260040160405180910390fd5b5f5f60149054906101000a900460ff16156106e8575f34036106e0576040517fc288941e00000000000000000000000000000000000000000000000000000000815260040160405180910390fd5b349050610773565b5f8203610721576040517fc288941e00000000000000000000000000000000000000000000000000000000815260040160405180910390fd5b81905061077233308460015f9054906101000a900473ffffffffffffffffffffffffffffffffffffffff1673ffffffffffffffffffffffffffffffffffffffff166118b8909392919063ffffffff16565b5b60056002015f3373ffffffffffffffffffffffffffffffffffffffff1673ffffffffffffffffffffffffffffffffffffffff1681526020019081526020015f2060056003015f3373ffffffffffffffffffffffffffffffffffffffff1673ffffffffffffffffffffffffffffffffffffffff1681526020019081526020015f205f01906002610803929190613db8565b508060056003015f3373ffffffffffffffffffffffffffffffffffffffff1673ffffffffffffffffffffffffffffffffffffffff1681526020019081526020015f2060010181905550600560040133908060018154018082558091505060019003905f5260205f20015f9091909190916101000a81548173ffffffffffffffffffffffffffffffffffffffff021916908373ffffffffffffffffffffffffffffffffffffffff1602179055503373ffffffffffffffffffffffffffffffffffffffff166002547fd4378ef4558c1e2a851456fb0106171f67cc4bc8abe3f27346a47cc6010a291d836040516108f891906140da565b60405180910390a35061090961190d565b50565b60035481565b603481565b600981565b606060056004018054806020026020016040519081016040528092919081815260200182805480156109a057602002820191905f5260205f20905b815f9054906101000a900473ffffffffffffffffffffffffffffffffffffffff1673ffffffffffffffffffffffffffffffffffffffff1681526020019060010190808311610957575b5050505050905090565b60025481565b5f5f5f6109bb613e03565b600580015f8673ffffffffffffffffffffffffffffffffffffffff1673ffffffffffffffffffffffffffffffffffffffff1681526020019081526020015f205f9054906101000a900460ff16935060056003015f8673ffffffffffffffffffffffffffffffffffffffff1673ffffffffffffffffffffffffffffffffffffffff1681526020019081526020015f206001015491505f821192508215610b035760056003015f8673ffffffffffffffffffffffffffffffffffffffff1673ffffffffffffffffffffffffffffffffffffffff1681526020019081526020015f205f01600280602002604051908101604052809291908260028015610af7576020028201915f905b82829054906101000a900460ff1660ff16815260200190600101906020825f01049283019260010382029150808411610ac15790505b50505050509050610ba6565b60056002015f8673ffffffffffffffffffffffffffffffffffffffff1673ffffffffffffffffffffffffffffffffffffffff1681526020019081526020015f20600280602002604051908101604052809291908260028015610b9e576020028201915f905b82829054906101000a900460ff1660ff16815260200190600101906020825f01049283019260010382029150808411610b685790505b505050505090505b9193509193565b600181565b610bba611927565b5f60169054906101000a900460ff1615610c00576040517fab35696f00000000000000000000000000000000000000000000000000000000815260040160405180910390fd5b5f60159054906101000a900460ff16610c45576040517f256d984000000000000000000000000000000000000000000000000000000000815260040160405180910390fd5b5f5f60156101000a81548160ff0219169083151502179055505f60056004018054905090506002811015610f31575f5f90505b81811015610d2b575f60056004018281548110610c9857610c97614499565b5b905f5260205f20015f9054906101000a900473ffffffffffffffffffffffffffffffffffffffff1690505f60056003015f8373ffffffffffffffffffffffffffffffffffffffff1673ffffffffffffffffffffffffffffffffffffffff1681526020019081526020015f206001015490505f811115610d1c57610d1b82826119ae565b5b50508080600101915050610c78565b505f604051806101200160405280600254815260200160056001015481526020014281526020016005600401805480602002602001604051908101604052809291908181526020018280548015610dd457602002820191905f5260205f20905b815f9054906101000a900473ffffffffffffffffffffffffffffffffffffffff1673ffffffffffffffffffffffffffffffffffffffff1681526020019060010190808311610d8b575b505050505081526020015f67ffffffffffffffff811115610df857610df76144c6565b5b604051908082528060200260200182016040528015610e265781602001602082028036833780820191505090505b5081526020016005600b01600580602002604051908101604052809291908260058015610e8c576020028201915f905b82829054906101000a900460ff1660ff16815260200190600101906020825f01049283019260010382029150808411610e565790505b505050505081526020015f67ffffffffffffffff811115610eb057610eaf6144c6565b5b604051908082528060200260200182016040528015610ede5781602001602082028036833780820191505090505b5081526020015f81526020015f81525090506002547f6078529d9020f865ca5321b152951664d06fe9f9ee87e29547bdb9994473da3a82604051610f229190614767565b60405180910390a25050610f43565b610f39611ab8565b610f41611b60565b505b565b610f4d611927565b610f565f611f5b565b565b600281565b603281565b5f5f5f9054906101000a900473ffffffffffffffffffffffffffffffffffffffff16905090565b5f60149054906101000a900460ff1681565b600781565b5f5f5f5f5f5f60055f01546005600101546005600401805490506005600701546005600a015f9054906101000a900460ff166034610fde91906147b4565b5f60159054906101000a900460ff16955095509550955095509550909192939495565b5f60169054906101000a900460ff1681565b60015f9054906101000a900473ffffffffffffffffffffffffffffffffffffffff1681565b611040611927565b5f60169054906101000a900460ff16155f60166101000a81548160ff0219169083151502179055507fb5838f871ddee4623a406029b1a0b6013e0ec30f2dc114307f21459a800a82965f60169054906101000a900460ff166040516110a591906143ad565b60405180910390a1565b5f60169054906101000a900460ff16156110f5576040517fab35696f00000000000000000000000000000000000000000000000000000000815260040160405180910390fd5b5f60159054906101000a900460ff1661113a576040517f256d984000000000000000000000000000000000000000000000000000000000815260040160405180910390fd5b600580015f3373ffffffffffffffffffffffffffffffffffffffff1673ffffffffffffffffffffffffffffffffffffffff1681526020019081526020015f205f9054906101000a900460ff16156111bd576040517f22ce1a0700000000000000000000000000000000000000000000000000000000815260040160405180910390fd5b6009600560040180549050106111ff576040517fb3ed896d00000000000000000000000000000000000000000000000000000000815260040160405180910390fd5b60326005600701541061123e576040517f2f9f4a5300000000000000000000000000000000000000000000000000000000815260040160405180910390fd5b5f6005600a015f9054906101000a900460ff16603461125d91906147b4565b60ff169050600781101561129d576040517fff0b9c2600000000000000000000000000000000000000000000000000000000815260040160405180910390fd5b6001600580015f3373ffffffffffffffffffffffffffffffffffffffff1673ffffffffffffffffffffffffffffffffffffffff1681526020019081526020015f205f6101000a81548160ff021916908315150217905550600560060133908060018154018082558091505060019003905f5260205f20015f9091909190916101000a81548173ffffffffffffffffffffffffffffffffffffffff021916908373ffffffffffffffffffffffffffffffffffffffff16021790555060056007015f81548092919061136c906147e8565b919050555061137a3361201c565b3373ffffffffffffffffffffffffffffffffffffffff166002547fda4052de60f6327b7721a5aca5ede61d65afb7917b4e83024e3c36bb247bf11b60056002015f3373ffffffffffffffffffffffffffffffffffffffff1673ffffffffffffffffffffffffffffffffffffffff1681526020019081526020015f2060405161140291906154ec565b60405180910390a350565b611415611927565b5f60169054906101000a900460ff161561145b576040517fab35696f00000000000000000000000000000000000000000000000000000000815260040160405180910390fd5b5f60159054906101000a900460ff16156114a1576040517f91c183df00000000000000000000000000000000000000000000000000000000815260040160405180910390fd5b6114a96120d1565b60025f8154809291906114bb906147e8565b919050555060025460055f0181905550426005600101819055506114dd6122e8565b6002547fa2dfaa3573b86004ec9d4d4abe5068d942579c59da4da8cd0d9e45e71a393bc160056001015460405161151491906140da565b60405180910390a260015f60156101000a81548160ff021916908315150217905550565b5f60169054906101000a900460ff161561157e576040517fab35696f00000000000000000000000000000000000000000000000000000000815260040160405180910390fd5b5f60159054906101000a900460ff166115c3576040517f256d984000000000000000000000000000000000000000000000000000000000815260040160405180910390fd5b600580015f3373ffffffffffffffffffffffffffffffffffffffff1673ffffffffffffffffffffffffffffffffffffffff1681526020019081526020015f205f9054906101000a900460ff16611645576040517f43050d9600000000000000000000000000000000000000000000000000000000815260040160405180910390fd5b5f60056003015f3373ffffffffffffffffffffffffffffffffffffffff1673ffffffffffffffffffffffffffffffffffffffff1681526020019081526020015f2060010154146116c1576040517fa820742e00000000000000000000000000000000000000000000000000000000815260040160405180910390fd5b60056002015f3373ffffffffffffffffffffffffffffffffffffffff1673ffffffffffffffffffffffffffffffffffffffff1681526020019081526020015f205f61170c9190613e25565b3373ffffffffffffffffffffffffffffffffffffffff166002547fff58754f139821608e8cd02acc187dd142075388ef6996df93ee889c93a9e73860405160405180910390a3565b5f60159054906101000a900460ff1681565b61176e611927565b5f73ffffffffffffffffffffffffffffffffffffffff168173ffffffffffffffffffffffffffffffffffffffff16036117de575f6040517f1e4fbdf70000000000000000000000000000000000000000000000000000000081526004016117d59190614394565b60405180910390fd5b6117e781611f5b565b50565b6117f2611927565b6117fa611896565b5f60035490505f8103611839576040517f7f7d9be000000000000000000000000000000000000000000000000000000000815260040160405180910390fd5b5f60038190555061185161184b610f62565b826119ae565b6002547f3a63405103d4b6408f488200be612649ae784f617455c9eddd22a5a1a57cf22e8260405161188391906140da565b60405180910390a25061189461190d565b565b61189e612527565b60026118b06118ab612568565b612591565b5f0181905550565b6118c684848484600161259a565b61190757836040517f5274afe70000000000000000000000000000000000000000000000000000000081526004016118fe9190614394565b60405180910390fd5b50505050565b600161191f61191a612568565b612591565b5f0181905550565b61192f61260b565b73ffffffffffffffffffffffffffffffffffffffff1661194d610f62565b73ffffffffffffffffffffffffffffffffffffffff16146119ac5761197061260b565b6040517f118cdaa70000000000000000000000000000000000000000000000000000000081526004016119a39190614394565b60405180910390fd5b565b5f60149054906101000a900460ff1615611a67575f8273ffffffffffffffffffffffffffffffffffffffff16826040516119e790615532565b5f6040518083038185875af1925050503d805f8114611a21576040519150601f19603f3d011682016040523d82523d5f602084013e611a26565b606091505b5050905080611a61576040517f90b8ec1800000000000000000000000000000000000000000000000000000000815260040160405180910390fd5b50611ab4565b611ab3828260015f9054906101000a900473ffffffffffffffffffffffffffffffffffffffff1673ffffffffffffffffffffffffffffffffffffffff166126129092919063ffffffff16565b5b5050565b611ac0613e2b565b5f5f90505b60058160ff161015611b0d57611ad9612665565b828260ff1660058110611aef57611aee614499565b5b602002019060ff16908160ff16815250508080600101915050611ac5565b50806005600b01906005611b22929190613e4d565b506002547f8c37d66c1438d0136c01897f708325c15c0745298af95fe439f7d416ef1f9cfe82604051611b5591906155a6565b60405180910390a250565b5f60056004018054905090506002811015611ba7576040517ff770074300000000000000000000000000000000000000000000000000000000815260040160405180910390fd5b5f5f611bb1612737565b91509150816005600c0181905550611bc881612866565b5f5f90505f5f90505f5f90505b85811015611ec3575f60056004018281548110611bf557611bf4614499565b5b905f5260205f20015f9054906101000a900473ffffffffffffffffffffffffffffffffffffffff1690505f5f611d3060056003015f8573ffffffffffffffffffffffffffffffffffffffff1673ffffffffffffffffffffffffffffffffffffffff1681526020019081526020015f205f01600280602002604051908101604052809291908260028015611cc1576020028201915f905b82829054906101000a900460ff1660ff16815260200190600101906020825f01049283019260010382029150808411611c8b5790505b50505050506005600b01600580602002604051908101604052809291908260058015611d26576020028201915f905b82829054906101000a900460ff1660ff16815260200190600101906020825f01049283019260010382029150808411611cf05790505b505050505061293a565b91509150856008811115611d4757611d466155bf565b5b826008811115611d5a57611d596155bf565b5b1180611d945750856008811115611d7457611d736155bf565b5b826008811115611d8757611d866155bf565b5b148015611d9357508481115b5b15611e17578195508094506005600d015f611daf9190613ee4565b6005600d0183908060018154018082558091505060019003905f5260205f20015f9091909190916101000a81548173ffffffffffffffffffffffffffffffffffffffff021916908373ffffffffffffffffffffffffffffffffffffffff160217905550611eb3565b856008811115611e2a57611e296155bf565b5b826008811115611e3d57611e3c6155bf565b5b148015611e4957508481145b15611eb2576005600d0183908060018154018082558091505060019003905f5260205f20015f9091909190916101000a81548173ffffffffffffffffffffffffffffffffffffffff021916908373ffffffffffffffffffffffffffffffffffffffff1602179055505b5b5050508080600101915050611bd5565b50611f546005600d01805480602002602001604051908101604052809291908181526020018280548015611f4957602002820191905f5260205f20905b815f9054906101000a900473ffffffffffffffffffffffffffffffffffffffff1673ffffffffffffffffffffffffffffffffffffffff1681526020019060010190808311611f00575b505050505085612951565b5050505050565b5f5f5f9054906101000a900473ffffffffffffffffffffffffffffffffffffffff169050815f5f6101000a81548173ffffffffffffffffffffffffffffffffffffffff021916908373ffffffffffffffffffffffffffffffffffffffff1602179055508173ffffffffffffffffffffffffffffffffffffffff168173ffffffffffffffffffffffffffffffffffffffff167f8be0079c531659141344cd1fd0a4f28419497f9722a3daafe3b4186f6b6457e060405160405180910390a35050565b612024613e03565b61202c612665565b815f6002811061203f5761203e614499565b5b602002019060ff16908160ff1681525050612058612665565b8160016002811061206c5761206b614499565b5b602002019060ff16908160ff16815250508060056002015f8473ffffffffffffffffffffffffffffffffffffffff1673ffffffffffffffffffffffffffffffffffffffff1681526020019081526020015f209060026120cc929190613f02565b505050565b5f5f90505b600560060180549050811015612227575f600560060182815481106120fe576120fd614499565b5b905f5260205f20015f9054906101000a900473ffffffffffffffffffffffffffffffffffffffff16905060056002015f8273ffffffffffffffffffffffffffffffffffffffff1673ffffffffffffffffffffffffffffffffffffffff1681526020019081526020015f205f6121739190613e25565b60056003015f8273ffffffffffffffffffffffffffffffffffffffff1673ffffffffffffffffffffffffffffffffffffffff1681526020019081526020015f205f5f82015f6121c29190613e25565b600182015f90555050600580015f8273ffffffffffffffffffffffffffffffffffffffff1673ffffffffffffffffffffffffffffffffffffffff1681526020019081526020015f205f6101000a81549060ff02191690555080806001019150506120d6565b5060056006015f6122389190613ee4565b60056004015f6122489190613ee4565b6005600d015f6122589190613ee4565b5f6005600701819055505f6005600c01819055505f6005600a015f6101000a81548160ff021916908360ff1602179055505f5f90505b603460ff168160ff1610156122e5575f60056008018260ff16603481106122b8576122b7614499565b5b602091828204019190066101000a81548160ff021916908360ff160217905550808060010191505061228e565b50565b6122f0613f99565b5f5f90505b603460ff168160ff1610156123395780828260ff166034811061231b5761231a614499565b5b602002019060ff16908160ff168152505080806001019150506122f5565b505f44426002546004544360405160200161235895949392919061560c565b604051602081830303815290604052805190602001205f1c90505f6001603461238191906147b4565b90505b5f8160ff1611156124775781816040516020016123a292919061569e565b604051602081830303815290604052805190602001205f1c91505f6001826123ca91906156c9565b60ff16836123d8919061572a565b90505f848360ff16603481106123f1576123f0614499565b5b60200201519050848260ff166034811061240e5761240d614499565b5b6020020151858460ff166034811061242957612428614499565b5b602002019060ff16908160ff168152505080858360ff166034811061245157612450614499565b5b602002019060ff16908160ff16815250505050808061246f9061575a565b915050612384565b505f5f90505b603460ff168160ff1610156124ee57828160ff16603481106124a2576124a1614499565b5b602002015160056008018260ff16603481106124c1576124c0614499565b5b602091828204019190066101000a81548160ff021916908360ff160217905550808060010191505061247d565b505f6005600a015f6101000a81548160ff021916908360ff16021790555060045f81548092919061251e906147e8565b91905055505050565b61252f612a75565b15612566576040517f3ee5aeb500000000000000000000000000000000000000000000000000000000815260040160405180910390fd5b565b5f7f9b779b17422d0df92223018b32b4d1fa46e071723d6817e2486d003becc55f005f1b905090565b5f819050919050565b5f5f6323b872dd60e01b9050604051815f525f1960601c87166004525f1960601c86166024528460445260205f60645f5f8c5af1925060015f511483166125f85783831516156125ec573d5f823e3d81fd5b5f883b113d1516831692505b806040525f606052505095945050505050565b5f33905090565b61261f8383836001612a91565b61266057826040517f5274afe70000000000000000000000000000000000000000000000000000000081526004016126579190614394565b60405180910390fd5b505050565b5f603460ff166005600a015f9054906101000a900460ff1660ff16106126b7576040517fb5ea5abf00000000000000000000000000000000000000000000000000000000815260040160405180910390fd5b60056008016005600a015f9054906101000a900460ff1660ff16603481106126e2576126e1614499565b5b602091828204019190069054906101000a900460ff1690506005600a015f81819054906101000a900460ff168092919061271b90615781565b91906101000a81548160ff021916908360ff1602179055505090565b5f5f5f60056004018054905090505f810361277e576040517fdff55bfb00000000000000000000000000000000000000000000000000000000815260040160405180910390fd5b7fffffffffffffffffffffffffffffffffffffffffffffffffffffffffffffffff91505f5f90505b81811015612852575f600560040182815481106127c6576127c5614499565b5b905f5260205f20015f9054906101000a900473ffffffffffffffffffffffffffffffffffffffff1690505f60056003015f8373ffffffffffffffffffffffffffffffffffffffff1673ffffffffffffffffffffffffffffffffffffffff1681526020019081526020015f2060010154905084811015612843578094505b505080806001019150506127a6565b50808261285f91906157a9565b9250509091565b5f5f90505b600560040180549050811015612936575f6005600401828154811061289357612892614499565b5b905f5260205f20015f9054906101000a900473ffffffffffffffffffffffffffffffffffffffff1690505f60056003015f8373ffffffffffffffffffffffffffffffffffffffff1673ffffffffffffffffffffffffffffffffffffffff1681526020019081526020015f2060010154905083811115612927575f848261291991906157ea565b905061292583826119ae565b505b5050808060010191505061286b565b5050565b5f5f6129468484612af3565b915091509250929050565b5f82510361298b576040517f3728feb300000000000000000000000000000000000000000000000000000000815260040160405180910390fd5b5f606460018361299b91906157a9565b6129a5919061581d565b90505f81836129b491906157ea565b90505f8451826129c4919061581d565b90508260035f8282546129d7919061584d565b92505081905550826005600e01819055505f5f90505b8551811015612a2757612a1a868281518110612a0c57612a0b614499565b5b6020026020010151836119ae565b80806001019150506129ed565b505f612a31612d62565b90506002547f6078529d9020f865ca5321b152951664d06fe9f9ee87e29547bdb9994473da3a82604051612a659190614767565b60405180910390a2505050505050565b5f6002612a88612a83612568565b612591565b5f015414905090565b5f5f63a9059cbb60e01b9050604051815f525f1960601c86166004528460245260205f60445f5f8b5af1925060015f51148316612ae5578383151615612ad9573d5f823e3d81fd5b5f873b113d1516831692505b806040525050949350505050565b5f5f612afd613fbc565b845f60028110612b1057612b0f614499565b5b6020020151815f60078110612b2857612b27614499565b5b602002019060ff16908160ff168152505084600160028110612b4d57612b4c614499565b5b602002015181600160078110612b6657612b65614499565b5b602002019060ff16908160ff16815250505f5f90505b60058160ff161015612be357848160ff1660058110612b9e57612b9d614499565b5b602002015182600283612bb191906156c9565b60ff1660078110612bc557612bc4614499565b5b602002019060ff16908160ff16815250508080600101915050612b7c565b505f5f90505f5f90505f5f90505b60078160ff161015612d51575f600182612c0b91906156c9565b90505b60078160ff161015612d4357612c22613e2b565b5f5f90505f5f90505b60078160ff161015612cb6578460ff168160ff1614158015612c5357508360ff168160ff1614155b15612ca957878160ff1660078110612c6e57612c6d614499565b5b6020020151838360ff1660058110612c8957612c88614499565b5b602002019060ff16908160ff16815250508180612ca590615781565b9250505b8080600101915050612c2b565b505f5f612cc284613087565b91509150876008811115612cd957612cd86155bf565b5b826008811115612cec57612ceb6155bf565b5b1180612d265750876008811115612d0657612d056155bf565b5b826008811115612d1957612d186155bf565b5b148015612d2557508681115b5b15612d32578197508096505b505050508080600101915050612c0e565b508080600101915050612bf1565b508181945094505050509250929050565b612d6a613fde565b5f60056004018054905090505f8167ffffffffffffffff811115612d9157612d906144c6565b5b604051908082528060200260200182016040528015612dbf5781602001602082028036833780820191505090505b5090505f5f90505b82811015612e7d5760056003015f60056004018381548110612dec57612deb614499565b5b905f5260205f20015f9054906101000a900473ffffffffffffffffffffffffffffffffffffffff1673ffffffffffffffffffffffffffffffffffffffff1673ffffffffffffffffffffffffffffffffffffffff1681526020019081526020015f2060010154828281518110612e6457612e63614499565b5b6020026020010181815250508080600101915050612dc7565b505f5f90505f6005600d01805490501115612ec3575f6005600e01546005600c0154612ea991906157ea565b90506005600d018054905081612ebf919061581d565b9150505b604051806101200160405280600254815260200160056001015481526020014281526020016005600401805480602002602001604051908101604052809291908181526020018280548015612f6a57602002820191905f5260205f20905b815f9054906101000a900473ffffffffffffffffffffffffffffffffffffffff1673ffffffffffffffffffffffffffffffffffffffff1681526020019060010190808311612f21575b505050505081526020018381526020016005600b01600580602002604051908101604052809291908260058015612fda576020028201915f905b82829054906101000a900460ff1660ff16815260200190600101906020825f01049283019260010382029150808411612fa45790505b505050505081526020016005600d0180548060200260200160405190810160405280929190818152602001828054801561306657602002820191905f5260205f20905b815f9054906101000a900473ffffffffffffffffffffffffffffffffffffffff1673ffffffffffffffffffffffffffffffffffffffff168152602001906001019080831161301d575b505050505081526020018281526020016005600e0154815250935050505090565b5f5f613091613e2b565b613099613e2b565b5f5f90505b60058160ff16101561314b576130cd868260ff16600581106130c3576130c2614499565b5b60200201516139d2565b838260ff16600581106130e3576130e2614499565b5b602002019060ff16908160ff1681525050613117868260ff166005811061310d5761310c614499565b5b6020020151613a39565b828260ff166005811061312d5761312c614499565b5b602002019060ff16908160ff1681525050808060010191505061309e565b5061315582613a94565b5f8160016005811061316a57613169614499565b5b602002015160ff16825f6005811061318557613184614499565b5b602002015160ff161480156131cf5750816002600581106131a9576131a8614499565b5b602002015160ff16826001600581106131c5576131c4614499565b5b602002015160ff16145b80156132105750816003600581106131ea576131e9614499565b5b602002015160ff168260026005811061320657613205614499565b5b602002015160ff16145b801561325157508160046005811061322b5761322a614499565b5b602002015160ff168260036005811061324757613246614499565b5b602002015160ff16145b90505f61325d84613bad565b905061326761402b565b5f5f90505b60058160ff1610156132d15781868260ff166005811061328f5761328e614499565b5b602002015160ff16600f81106132a8576132a7614499565b5b6020020180518091906132ba90615781565b60ff1660ff1681525050808060010191505061326c565b505f5f90505f5f90505f5f90505f5f90505f5f90505f600e90505b60028160ff16106133bd576004878260ff16600f811061330f5761330e614499565b5b602002015160ff1603613320578095505b6003878260ff16600f811061333857613337614499565b5b602002015160ff1603613349578094505b6002878260ff16600f811061336157613360614499565b5b602002015160ff160361339e575f8360ff16036133805780925061338f565b5f8260ff160361338e578091505b5b838061339a90615781565b9450505b60028160ff1603156133bd5780806133b59061575a565b9150506132ec565b508680156133c85750875b1561340d5760086402540be4008b5f600581106133e8576133e7614499565b5b602002015160ff166133fa91906157a9565b9b509b50505050505050505050506139cd565b5f8560ff1611156134b8575f5f90505f5f90505b60058160ff16101561347f578660ff168c8260ff166005811061344757613446614499565b5b602002015160ff1614613472578b8160ff166005811061346a57613469614499565b5b602002015191505b8080600101915050613421565b5060078160ff166402540be4008860ff1661349a91906157a9565b6134a4919061584d565b9c509c5050505050505050505050506139cd565b5f8460ff161180156134cc57505f8360ff16115b156135085760068260ff166402540be4008660ff166134eb91906157a9565b6134f5919061584d565b9b509b50505050505050505050506139cd565b87156136105760058a60046005811061352457613523614499565b5b602002015160ff166127108c60036005811061354357613542614499565b5b602002015160ff1661355591906157a9565b620f42408d60026005811061356d5761356c614499565b5b602002015160ff1661357f91906157a9565b6305f5e1008e60016005811061359857613597614499565b5b602002015160ff166135aa91906157a9565b6402540be4008f5f600581106135c3576135c2614499565b5b602002015160ff166135d591906157a9565b6135df919061584d565b6135e9919061584d565b6135f3919061584d565b6135fd919061584d565b9b509b50505050505050505050506139cd565b86156136565760046402540be4008b5f6005811061363157613630614499565b5b602002015160ff1661364391906157a9565b9b509b50505050505050505050506139cd565b5f8460ff161115613718575f5f90505f5f90505b60058160ff1610156136e2578560ff168c8260ff16600581106136905761368f614499565b5b602002015160ff16146136d5578b8160ff16600581106136b3576136b2614499565b5b602002015160ff166064836136c891906157a9565b6136d2919061584d565b91505b808060010191505061366a565b506003816402540be4008760ff166136fa91906157a9565b613704919061584d565b9c509c5050505050505050505050506139cd565b60028360ff160361380e575f5f90505f5f90505b60058160ff1610156137b8578360ff168c8260ff166005811061375257613751614499565b5b602002015160ff161415801561378857508260ff168c8260ff166005811061377d5761377c614499565b5b602002015160ff1614155b156137ab578b8160ff16600581106137a3576137a2614499565b5b602002015191505b808060010191505061372c565b5060028160ff166305f5e1008460ff166137d291906157a9565b6402540be4008660ff166137e691906157a9565b6137f0919061584d565b6137fa919061584d565b9c509c5050505050505050505050506139cd565b60018360ff16036138d0575f5f90505f5f90505b60058160ff16101561389a578360ff168c8260ff166005811061384857613847614499565b5b602002015160ff161461388d578b8160ff166005811061386b5761386a614499565b5b602002015160ff1660648361388091906157a9565b61388a919061584d565b91505b8080600101915050613822565b506001816402540be4008560ff166138b291906157a9565b6138bc919061584d565b9c509c5050505050505050505050506139cd565b5f8a6004600581106138e5576138e4614499565b5b602002015160ff166127108c60036005811061390457613903614499565b5b602002015160ff1661391691906157a9565b620f42408d60026005811061392e5761392d614499565b5b602002015160ff1661394091906157a9565b6305f5e1008e60016005811061395957613958614499565b5b602002015160ff1661396b91906157a9565b6402540be4008f5f6005811061398457613983614499565b5b602002015160ff1661399691906157a9565b6139a0919061584d565b6139aa919061584d565b6139b4919061584d565b6139be919061584d565b9b509b50505050505050505050505b915091565b5f60348260ff1610613a19576040517f08c379a0000000000000000000000000000000000000000000000000000000008152600401613a10906158da565b60405180910390fd5b6002600d83613a2891906158f8565b613a3291906156c9565b9050919050565b5f60348260ff1610613a80576040517f08c379a0000000000000000000000000000000000000000000000000000000008152600401613a77906158da565b60405180910390fd5b600d82613a8d9190615928565b9050919050565b5f5f90505b60058160ff161015613ba9575f600182613ab391906156c9565b90505b60058160ff161015613b9b57828260ff1660058110613ad857613ad7614499565b5b602002015160ff16838260ff1660058110613af657613af5614499565b5b602002015160ff161115613b8e575f838360ff1660058110613b1b57613b1a614499565b5b60200201519050838260ff1660058110613b3857613b37614499565b5b6020020151848460ff1660058110613b5357613b52614499565b5b602002019060ff16908160ff168152505080848360ff1660058110613b7b57613b7a614499565b5b602002019060ff16908160ff1681525050505b8080600101915050613ab6565b508080600101915050613a99565b5050565b5f600182600160058110613bc457613bc3614499565b5b6020020151613bd391906156c9565b60ff16825f60058110613be957613be8614499565b5b602002015160ff16148015613c3f5750600182600260058110613c0f57613c0e614499565b5b6020020151613c1e91906156c9565b60ff1682600160058110613c3557613c34614499565b5b602002015160ff16145b8015613c8c5750600182600360058110613c5c57613c5b614499565b5b6020020151613c6b91906156c9565b60ff1682600260058110613c8257613c81614499565b5b602002015160ff16145b8015613cd95750600182600460058110613ca957613ca8614499565b5b6020020151613cb891906156c9565b60ff1682600360058110613ccf57613cce614499565b5b602002015160ff16145b15613ce75760019050613db3565b600e825f60058110613cfc57613cfb614499565b5b602002015160ff16148015613d2c5750600582600160058110613d2257613d21614499565b5b602002015160ff16145b8015613d535750600482600260058110613d4957613d48614499565b5b602002015160ff16145b8015613d7a5750600382600360058110613d7057613d6f614499565b5b602002015160ff16145b8015613da15750600282600460058110613d9757613d96614499565b5b602002015160ff16145b15613daf5760019050613db3565b5f90505b919050565b826002601f01602090048101928215613df25791601f016020900482015b82811115613df1578254825591600101919060010190613dd6565b5b509050613dff919061404e565b5090565b6040518060400160405280600290602082028036833780820191505090505090565b505f9055565b6040518060a00160405280600590602082028036833780820191505090505090565b826005601f01602090048101928215613ed3579160200282015f5b83821115613ea557835183826101000a81548160ff021916908360ff16021790555092602001926001016020815f01049283019260010302613e68565b8015613ed15782816101000a81549060ff02191690556001016020815f01049283019260010302613ea5565b505b509050613ee0919061404e565b5090565b5080545f8255905f5260205f2090810190613eff919061404e565b50565b826002601f01602090048101928215613f88579160200282015f5b83821115613f5a57835183826101000a81548160ff021916908360ff16021790555092602001926001016020815f01049283019260010302613f1d565b8015613f865782816101000a81549060ff02191690556001016020815f01049283019260010302613f5a565b505b509050613f95919061404e565b5090565b604051806106800160405280603490602082028036833780820191505090505090565b6040518060e00160405280600790602082028036833780820191505090505090565b6040518061012001604052805f81526020015f81526020015f81526020016060815260200160608152602001614012613e2b565b8152602001606081526020015f81526020015f81525090565b604051806101e00160405280600f90602082028036833780820191505090505090565b5b80821115614065575f815f90555060010161404f565b5090565b5f5ffd5b5f819050919050565b61407f8161406d565b8114614089575f5ffd5b50565b5f8135905061409a81614076565b92915050565b5f602082840312156140b5576140b4614069565b5b5f6140c28482850161408c565b91505092915050565b6140d48161406d565b82525050565b5f6020820190506140ed5f8301846140cb565b92915050565b5f60ff82169050919050565b614108816140f3565b82525050565b5f6020820190506141215f8301846140ff565b92915050565b5f81519050919050565b5f82825260208201905092915050565b5f819050602082019050919050565b5f73ffffffffffffffffffffffffffffffffffffffff82169050919050565b5f61417982614150565b9050919050565b6141898161416f565b82525050565b5f61419a8383614180565b60208301905092915050565b5f602082019050919050565b5f6141bc82614127565b6141c68185614131565b93506141d183614141565b805f5b838110156142015781516141e8888261418f565b97506141f3836141a6565b9250506001810190506141d4565b5085935050505092915050565b5f6020820190508181035f83015261422681846141b2565b905092915050565b6142378161416f565b8114614241575f5ffd5b50565b5f813590506142528161422e565b92915050565b5f6020828403121561426d5761426c614069565b5b5f61427a84828501614244565b91505092915050565b5f8115159050919050565b61429781614283565b82525050565b5f60029050919050565b5f81905092915050565b5f819050919050565b6142c3816140f3565b82525050565b5f6142d483836142ba565b60208301905092915050565b5f602082019050919050565b6142f58161429d565b6142ff81846142a7565b925061430a826142b1565b805f5b8381101561433a57815161432187826142c9565b965061432c836142e0565b92505060018101905061430d565b505050505050565b5f60a0820190506143555f83018761428e565b614362602083018661428e565b61436f60408301856140cb565b61437c60608301846142ec565b95945050505050565b61438e8161416f565b82525050565b5f6020820190506143a75f830184614385565b92915050565b5f6020820190506143c05f83018461428e565b92915050565b5f60c0820190506143d95f8301896140cb565b6143e660208301886140cb565b6143f360408301876140cb565b61440060608301866140cb565b61440d60808301856140ff565b61441a60a083018461428e565b979650505050505050565b5f819050919050565b5f61444861444361443e84614150565b614425565b614150565b9050919050565b5f6144598261442e565b9050919050565b5f61446a8261444f565b9050919050565b61447a81614460565b82525050565b5f6020820190506144935f830184614471565b92915050565b7f4e487b71000000000000000000000000000000000000000000000000000000005f52603260045260245ffd5b7f4e487b71000000000000000000000000000000000000000000000000000000005f52604160045260245ffd5b6144fc8161406d565b82525050565b5f82825260208201905092915050565b5f61451c82614127565b6145268185614502565b935061453183614141565b805f5b83811015614561578151614548888261418f565b9750614553836141a6565b925050600181019050614534565b5085935050505092915050565b5f81519050919050565b5f82825260208201905092915050565b5f819050602082019050919050565b5f6145a283836144f3565b60208301905092915050565b5f602082019050919050565b5f6145c48261456e565b6145ce8185614578565b93506145d983614588565b805f5b838110156146095781516145f08882614597565b97506145fb836145ae565b9250506001810190506145dc565b5085935050505092915050565b5f60059050919050565b5f81905092915050565b5f819050919050565b5f602082019050919050565b61464881614616565b6146528184614620565b925061465d8261462a565b805f5b8381101561468d57815161467487826142c9565b965061467f83614633565b925050600181019050614660565b505050505050565b5f6101a083015f8301516146ab5f8601826144f3565b5060208301516146be60208601826144f3565b5060408301516146d160408601826144f3565b50606083015184820360608601526146e98282614512565b9150506080830151848203608086015261470382826145ba565b91505060a083015161471860a086018261463f565b5060c08301518482036101408601526147318282614512565b91505060e08301516147476101608601826144f3565b5061010083015161475c6101808601826144f3565b508091505092915050565b5f6020820190508181035f83015261477f8184614695565b905092915050565b7f4e487b71000000000000000000000000000000000000000000000000000000005f52601160045260245ffd5b5f6147be826140f3565b91506147c9836140f3565b9250828203905060ff8111156147e2576147e1614787565b5b92915050565b5f6147f28261406d565b91507fffffffffffffffffffffffffffffffffffffffffffffffffffffffffffffffff820361482457614823614787565b5b600182019050919050565b5f60029050919050565b5f819050919050565b5f815f1c9050919050565b5f60ff82169050919050565b5f61486b61486683614842565b61484d565b9050919050565b5f8160081c9050919050565b5f61489061488b83614872565b61484d565b9050919050565b5f8160101c9050919050565b5f6148b56148b083614897565b61484d565b9050919050565b5f8160181c9050919050565b5f6148da6148d5836148bc565b61484d565b9050919050565b5f8160201c9050919050565b5f6148ff6148fa836148e1565b61484d565b9050919050565b5f8160281c9050919050565b5f61492461491f83614906565b61484d565b9050919050565b5f8160301c9050919050565b5f6149496149448361492b565b61484d565b9050919050565b5f8160381c9050919050565b5f61496e61496983614950565b61484d565b9050919050565b5f8160401c9050919050565b5f61499361498e83614975565b61484d565b9050919050565b5f8160481c9050919050565b5f6149b86149b38361499a565b61484d565b9050919050565b5f8160501c9050919050565b5f6149dd6149d8836149bf565b61484d565b9050919050565b5f8160581c9050919050565b5f614a026149fd836149e4565b61484d565b9050919050565b5f8160601c9050919050565b5f614a27614a2283614a09565b61484d565b9050919050565b5f8160681c9050919050565b5f614a4c614a4783614a2e565b61484d565b9050919050565b5f8160701c9050919050565b5f614a71614a6c83614a53565b61484d565b9050919050565b5f8160781c9050919050565b5f614a96614a9183614a78565b61484d565b9050919050565b5f8160801c9050919050565b5f614abb614ab683614a9d565b61484d565b9050919050565b5f8160881c9050919050565b5f614ae0614adb83614ac2565b61484d565b9050919050565b5f8160901c9050919050565b5f614b05614b0083614ae7565b61484d565b9050919050565b5f8160981c9050919050565b5f614b2a614b2583614b0c565b61484d565b9050919050565b5f8160a01c9050919050565b5f614b4f614b4a83614b31565b61484d565b9050919050565b5f8160a81c9050919050565b5f614b74614b6f83614b56565b61484d565b9050919050565b5f8160b01c9050919050565b5f614b99614b9483614b7b565b61484d565b9050919050565b5f8160b81c9050919050565b5f614bbe614bb983614ba0565b61484d565b9050919050565b5f8160c01c9050919050565b5f614be3614bde83614bc5565b61484d565b9050919050565b5f8160c81c9050919050565b5f614c08614c0383614bea565b61484d565b9050919050565b5f8160d01c9050919050565b5f614c2d614c2883614c0f565b61484d565b9050919050565b5f8160d81c9050919050565b5f614c52614c4d83614c34565b61484d565b9050919050565b5f8160e01c9050919050565b5f614c77614c7283614c59565b61484d565b9050919050565b5f8160e81c9050919050565b5f614c9c614c9783614c7e565b61484d565b9050919050565b5f8160f01c9050919050565b5f614cc1614cbc83614ca3565b61484d565b9050919050565b5f8160f81c9050919050565b5f614ce6614ce183614cc8565b61484d565b9050919050565b614cf68161482f565b614d0081846142a7565b925082614d0c83614839565b5f5f15615037575b83600160200382011015615036578154614d3687614d3183614859565b6142ba565b602087019650614d4e87614d498361487e565b6142ba565b602087019650614d6687614d61836148a3565b6142ba565b602087019650614d7e87614d79836148c8565b6142ba565b602087019650614d9687614d91836148ed565b6142ba565b602087019650614dae87614da983614912565b6142ba565b602087019650614dc687614dc183614937565b6142ba565b602087019650614dde87614dd98361495c565b6142ba565b602087019650614df687614df183614981565b6142ba565b602087019650614e0e87614e09836149a6565b6142ba565b602087019650614e2687614e21836149cb565b6142ba565b602087019650614e3e87614e39836149f0565b6142ba565b602087019650614e5687614e5183614a15565b6142ba565b602087019650614e6e87614e6983614a3a565b6142ba565b602087019650614e8687614e8183614a5f565b6142ba565b602087019650614e9e87614e9983614a84565b6142ba565b602087019650614eb687614eb183614aa9565b6142ba565b602087019650614ece87614ec983614ace565b6142ba565b602087019650614ee687614ee183614af3565b6142ba565b602087019650614efe87614ef983614b18565b6142ba565b602087019650614f1687614f1183614b3d565b6142ba565b602087019650614f2e87614f2983614b62565b6142ba565b602087019650614f4687614f4183614b87565b6142ba565b602087019650614f5e87614f5983614bac565b6142ba565b602087019650614f7687614f7183614bd1565b6142ba565b602087019650614f8e87614f8983614bf6565b6142ba565b602087019650614fa687614fa183614c1b565b6142ba565b602087019650614fbe87614fb983614c40565b6142ba565b602087019650614fd687614fd183614c65565b6142ba565b602087019650614fee87614fe983614c8a565b6142ba565b6020870196506150068761500183614caf565b6142ba565b60208701965061501e8761501983614cd4565b6142ba565b60208701965060018301925050602081019050614d14565b5b6001156154e4578154600115615066576150598761505483614859565b6142ba565b6020870196506001820191505b60011561508c5761507f8761507a8361487e565b6142ba565b6020870196506001820191505b5f156150b1576150a48761509f836148a3565b6142ba565b6020870196506001820191505b5f156150d6576150c9876150c4836148c8565b6142ba565b6020870196506001820191505b5f156150fb576150ee876150e9836148ed565b6142ba565b6020870196506001820191505b5f15615120576151138761510e83614912565b6142ba565b6020870196506001820191505b5f15615145576151388761513383614937565b6142ba565b6020870196506001820191505b5f1561516a5761515d876151588361495c565b6142ba565b6020870196506001820191505b5f1561518f576151828761517d83614981565b6142ba565b6020870196506001820191505b5f156151b4576151a7876151a2836149a6565b6142ba565b6020870196506001820191505b5f156151d9576151cc876151c7836149cb565b6142ba565b6020870196506001820191505b5f156151fe576151f1876151ec836149f0565b6142ba565b6020870196506001820191505b5f15615223576152168761521183614a15565b6142ba565b6020870196506001820191505b5f156152485761523b8761523683614a3a565b6142ba565b6020870196506001820191505b5f1561526d576152608761525b83614a5f565b6142ba565b6020870196506001820191505b5f15615292576152858761528083614a84565b6142ba565b6020870196506001820191505b5f156152b7576152aa876152a583614aa9565b6142ba565b6020870196506001820191505b5f156152dc576152cf876152ca83614ace565b6142ba565b6020870196506001820191505b5f15615301576152f4876152ef83614af3565b6142ba565b6020870196506001820191505b5f15615326576153198761531483614b18565b6142ba565b6020870196506001820191505b5f1561534b5761533e8761533983614b3d565b6142ba565b6020870196506001820191505b5f15615370576153638761535e83614b62565b6142ba565b6020870196506001820191505b5f15615395576153888761538383614b87565b6142ba565b6020870196506001820191505b5f156153ba576153ad876153a883614bac565b6142ba565b6020870196506001820191505b5f156153df576153d2876153cd83614bd1565b6142ba565b6020870196506001820191505b5f15615404576153f7876153f283614bf6565b6142ba565b6020870196506001820191505b5f156154295761541c8761541783614c1b565b6142ba565b6020870196506001820191505b5f1561544e576154418761543c83614c40565b6142ba565b6020870196506001820191505b5f15615473576154668761546183614c65565b6142ba565b6020870196506001820191505b5f156154985761548b8761548683614c8a565b6142ba565b6020870196506001820191505b5f156154bd576154b0876154ab83614caf565b6142ba565b6020870196506001820191505b5f156154e2576154d5876154d083614cd4565b6142ba565b6020870196506001820191505b505b505050505050565b5f6040820190506154ff5f830184614ced565b92915050565b5f81905092915050565b50565b5f61551d5f83615505565b91506155288261550f565b5f82019050919050565b5f61553c82615512565b9150819050919050565b5f81905092915050565b61555981614616565b6155638184615546565b925061556e8261462a565b805f5b8381101561559e57815161558587826142c9565b965061559083614633565b925050600181019050615571565b505050505050565b5f60a0820190506155b95f830184615550565b92915050565b7f4e487b71000000000000000000000000000000000000000000000000000000005f52602160045260245ffd5b5f819050919050565b6156066156018261406d565b6155ec565b82525050565b5f61561782886155f5565b60208201915061562782876155f5565b60208201915061563782866155f5565b60208201915061564782856155f5565b60208201915061565782846155f5565b6020820191508190509695505050505050565b5f8160f81b9050919050565b5f6156808261566a565b9050919050565b615698615693826140f3565b615676565b82525050565b5f6156a982856155f5565b6020820191506156b98284615687565b6001820191508190509392505050565b5f6156d3826140f3565b91506156de836140f3565b9250828201905060ff8111156156f7576156f6614787565b5b92915050565b7f4e487b71000000000000000000000000000000000000000000000000000000005f52601260045260245ffd5b5f6157348261406d565b915061573f8361406d565b92508261574f5761574e6156fd565b5b828206905092915050565b5f615764826140f3565b91505f820361577657615775614787565b5b600182039050919050565b5f61578b826140f3565b915060ff820361579e5761579d614787565b5b600182019050919050565b5f6157b38261406d565b91506157be8361406d565b92508282026157cc8161406d565b915082820484148315176157e3576157e2614787565b5b5092915050565b5f6157f48261406d565b91506157ff8361406d565b925082820390508181111561581757615816614787565b5b92915050565b5f6158278261406d565b91506158328361406d565b925082615842576158416156fd565b5b828204905092915050565b5f6158578261406d565b91506158628361406d565b925082820190508082111561587a57615879614787565b5b92915050565b5f82825260208201905092915050565b7f496e76616c6964206361726420696e64657800000000000000000000000000005f82015250565b5f6158c4601283615880565b91506158cf82615890565b602082019050919050565b5f6020820190508181035f8301526158f1816158b8565b9050919050565b5f615902826140f3565b915061590d836140f3565b92508261591d5761591c6156fd565b5b828206905092915050565b5f615932826140f3565b915061593d836140f3565b92508261594d5761594c6156fd565b5b82820490509291505056fea26469706673582212202653828ffbfa73914dcbeb7b96ee0cf22a3dbfe1f67f78774cba655327b0d38164736f6c634300081d0033",
  "linkReferences": {},
  "deployedLinkReferences": {},
  "immutableReferences": {},
  "inputSourceName": "project/contracts/SimpleTexasHoldem.sol",
  "buildInfoId": "solc-0_8_29-b0163e875b897a728fa864a5642dee70a5d7168a"
}