{
  "_format": "hh3-artifact-1",
  "contractName": "SimpleTexasHoldem",
  "sourceName": "contracts/SimpleTexasHoldem.sol",
  "abi": [
    {
      "inputs": [
        {
          "internalType": "address",
          "name": "_gameToken",
          "type": "address"
        }
      ],
      "stateMutability": "nonpayable",
      "type": "constructor"
    },
    {
      "inputs": [],
      "name": "AlreadyBet",
      "type": "error"
    },
    {
      "inputs": [],
      "name": "AlreadyParticipated",
      "type": "error"
    },
    {
      "inputs": [],
      "name": "ContractPaused",
      "type": "error"
    },
    {
      "inputs": [],
      "name": "DurationTooShort",
      "type": "error"
    },
    {
      "inputs": [],
      "name": "GameAlreadyActive",
      "type": "error"
    },
    {
      "inputs": [],
      "name": "GameFull",
      "type": "error"
    },
    {
      "inputs": [],
      "name": "JoinPeriodClosed",
      "type": "error"
    },
    {
      "inputs": [],
      "name": "MaxAttemptsReached",
      "type": "error"
    },
    {
      "inputs": [],
      "name": "MustBetSome",
      "type": "error"
    },
    {
      "inputs": [],
      "name": "MustJoinFirst",
      "type": "error"
    },
    {
      "inputs": [],
      "name": "NoActiveGame",
      "type": "error"
    },
    {
      "inputs": [],
      "name": "NoCardsRemaining",
      "type": "error"
    },
    {
      "inputs": [],
      "name": "NoCardsToReturn",
      "type": "error"
    },
    {
      "inputs": [],
      "name": "NoFees",
      "type": "error"
    },
    {
      "inputs": [],
      "name": "NoPlayers",
      "type": "error"
    },
    {
      "inputs": [],
      "name": "NoWinners",
      "type": "error"
    },
    {
      "inputs": [],
      "name": "NotEnoughCards",
      "type": "error"
    },
    {
      "inputs": [],
      "name": "NotEnoughPlayers",
      "type": "error"
    },
    {
      "inputs": [],
      "name": "NotInGame",
      "type": "error"
    },
    {
      "inputs": [
        {
          "internalType": "address",
          "name": "owner",
          "type": "address"
        }
      ],
      "name": "OwnableInvalidOwner",
      "type": "error"
    },
    {
      "inputs": [
        {
          "internalType": "address",
          "name": "account",
          "type": "address"
        }
      ],
      "name": "OwnableUnauthorizedAccount",
      "type": "error"
    },
    {
      "inputs": [],
      "name": "ReentrancyGuardReentrantCall",
      "type": "error"
    },
    {
      "inputs": [
        {
          "internalType": "address",
          "name": "token",
          "type": "address"
        }
      ],
      "name": "SafeERC20FailedOperation",
      "type": "error"
    },
    {
      "inputs": [],
      "name": "TransferFailed",
      "type": "error"
    },
    {
      "anonymous": false,
      "inputs": [
        {
          "indexed": true,
          "internalType": "uint256",
          "name": "gameId",
          "type": "uint256"
        },
        {
          "indexed": false,
          "internalType": "uint8[5]",
          "name": "boardCards",
          "type": "uint8[5]"
        }
      ],
      "name": "BoardCardsDealt",
      "type": "event"
    },
    {
      "anonymous": false,
      "inputs": [
        {
          "indexed": false,
          "internalType": "bool",
          "name": "gamePaused",
          "type": "bool"
        }
      ],
      "name": "EmergencyPauseToggled",
      "type": "event"
    },
    {
      "anonymous": false,
      "inputs": [
        {
          "indexed": true,
          "internalType": "uint256",
          "name": "gameId",
          "type": "uint256"
        },
        {
          "components": [
            {
              "internalType": "uint256",
              "name": "gameId",
              "type": "uint256"
            },
            {
              "internalType": "uint256",
              "name": "startTime",
              "type": "uint256"
            },
            {
              "internalType": "uint256",
              "name": "endTime",
              "type": "uint256"
            },
            {
              "internalType": "address[]",
              "name": "players",
              "type": "address[]"
            },
            {
              "internalType": "uint256[]",
              "name": "betAmounts",
              "type": "uint256[]"
            },
            {
              "internalType": "uint8[5]",
              "name": "boardCards",
              "type": "uint8[5]"
            },
            {
              "internalType": "address[]",
              "name": "winners",
              "type": "address[]"
            },
            {
              "internalType": "uint256",
              "name": "potPerWinner",
              "type": "uint256"
            },
            {
              "internalType": "uint256",
              "name": "houseFee",
              "type": "uint256"
            }
          ],
          "indexed": false,
          "internalType": "struct TexasHoldemConstants.GameResult",
          "name": "result",
          "type": "tuple"
        }
      ],
      "name": "GameEnded",
      "type": "event"
    },
    {
      "anonymous": false,
      "inputs": [
        {
          "indexed": true,
          "internalType": "uint256",
          "name": "gameId",
          "type": "uint256"
        },
        {
          "indexed": false,
          "internalType": "uint256",
          "name": "startTime",
          "type": "uint256"
        },
        {
          "indexed": false,
          "internalType": "uint256",
          "name": "endTime",
          "type": "uint256"
        }
      ],
      "name": "GameStarted",
      "type": "event"
    },
    {
      "anonymous": false,
      "inputs": [
        {
          "indexed": true,
          "internalType": "uint256",
          "name": "gameId",
          "type": "uint256"
        },
        {
          "indexed": false,
          "internalType": "uint256",
          "name": "amount",
          "type": "uint256"
        }
      ],
      "name": "HouseFeeWithdrawn",
      "type": "event"
    },
    {
      "anonymous": false,
      "inputs": [
        {
          "indexed": true,
          "internalType": "address",
          "name": "previousOwner",
          "type": "address"
        },
        {
          "indexed": true,
          "internalType": "address",
          "name": "newOwner",
          "type": "address"
        }
      ],
      "name": "OwnershipTransferred",
      "type": "event"
    },
    {
      "anonymous": false,
      "inputs": [
        {
          "indexed": true,
          "internalType": "uint256",
          "name": "gameId",
          "type": "uint256"
        },
        {
          "indexed": true,
          "internalType": "address",
          "name": "player",
          "type": "address"
        },
        {
          "indexed": false,
          "internalType": "uint256",
          "name": "amount",
          "type": "uint256"
        }
      ],
      "name": "PlayerBet",
      "type": "event"
    },
    {
      "anonymous": false,
      "inputs": [
        {
          "indexed": true,
          "internalType": "uint256",
          "name": "gameId",
          "type": "uint256"
        },
        {
          "indexed": true,
          "internalType": "address",
          "name": "player",
          "type": "address"
        },
        {
          "indexed": false,
          "internalType": "uint8[2]",
          "name": "returnedCards",
          "type": "uint8[2]"
        }
      ],
      "name": "PlayerFolded",
      "type": "event"
    },
    {
      "anonymous": false,
      "inputs": [
        {
          "indexed": true,
          "internalType": "uint256",
          "name": "gameId",
          "type": "uint256"
        },
        {
          "indexed": true,
          "internalType": "address",
          "name": "player",
          "type": "address"
        },
        {
          "indexed": false,
          "internalType": "uint8[2]",
          "name": "holeCards",
          "type": "uint8[2]"
        }
      ],
      "name": "PlayerJoined",
      "type": "event"
    },
    {
      "inputs": [],
      "name": "DECK_SIZE",
      "outputs": [
        {
          "internalType": "uint8",
          "name": "",
          "type": "uint8"
        }
      ],
      "stateMutability": "view",
      "type": "function"
    },
    {
      "inputs": [],
      "name": "HOUSE_FEE_PERCENTAGE",
      "outputs": [
        {
          "internalType": "uint256",
          "name": "",
          "type": "uint256"
        }
      ],
      "stateMutability": "view",
      "type": "function"
    },
    {
      "inputs": [],
      "name": "JOIN_CUTOFF",
      "outputs": [
        {
          "internalType": "uint256",
          "name": "",
          "type": "uint256"
        }
      ],
      "stateMutability": "view",
      "type": "function"
    },
    {
      "inputs": [],
      "name": "MAX_PLAYERS",
      "outputs": [
        {
          "internalType": "uint256",
          "name": "",
          "type": "uint256"
        }
      ],
      "stateMutability": "view",
      "type": "function"
    },
    {
      "inputs": [],
      "name": "MAX_TOTAL_PLAYERS",
      "outputs": [
        {
          "internalType": "uint256",
          "name": "",
          "type": "uint256"
        }
      ],
      "stateMutability": "view",
      "type": "function"
    },
    {
      "inputs": [],
      "name": "MIN_CARDS_REQUIRED",
      "outputs": [
        {
          "internalType": "uint256",
          "name": "",
          "type": "uint256"
        }
      ],
      "stateMutability": "view",
      "type": "function"
    },
    {
      "inputs": [],
      "name": "MIN_PLAYERS",
      "outputs": [
        {
          "internalType": "uint256",
          "name": "",
          "type": "uint256"
        }
      ],
      "stateMutability": "view",
      "type": "function"
    },
    {
      "inputs": [],
      "name": "accumulatedHouseFees",
      "outputs": [
        {
          "internalType": "uint256",
          "name": "",
          "type": "uint256"
        }
      ],
      "stateMutability": "view",
      "type": "function"
    },
    {
      "inputs": [],
      "name": "currentGameId",
      "outputs": [
        {
          "internalType": "uint256",
          "name": "",
          "type": "uint256"
        }
      ],
      "stateMutability": "view",
      "type": "function"
    },
    {
      "inputs": [],
      "name": "endGame",
      "outputs": [],
      "stateMutability": "nonpayable",
      "type": "function"
    },
    {
      "inputs": [],
      "name": "fold",
      "outputs": [],
      "stateMutability": "nonpayable",
      "type": "function"
    },
    {
      "inputs": [],
      "name": "gameActive",
      "outputs": [
        {
          "internalType": "bool",
          "name": "",
          "type": "bool"
        }
      ],
      "stateMutability": "view",
      "type": "function"
    },
    {
      "inputs": [],
      "name": "gamePaused",
      "outputs": [
        {
          "internalType": "bool",
          "name": "",
          "type": "bool"
        }
      ],
      "stateMutability": "view",
      "type": "function"
    },
    {
      "inputs": [],
      "name": "gameToken",
      "outputs": [
        {
          "internalType": "contract IERC20",
          "name": "",
          "type": "address"
        }
      ],
      "stateMutability": "view",
      "type": "function"
    },
    {
      "inputs": [],
      "name": "getCurrentGameInfo",
      "outputs": [
        {
          "internalType": "uint256",
          "name": "gameId",
          "type": "uint256"
        },
        {
          "internalType": "uint256",
          "name": "startTime",
          "type": "uint256"
        },
        {
          "internalType": "uint256",
          "name": "endTime",
          "type": "uint256"
        },
        {
          "internalType": "uint256",
          "name": "playerCount",
          "type": "uint256"
        },
        {
          "internalType": "uint256",
          "name": "totalParticipations",
          "type": "uint256"
        },
        {
          "internalType": "uint256",
          "name": "cardsRemaining",
          "type": "uint256"
        },
        {
          "internalType": "bool",
          "name": "isActive",
          "type": "bool"
        }
      ],
      "stateMutability": "view",
      "type": "function"
    },
    {
      "inputs": [],
      "name": "getGamePlayers",
      "outputs": [
        {
          "internalType": "address[]",
          "name": "players",
          "type": "address[]"
        }
      ],
      "stateMutability": "view",
      "type": "function"
    },
    {
      "inputs": [
        {
          "internalType": "address",
          "name": "player",
          "type": "address"
        }
      ],
      "name": "getPlayerInfo",
      "outputs": [
        {
          "internalType": "bool",
          "name": "hasParticipated",
          "type": "bool"
        },
        {
          "internalType": "bool",
          "name": "hasBet",
          "type": "bool"
        },
        {
          "internalType": "uint256",
          "name": "betAmount",
          "type": "uint256"
        },
        {
          "internalType": "uint8[2]",
          "name": "holeCards",
          "type": "uint8[2]"
        }
      ],
      "stateMutability": "view",
      "type": "function"
    },
    {
      "inputs": [],
      "name": "joinGame",
      "outputs": [],
      "stateMutability": "nonpayable",
      "type": "function"
    },
    {
      "inputs": [],
      "name": "owner",
      "outputs": [
        {
          "internalType": "address",
          "name": "",
          "type": "address"
        }
      ],
      "stateMutability": "view",
      "type": "function"
    },
    {
      "inputs": [
        {
          "internalType": "uint256",
          "name": "betAmount",
          "type": "uint256"
        }
      ],
      "name": "placeBet",
      "outputs": [],
      "stateMutability": "payable",
      "type": "function"
    },
    {
      "inputs": [],
      "name": "renounceOwnership",
      "outputs": [],
      "stateMutability": "nonpayable",
      "type": "function"
    },
    {
      "inputs": [
        {
          "internalType": "uint256",
          "name": "duration",
          "type": "uint256"
        }
      ],
      "name": "startGame",
      "outputs": [],
      "stateMutability": "nonpayable",
      "type": "function"
    },
    {
      "inputs": [],
      "name": "togglePause",
      "outputs": [],
      "stateMutability": "nonpayable",
      "type": "function"
    },
    {
      "inputs": [
        {
          "internalType": "address",
          "name": "newOwner",
          "type": "address"
        }
      ],
      "name": "transferOwnership",
      "outputs": [],
      "stateMutability": "nonpayable",
      "type": "function"
    },
    {
      "inputs": [],
      "name": "useEth",
      "outputs": [
        {
          "internalType": "bool",
          "name": "",
          "type": "bool"
        }
      ],
      "stateMutability": "view",
      "type": "function"
    },
    {
      "inputs": [],
      "name": "withdrawHouseFees",
      "outputs": [],
      "stateMutability": "nonpayable",
      "type": "function"
    }
  ],
  "bytecode": "0x608060405234801561000f575f5ffd5b50604051615fc1380380615fc1833981810160405281019061003191906102f9565b335f73ffffffffffffffffffffffffffffffffffffffff168173ffffffffffffffffffffffffffffffffffffffff16036100a2575f6040517f1e4fbdf70000000000000000000000000000000000000000000000000000000081526004016100999190610333565b60405180910390fd5b6100b1816101a860201b60201c565b5060016100d06100c561026960201b60201c565b61029260201b60201c565b5f01819055505f73ffffffffffffffffffffffffffffffffffffffff168173ffffffffffffffffffffffffffffffffffffffff16036101285760015f60146101000a81548160ff021916908315150217905550610182565b8060015f6101000a81548173ffffffffffffffffffffffffffffffffffffffff021916908373ffffffffffffffffffffffffffffffffffffffff1602179055505f5f60146101000a81548160ff0219169083151502179055505b5f6002819055505f5f60156101000a81548160ff0219169083151502179055505061034c565b5f5f5f9054906101000a900473ffffffffffffffffffffffffffffffffffffffff169050815f5f6101000a81548173ffffffffffffffffffffffffffffffffffffffff021916908373ffffffffffffffffffffffffffffffffffffffff1602179055508173ffffffffffffffffffffffffffffffffffffffff168173ffffffffffffffffffffffffffffffffffffffff167f8be0079c531659141344cd1fd0a4f28419497f9722a3daafe3b4186f6b6457e060405160405180910390a35050565b5f7f9b779b17422d0df92223018b32b4d1fa46e071723d6817e2486d003becc55f005f1b905090565b5f819050919050565b5f5ffd5b5f73ffffffffffffffffffffffffffffffffffffffff82169050919050565b5f6102c88261029f565b9050919050565b6102d8816102be565b81146102e2575f5ffd5b50565b5f815190506102f3816102cf565b92915050565b5f6020828403121561030e5761030d61029b565b5b5f61031b848285016102e5565b91505092915050565b61032d816102be565b82525050565b5f6020820190506103465f830184610324565b92915050565b615c68806103595f395ff3fe608060405260043610610180575f3560e01c80638da5cb5b116100d0578063c4ae316811610089578063e684f46a11610063578063e684f46a146104db578063f020044f146104f1578063f2fde38b1461051b578063f677b4d41461054357610180565b8063c4ae316814610487578063d4f77b1c1461049d578063e5ed1d59146104b357610180565b80638da5cb5b146103855780639b52474b146103af5780639f14bbed146103d9578063a645e84014610403578063c3de1ab914610433578063c3dfdae61461045d57610180565b8063593284011161013d5780636cbc2ded116101175780636cbc2ded14610305578063715018a61461031b57806385f07bbe146103315780638d744a241461035b57610180565b80635932840114610272578063595b533b146102b1578063663e1127146102db57610180565b806310fe7c4814610184578063177e6058146101a0578063395c197f146101ca5780634411b3eb146101f45780634c8b88a81461021e578063536a3ddc14610248575b5f5ffd5b61019e600480360381019061019991906142f8565b610559565b005b3480156101ab575f5ffd5b506101b4610964565b6040516101c19190614332565b60405180910390f35b3480156101d5575f5ffd5b506101de61096a565b6040516101eb9190614366565b60405180910390f35b3480156101ff575f5ffd5b5061020861096f565b6040516102159190614332565b60405180910390f35b348015610229575f5ffd5b50610232610974565b60405161023f9190614466565b60405180910390f35b348015610253575f5ffd5b5061025c610a01565b6040516102699190614332565b60405180910390f35b34801561027d575f5ffd5b50610298600480360381019061029391906144b0565b610a07565b6040516102a8949392919061459a565b60405180910390f35b3480156102bc575f5ffd5b506102c5610c05565b6040516102d29190614332565b60405180910390f35b3480156102e6575f5ffd5b506102ef610c0b565b6040516102fc9190614332565b60405180910390f35b348015610310575f5ffd5b50610319610c10565b005b348015610326575f5ffd5b5061032f610fa5565b005b34801561033c575f5ffd5b50610345610fb8565b6040516103529190614332565b60405180910390f35b348015610366575f5ffd5b5061036f610fbd565b60405161037c9190614332565b60405180910390f35b348015610390575f5ffd5b50610399610fc2565b6040516103a691906145ec565b60405180910390f35b3480156103ba575f5ffd5b506103c3610fe9565b6040516103d09190614605565b60405180910390f35b3480156103e4575f5ffd5b506103ed610ffb565b6040516103fa9190614332565b60405180910390f35b34801561040e575f5ffd5b50610417611000565b60405161042a979695949392919061461e565b60405180910390f35b34801561043e575f5ffd5b50610447611064565b6040516104549190614605565b60405180910390f35b348015610468575f5ffd5b50610471611076565b60405161047e91906146e6565b60405180910390f35b348015610492575f5ffd5b5061049b61109b565b005b3480156104a8575f5ffd5b506104b1611112565b005b3480156104be575f5ffd5b506104d960048036038101906104d491906142f8565b6114ab565b005b3480156104e6575f5ffd5b506104ef611626565b005b3480156104fc575f5ffd5b506105056118fb565b6040516105129190614605565b60405180910390f35b348015610526575f5ffd5b50610541600480360381019061053c91906144b0565b61190d565b005b34801561054e575f5ffd5b50610557611991565b005b5f60169054906101000a900460ff161561059f576040517fab35696f00000000000000000000000000000000000000000000000000000000815260040160405180910390fd5b5f60159054906101000a900460ff166105e4576040517f256d984000000000000000000000000000000000000000000000000000000000815260040160405180910390fd5b6105ec611a3d565b60056006015f3373ffffffffffffffffffffffffffffffffffffffff1673ffffffffffffffffffffffffffffffffffffffff1681526020019081526020015f205f9054906101000a900460ff1661066f576040517f456a578600000000000000000000000000000000000000000000000000000000815260040160405180910390fd5b5f60056004015f3373ffffffffffffffffffffffffffffffffffffffff1673ffffffffffffffffffffffffffffffffffffffff1681526020019081526020015f2060010154146106eb576040517fa820742e00000000000000000000000000000000000000000000000000000000815260040160405180910390fd5b5f5f60149054906101000a900460ff1615610741575f3403610739576040517fc288941e00000000000000000000000000000000000000000000000000000000815260040160405180910390fd5b3490506107cc565b5f820361077a576040517fc288941e00000000000000000000000000000000000000000000000000000000815260040160405180910390fd5b8190506107cb33308460015f9054906101000a900473ffffffffffffffffffffffffffffffffffffffff1673ffffffffffffffffffffffffffffffffffffffff16611a5f909392919063ffffffff16565b5b60056003015f3373ffffffffffffffffffffffffffffffffffffffff1673ffffffffffffffffffffffffffffffffffffffff1681526020019081526020015f2060056004015f3373ffffffffffffffffffffffffffffffffffffffff1673ffffffffffffffffffffffffffffffffffffffff1681526020019081526020015f205f0190600261085c929190614033565b508060056004015f3373ffffffffffffffffffffffffffffffffffffffff1673ffffffffffffffffffffffffffffffffffffffff1681526020019081526020015f20600101819055506005800133908060018154018082558091505060019003905f5260205f20015f9091909190916101000a81548173ffffffffffffffffffffffffffffffffffffffff021916908373ffffffffffffffffffffffffffffffffffffffff1602179055503373ffffffffffffffffffffffffffffffffffffffff166002547fd4378ef4558c1e2a851456fb0106171f67cc4bc8abe3f27346a47cc6010a291d836040516109509190614332565b60405180910390a350610961611ab4565b50565b60035481565b603481565b600981565b6060600580018054806020026020016040519081016040528092919081815260200182805480156109f757602002820191905f5260205f20905b815f9054906101000a900473ffffffffffffffffffffffffffffffffffffffff1673ffffffffffffffffffffffffffffffffffffffff16815260200190600101908083116109ae575b5050505050905090565b60025481565b5f5f5f610a1261407e565b60056006015f8673ffffffffffffffffffffffffffffffffffffffff1673ffffffffffffffffffffffffffffffffffffffff1681526020019081526020015f205f9054906101000a900460ff16935060056004015f8673ffffffffffffffffffffffffffffffffffffffff1673ffffffffffffffffffffffffffffffffffffffff1681526020019081526020015f206001015491505f821192508215610b5b5760056004015f8673ffffffffffffffffffffffffffffffffffffffff1673ffffffffffffffffffffffffffffffffffffffff1681526020019081526020015f205f01600280602002604051908101604052809291908260028015610b4f576020028201915f905b82829054906101000a900460ff1660ff16815260200190600101906020825f01049283019260010382029150808411610b195790505b50505050509050610bfe565b60056003015f8673ffffffffffffffffffffffffffffffffffffffff1673ffffffffffffffffffffffffffffffffffffffff1681526020019081526020015f20600280602002604051908101604052809291908260028015610bf6576020028201915f905b82829054906101000a900460ff1660ff16815260200190600101906020825f01049283019260010382029150808411610bc05790505b505050505090505b9193509193565b61012c81565b600181565b610c18611ace565b5f60169054906101000a900460ff1615610c5e576040517fab35696f00000000000000000000000000000000000000000000000000000000815260040160405180910390fd5b5f60159054906101000a900460ff16610ca3576040517f256d984000000000000000000000000000000000000000000000000000000000815260040160405180910390fd5b5f5f60156101000a81548160ff0219169083151502179055505f600580018054905090506002811015610f91575f5f90505b81811015610d87575f600580018281548110610cf457610cf36146ff565b5b905f5260205f20015f9054906101000a900473ffffffffffffffffffffffffffffffffffffffff1690505f60056004015f8373ffffffffffffffffffffffffffffffffffffffff1673ffffffffffffffffffffffffffffffffffffffff1681526020019081526020015f206001015490505f811115610d7857610d778282611b55565b5b50508080600101915050610cd5565b505f60405180610120016040528060025481526020016005600101548152602001600560020154815260200160058001805480602002602001604051908101604052809291908181526020018280548015610e3457602002820191905f5260205f20905b815f9054906101000a900473ffffffffffffffffffffffffffffffffffffffff1673ffffffffffffffffffffffffffffffffffffffff1681526020019060010190808311610deb575b505050505081526020015f67ffffffffffffffff811115610e5857610e5761472c565b5b604051908082528060200260200182016040528015610e865781602001602082028036833780820191505090505b5081526020016005600c01600580602002604051908101604052809291908260058015610eec576020028201915f905b82829054906101000a900460ff1660ff16815260200190600101906020825f01049283019260010382029150808411610eb65790505b505050505081526020015f67ffffffffffffffff811115610f1057610f0f61472c565b5b604051908082528060200260200182016040528015610f3e5781602001602082028036833780820191505090505b5081526020015f81526020015f81525090506002547f6078529d9020f865ca5321b152951664d06fe9f9ee87e29547bdb9994473da3a82604051610f8291906149cd565b60405180910390a25050610fa3565b610f99611c5f565b610fa1611d07565b505b565b610fad611ace565b610fb65f612100565b565b600281565b603281565b5f5f5f9054906101000a900473ffffffffffffffffffffffffffffffffffffffff16905090565b5f60149054906101000a900460ff1681565b600781565b5f5f5f5f5f5f5f60055f015460056001015460056002015460058001805490506005600801546005600b015f9054906101000a900460ff165f60159054906101000a900460ff168160ff169150965096509650965096509650965090919293949596565b5f60169054906101000a900460ff1681565b60015f9054906101000a900473ffffffffffffffffffffffffffffffffffffffff1681565b6110a3611ace565b5f60169054906101000a900460ff16155f60166101000a81548160ff0219169083151502179055507fb5838f871ddee4623a406029b1a0b6013e0ec30f2dc114307f21459a800a82965f60169054906101000a900460ff166040516111089190614605565b60405180910390a1565b5f60169054906101000a900460ff1615611158576040517fab35696f00000000000000000000000000000000000000000000000000000000815260040160405180910390fd5b5f60159054906101000a900460ff1661119d576040517f256d984000000000000000000000000000000000000000000000000000000000815260040160405180910390fd5b60056006015f3373ffffffffffffffffffffffffffffffffffffffff1673ffffffffffffffffffffffffffffffffffffffff1681526020019081526020015f205f9054906101000a900460ff1615611221576040517f22ce1a0700000000000000000000000000000000000000000000000000000000815260040160405180910390fd5b6009600580018054905010611262576040517fb3ed896d00000000000000000000000000000000000000000000000000000000815260040160405180910390fd5b6032600560080154106112a1576040517f2f9f4a5300000000000000000000000000000000000000000000000000000000815260040160405180910390fd5b60076005600b015f9054906101000a900460ff1660ff1610156112f0576040517fff0b9c2600000000000000000000000000000000000000000000000000000000815260040160405180910390fd5b61012c6005600201546113039190614a1a565b421061133b576040517f853996a100000000000000000000000000000000000000000000000000000000815260040160405180910390fd5b600160056006015f3373ffffffffffffffffffffffffffffffffffffffff1673ffffffffffffffffffffffffffffffffffffffff1681526020019081526020015f205f6101000a81548160ff021916908315150217905550600560070133908060018154018082558091505060019003905f5260205f20015f9091909190916101000a81548173ffffffffffffffffffffffffffffffffffffffff021916908373ffffffffffffffffffffffffffffffffffffffff16021790555060056008015f81548092919061140b90614a4d565b9190505550611419336121c1565b3373ffffffffffffffffffffffffffffffffffffffff166002547fda4052de60f6327b7721a5aca5ede61d65afb7917b4e83024e3c36bb247bf11b60056003015f3373ffffffffffffffffffffffffffffffffffffffff1673ffffffffffffffffffffffffffffffffffffffff1681526020019081526020015f206040516114a19190615751565b60405180910390a3565b6114b3611ace565b5f60169054906101000a900460ff16156114f9576040517fab35696f00000000000000000000000000000000000000000000000000000000815260040160405180910390fd5b5f60159054906101000a900460ff161561153f576040517f91c183df00000000000000000000000000000000000000000000000000000000815260040160405180910390fd5b61012c811161157a576040517f25c3636700000000000000000000000000000000000000000000000000000000815260040160405180910390fd5b611582612276565b60025f81548092919061159490614a4d565b919050555060025460055f01819055504260056001018190555080426115ba919061576a565b6005600201819055506002547fedb371157a97763aaa1b348e6811cbb8c9eb299aaf93a6f5ba91f312bcb40fcf60056001015460056002015460405161160192919061579d565b60405180910390a260015f60156101000a81548160ff02191690831515021790555050565b5f60169054906101000a900460ff161561166c576040517fab35696f00000000000000000000000000000000000000000000000000000000815260040160405180910390fd5b5f60159054906101000a900460ff166116b1576040517f256d984000000000000000000000000000000000000000000000000000000000815260040160405180910390fd5b60056006015f3373ffffffffffffffffffffffffffffffffffffffff1673ffffffffffffffffffffffffffffffffffffffff1681526020019081526020015f205f9054906101000a900460ff16611734576040517f43050d9600000000000000000000000000000000000000000000000000000000815260040160405180910390fd5b5f60056004015f3373ffffffffffffffffffffffffffffffffffffffff1673ffffffffffffffffffffffffffffffffffffffff1681526020019081526020015f2060010154146117b0576040517fa820742e00000000000000000000000000000000000000000000000000000000815260040160405180910390fd5b5f60056003015f3373ffffffffffffffffffffffffffffffffffffffff1673ffffffffffffffffffffffffffffffffffffffff1681526020019081526020015f2060028060200260405190810160405280929190826002801561184c576020028201915f905b82829054906101000a900460ff1660ff16815260200190600101906020825f010492830192600103820291508084116118165790505b5050505050905061185c3361248d565b60056003015f3373ffffffffffffffffffffffffffffffffffffffff1673ffffffffffffffffffffffffffffffffffffffff1681526020019081526020015f205f6118a791906140a0565b3373ffffffffffffffffffffffffffffffffffffffff166002547f0b2f59ffaabdec31e4cadf25ba0d9984d4e852c62825c29bcb99461a4ba16603836040516118f091906157c4565b60405180910390a350565b5f60159054906101000a900460ff1681565b611915611ace565b5f73ffffffffffffffffffffffffffffffffffffffff168173ffffffffffffffffffffffffffffffffffffffff1603611985575f6040517f1e4fbdf700000000000000000000000000000000000000000000000000000000815260040161197c91906145ec565b60405180910390fd5b61198e81612100565b50565b611999611ace565b6119a1611a3d565b5f60035490505f81036119e0576040517f7f7d9be000000000000000000000000000000000000000000000000000000000815260040160405180910390fd5b5f6003819055506119f86119f2610fc2565b82611b55565b6002547f3a63405103d4b6408f488200be612649ae784f617455c9eddd22a5a1a57cf22e82604051611a2a9190614332565b60405180910390a250611a3b611ab4565b565b611a4561268a565b6002611a57611a526126cb565b6126f4565b5f0181905550565b611a6d8484848460016126fd565b611aae57836040517f5274afe7000000000000000000000000000000000000000000000000000000008152600401611aa591906145ec565b60405180910390fd5b50505050565b6001611ac6611ac16126cb565b6126f4565b5f0181905550565b611ad661276e565b73ffffffffffffffffffffffffffffffffffffffff16611af4610fc2565b73ffffffffffffffffffffffffffffffffffffffff1614611b5357611b1761276e565b6040517f118cdaa7000000000000000000000000000000000000000000000000000000008152600401611b4a91906145ec565b60405180910390fd5b565b5f60149054906101000a900460ff1615611c0e575f8273ffffffffffffffffffffffffffffffffffffffff1682604051611b8e9061580a565b5f6040518083038185875af1925050503d805f8114611bc8576040519150601f19603f3d011682016040523d82523d5f602084013e611bcd565b606091505b5050905080611c08576040517f90b8ec1800000000000000000000000000000000000000000000000000000000815260040160405180910390fd5b50611c5b565b611c5a828260015f9054906101000a900473ffffffffffffffffffffffffffffffffffffffff1673ffffffffffffffffffffffffffffffffffffffff166127759092919063ffffffff16565b5b5050565b611c676140a6565b5f5f90505b60058160ff161015611cb457611c806127c8565b828260ff1660058110611c9657611c956146ff565b5b602002019060ff16908160ff16815250508080600101915050611c6c565b50806005600c01906005611cc99291906140c8565b506002547f8c37d66c1438d0136c01897f708325c15c0745298af95fe439f7d416ef1f9cfe82604051611cfc919061587e565b60405180910390a250565b5f600580018054905090506002811015611d4d576040517ff770074300000000000000000000000000000000000000000000000000000000815260040160405180910390fd5b5f5f611d576129b4565b91509150816005600d0181905550611d6e81612ae1565b5f5f90505f5f90505f5f90505b85811015612068575f600580018281548110611d9a57611d996146ff565b5b905f5260205f20015f9054906101000a900473ffffffffffffffffffffffffffffffffffffffff1690505f5f611ed560056004015f8573ffffffffffffffffffffffffffffffffffffffff1673ffffffffffffffffffffffffffffffffffffffff1681526020019081526020015f205f01600280602002604051908101604052809291908260028015611e66576020028201915f905b82829054906101000a900460ff1660ff16815260200190600101906020825f01049283019260010382029150808411611e305790505b50505050506005600c01600580602002604051908101604052809291908260058015611ecb576020028201915f905b82829054906101000a900460ff1660ff16815260200190600101906020825f01049283019260010382029150808411611e955790505b5050505050612bb3565b91509150856008811115611eec57611eeb615897565b5b826008811115611eff57611efe615897565b5b1180611f395750856008811115611f1957611f18615897565b5b826008811115611f2c57611f2b615897565b5b148015611f3857508481115b5b15611fbc578195508094506005600e015f611f54919061415f565b6005600e0183908060018154018082558091505060019003905f5260205f20015f9091909190916101000a81548173ffffffffffffffffffffffffffffffffffffffff021916908373ffffffffffffffffffffffffffffffffffffffff160217905550612058565b856008811115611fcf57611fce615897565b5b826008811115611fe257611fe1615897565b5b148015611fee57508481145b15612057576005600e0183908060018154018082558091505060019003905f5260205f20015f9091909190916101000a81548173ffffffffffffffffffffffffffffffffffffffff021916908373ffffffffffffffffffffffffffffffffffffffff1602179055505b5b5050508080600101915050611d7b565b506120f96005600e018054806020026020016040519081016040528092919081815260200182805480156120ee57602002820191905f5260205f20905b815f9054906101000a900473ffffffffffffffffffffffffffffffffffffffff1673ffffffffffffffffffffffffffffffffffffffff16815260200190600101908083116120a5575b505050505085612bca565b5050505050565b5f5f5f9054906101000a900473ffffffffffffffffffffffffffffffffffffffff169050815f5f6101000a81548173ffffffffffffffffffffffffffffffffffffffff021916908373ffffffffffffffffffffffffffffffffffffffff1602179055508173ffffffffffffffffffffffffffffffffffffffff168173ffffffffffffffffffffffffffffffffffffffff167f8be0079c531659141344cd1fd0a4f28419497f9722a3daafe3b4186f6b6457e060405160405180910390a35050565b6121c961407e565b6121d16127c8565b815f600281106121e4576121e36146ff565b5b602002019060ff16908160ff16815250506121fd6127c8565b81600160028110612211576122106146ff565b5b602002019060ff16908160ff16815250508060056003015f8473ffffffffffffffffffffffffffffffffffffffff1673ffffffffffffffffffffffffffffffffffffffff1681526020019081526020015f2090600261227192919061417d565b505050565b5f5f90505b6005600701805490508110156123cd575f600560070182815481106122a3576122a26146ff565b5b905f5260205f20015f9054906101000a900473ffffffffffffffffffffffffffffffffffffffff16905060056003015f8273ffffffffffffffffffffffffffffffffffffffff1673ffffffffffffffffffffffffffffffffffffffff1681526020019081526020015f205f61231891906140a0565b60056004015f8273ffffffffffffffffffffffffffffffffffffffff1673ffffffffffffffffffffffffffffffffffffffff1681526020019081526020015f205f5f82015f61236791906140a0565b600182015f9055505060056006015f8273ffffffffffffffffffffffffffffffffffffffff1673ffffffffffffffffffffffffffffffffffffffff1681526020019081526020015f205f6101000a81549060ff021916905550808060010191505061227b565b5060056007015f6123de919061415f565b600580015f6123ed919061415f565b6005600e015f6123fd919061415f565b5f60056008018190555060346005600b015f6101000a81548160ff021916908360ff1602179055505f6005600d01819055505f5f90505b603460ff168160ff16101561248a575f60056009018260ff166034811061245e5761245d6146ff565b5b602091828204019190066101000a81548160ff0219169083151502179055508080600101915050612434565b50565b5f60056003015f8373ffffffffffffffffffffffffffffffffffffffff1673ffffffffffffffffffffffffffffffffffffffff1681526020019081526020015f20600280602002604051908101604052809291908260028015612529576020028201915f905b82829054906101000a900460ff1660ff16815260200190600101906020825f010492830192600103820291508084116124f35790505b505050505090505f815f60028110612544576125436146ff565b5b602002015160ff1614801561257357505f81600160028110612569576125686146ff565b5b602002015160ff16145b156125aa576040517faab7da5100000000000000000000000000000000000000000000000000000000815260040160405180910390fd5b5f6005600901825f600281106125c3576125c26146ff565b5b602002015160ff16603481106125dc576125db6146ff565b5b602091828204019190066101000a81548160ff0219169083151502179055505f600560090182600160028110612615576126146146ff565b5b602002015160ff166034811061262e5761262d6146ff565b5b602091828204019190066101000a81548160ff02191690831515021790555060026005600b015f8282829054906101000a900460ff1661266e91906158c4565b92506101000a81548160ff021916908360ff1602179055505050565b612692612cee565b156126c9576040517f3ee5aeb500000000000000000000000000000000000000000000000000000000815260040160405180910390fd5b565b5f7f9b779b17422d0df92223018b32b4d1fa46e071723d6817e2486d003becc55f005f1b905090565b5f819050919050565b5f5f6323b872dd60e01b9050604051815f525f1960601c87166004525f1960601c86166024528460445260205f60645f5f8c5af1925060015f5114831661275b57838315161561274f573d5f823e3d81fd5b5f883b113d1516831692505b806040525f606052505095945050505050565b5f33905090565b6127828383836001612d0a565b6127c357826040517f5274afe70000000000000000000000000000000000000000000000000000000081526004016127ba91906145ec565b60405180910390fd5b505050565b5f5f6005600b015f9054906101000a900460ff1660ff1603612816576040517fb5ea5abf00000000000000000000000000000000000000000000000000000000815260040160405180910390fd5b5f42443360045f81548092919061282c90614a4d565b91905055604051602001612843949392919061595d565b604051602081830303815290604052805190602001205f1c90505f5f90505b603460ff16811015612976575f603460ff168361287f91906159d7565b905060056009018160ff166034811061289b5761289a6146ff565b5b602091828204019190069054906101000a900460ff1661293557600160056009018260ff16603481106128d1576128d06146ff565b5b602091828204019190066101000a81548160ff0219169083151502179055506005600b015f81819054906101000a900460ff168092919061291190615a07565b91906101000a81548160ff021916908360ff160217905550508093505050506129b1565b8282604051602001612948929190615a2e565b604051602081830303815290604052805190602001205f1c9250818061296d90614a4d565b92505050612862565b6040517f08c379a00000000000000000000000000000000000000000000000000000000081526004016129a890615ab3565b60405180910390fd5b90565b5f5f5f600580018054905090505f81036129fa576040517fdff55bfb00000000000000000000000000000000000000000000000000000000815260040160405180910390fd5b7fffffffffffffffffffffffffffffffffffffffffffffffffffffffffffffffff91505f5f90505b81811015612acd575f600580018281548110612a4157612a406146ff565b5b905f5260205f20015f9054906101000a900473ffffffffffffffffffffffffffffffffffffffff1690505f60056004015f8373ffffffffffffffffffffffffffffffffffffffff1673ffffffffffffffffffffffffffffffffffffffff1681526020019081526020015f2060010154905084811015612abe578094505b50508080600101915050612a22565b508082612ada9190615ad1565b9250509091565b5f5f90505b6005800180549050811015612baf575f600580018281548110612b0c57612b0b6146ff565b5b905f5260205f20015f9054906101000a900473ffffffffffffffffffffffffffffffffffffffff1690505f60056004015f8373ffffffffffffffffffffffffffffffffffffffff1673ffffffffffffffffffffffffffffffffffffffff1681526020019081526020015f2060010154905083811115612ba0575f8482612b929190614a1a565b9050612b9e8382611b55565b505b50508080600101915050612ae6565b5050565b5f5f612bbf8484612d6c565b915091509250929050565b5f825103612c04576040517f3728feb300000000000000000000000000000000000000000000000000000000815260040160405180910390fd5b5f6064600183612c149190615ad1565b612c1e9190615b12565b90505f8183612c2d9190614a1a565b90505f845182612c3d9190615b12565b90508260035f828254612c50919061576a565b92505081905550826005600f01819055505f5f90505b8551811015612ca057612c93868281518110612c8557612c846146ff565b5b602002602001015183611b55565b8080600101915050612c66565b505f612caa612fdb565b90506002547f6078529d9020f865ca5321b152951664d06fe9f9ee87e29547bdb9994473da3a82604051612cde91906149cd565b60405180910390a2505050505050565b5f6002612d01612cfc6126cb565b6126f4565b5f015414905090565b5f5f63a9059cbb60e01b9050604051815f525f1960601c86166004528460245260205f60445f5f8b5af1925060015f51148316612d5e578383151615612d52573d5f823e3d81fd5b5f873b113d1516831692505b806040525050949350505050565b5f5f612d76614214565b845f60028110612d8957612d886146ff565b5b6020020151815f60078110612da157612da06146ff565b5b602002019060ff16908160ff168152505084600160028110612dc657612dc56146ff565b5b602002015181600160078110612ddf57612dde6146ff565b5b602002019060ff16908160ff16815250505f5f90505b60058160ff161015612e5c57848160ff1660058110612e1757612e166146ff565b5b602002015182600283612e2a91906158c4565b60ff1660078110612e3e57612e3d6146ff565b5b602002019060ff16908160ff16815250508080600101915050612df5565b505f5f90505f5f90505f5f90505b60078160ff161015612fca575f600182612e8491906158c4565b90505b60078160ff161015612fbc57612e9b6140a6565b5f5f90505f5f90505b60078160ff161015612f2f578460ff168160ff1614158015612ecc57508360ff168160ff1614155b15612f2257878160ff1660078110612ee757612ee66146ff565b5b6020020151838360ff1660058110612f0257612f016146ff565b5b602002019060ff16908160ff16815250508180612f1e90615b42565b9250505b8080600101915050612ea4565b505f5f612f3b84613302565b91509150876008811115612f5257612f51615897565b5b826008811115612f6557612f64615897565b5b1180612f9f5750876008811115612f7f57612f7e615897565b5b826008811115612f9257612f91615897565b5b148015612f9e57508681115b5b15612fab578197508096505b505050508080600101915050612e87565b508080600101915050612e6a565b508181945094505050509250929050565b612fe3614236565b5f600580018054905090505f8167ffffffffffffffff8111156130095761300861472c565b5b6040519080825280602002602001820160405280156130375781602001602082028036833780820191505090505b5090505f5f90505b828110156130f45760056004015f600580018381548110613063576130626146ff565b5b905f5260205f20015f9054906101000a900473ffffffffffffffffffffffffffffffffffffffff1673ffffffffffffffffffffffffffffffffffffffff1673ffffffffffffffffffffffffffffffffffffffff1681526020019081526020015f20600101548282815181106130db576130da6146ff565b5b602002602001018181525050808060010191505061303f565b505f5f90505f6005600e0180549050111561313a575f6005600f01546005600d01546131209190614a1a565b90506005600e0180549050816131369190615b12565b9150505b604051806101200160405280600254815260200160056001015481526020016005600201548152602001600580018054806020026020016040519081016040528092919081815260200182805480156131e557602002820191905f5260205f20905b815f9054906101000a900473ffffffffffffffffffffffffffffffffffffffff1673ffffffffffffffffffffffffffffffffffffffff168152602001906001019080831161319c575b505050505081526020018381526020016005600c01600580602002604051908101604052809291908260058015613255576020028201915f905b82829054906101000a900460ff1660ff16815260200190600101906020825f0104928301926001038202915080841161321f5790505b505050505081526020016005600e018054806020026020016040519081016040528092919081815260200182805480156132e157602002820191905f5260205f20905b815f9054906101000a900473ffffffffffffffffffffffffffffffffffffffff1673ffffffffffffffffffffffffffffffffffffffff1681526020019060010190808311613298575b505050505081526020018281526020016005600f0154815250935050505090565b5f5f61330c6140a6565b6133146140a6565b5f5f90505b60058160ff1610156133c657613348868260ff166005811061333e5761333d6146ff565b5b6020020151613c4d565b838260ff166005811061335e5761335d6146ff565b5b602002019060ff16908160ff1681525050613392868260ff1660058110613388576133876146ff565b5b6020020151613cb4565b828260ff16600581106133a8576133a76146ff565b5b602002019060ff16908160ff16815250508080600101915050613319565b506133d082613d0f565b5f816001600581106133e5576133e46146ff565b5b602002015160ff16825f60058110613400576133ff6146ff565b5b602002015160ff1614801561344a575081600260058110613424576134236146ff565b5b602002015160ff16826001600581106134405761343f6146ff565b5b602002015160ff16145b801561348b575081600360058110613465576134646146ff565b5b602002015160ff1682600260058110613481576134806146ff565b5b602002015160ff16145b80156134cc5750816004600581106134a6576134a56146ff565b5b602002015160ff16826003600581106134c2576134c16146ff565b5b602002015160ff16145b90505f6134d884613e28565b90506134e2614283565b5f5f90505b60058160ff16101561354c5781868260ff166005811061350a576135096146ff565b5b602002015160ff16600f8110613523576135226146ff565b5b60200201805180919061353590615b42565b60ff1660ff168152505080806001019150506134e7565b505f5f90505f5f90505f5f90505f5f90505f5f90505f600e90505b60028160ff1610613638576004878260ff16600f811061358a576135896146ff565b5b602002015160ff160361359b578095505b6003878260ff16600f81106135b3576135b26146ff565b5b602002015160ff16036135c4578094505b6002878260ff16600f81106135dc576135db6146ff565b5b602002015160ff1603613619575f8360ff16036135fb5780925061360a565b5f8260ff1603613609578091505b5b838061361590615b42565b9450505b60028160ff16031561363857808061363090615a07565b915050613567565b508680156136435750875b156136885760086402540be4008b5f60058110613663576136626146ff565b5b602002015160ff166136759190615ad1565b9b509b5050505050505050505050613c48565b5f8560ff161115613733575f5f90505f5f90505b60058160ff1610156136fa578660ff168c8260ff16600581106136c2576136c16146ff565b5b602002015160ff16146136ed578b8160ff16600581106136e5576136e46146ff565b5b602002015191505b808060010191505061369c565b5060078160ff166402540be4008860ff166137159190615ad1565b61371f919061576a565b9c509c505050505050505050505050613c48565b5f8460ff1611801561374757505f8360ff16115b156137835760068260ff166402540be4008660ff166137669190615ad1565b613770919061576a565b9b509b5050505050505050505050613c48565b871561388b5760058a60046005811061379f5761379e6146ff565b5b602002015160ff166127108c6003600581106137be576137bd6146ff565b5b602002015160ff166137d09190615ad1565b620f42408d6002600581106137e8576137e76146ff565b5b602002015160ff166137fa9190615ad1565b6305f5e1008e600160058110613813576138126146ff565b5b602002015160ff166138259190615ad1565b6402540be4008f5f6005811061383e5761383d6146ff565b5b602002015160ff166138509190615ad1565b61385a919061576a565b613864919061576a565b61386e919061576a565b613878919061576a565b9b509b5050505050505050505050613c48565b86156138d15760046402540be4008b5f600581106138ac576138ab6146ff565b5b602002015160ff166138be9190615ad1565b9b509b5050505050505050505050613c48565b5f8460ff161115613993575f5f90505f5f90505b60058160ff16101561395d578560ff168c8260ff166005811061390b5761390a6146ff565b5b602002015160ff1614613950578b8160ff166005811061392e5761392d6146ff565b5b602002015160ff166064836139439190615ad1565b61394d919061576a565b91505b80806001019150506138e5565b506003816402540be4008760ff166139759190615ad1565b61397f919061576a565b9c509c505050505050505050505050613c48565b60028360ff1603613a89575f5f90505f5f90505b60058160ff161015613a33578360ff168c8260ff16600581106139cd576139cc6146ff565b5b602002015160ff1614158015613a0357508260ff168c8260ff16600581106139f8576139f76146ff565b5b602002015160ff1614155b15613a26578b8160ff1660058110613a1e57613a1d6146ff565b5b602002015191505b80806001019150506139a7565b5060028160ff166305f5e1008460ff16613a4d9190615ad1565b6402540be4008660ff16613a619190615ad1565b613a6b919061576a565b613a75919061576a565b9c509c505050505050505050505050613c48565b60018360ff1603613b4b575f5f90505f5f90505b60058160ff161015613b15578360ff168c8260ff1660058110613ac357613ac26146ff565b5b602002015160ff1614613b08578b8160ff1660058110613ae657613ae56146ff565b5b602002015160ff16606483613afb9190615ad1565b613b05919061576a565b91505b8080600101915050613a9d565b506001816402540be4008560ff16613b2d9190615ad1565b613b37919061576a565b9c509c505050505050505050505050613c48565b5f8a600460058110613b6057613b5f6146ff565b5b602002015160ff166127108c600360058110613b7f57613b7e6146ff565b5b602002015160ff16613b919190615ad1565b620f42408d600260058110613ba957613ba86146ff565b5b602002015160ff16613bbb9190615ad1565b6305f5e1008e600160058110613bd457613bd36146ff565b5b602002015160ff16613be69190615ad1565b6402540be4008f5f60058110613bff57613bfe6146ff565b5b602002015160ff16613c119190615ad1565b613c1b919061576a565b613c25919061576a565b613c2f919061576a565b613c39919061576a565b9b509b50505050505050505050505b915091565b5f60348260ff1610613c94576040517f08c379a0000000000000000000000000000000000000000000000000000000008152600401613c8b90615bb4565b60405180910390fd5b6002600d83613ca39190615bd2565b613cad91906158c4565b9050919050565b5f60348260ff1610613cfb576040517f08c379a0000000000000000000000000000000000000000000000000000000008152600401613cf290615bb4565b60405180910390fd5b600d82613d089190615c02565b9050919050565b5f5f90505b60058160ff161015613e24575f600182613d2e91906158c4565b90505b60058160ff161015613e1657828260ff1660058110613d5357613d526146ff565b5b602002015160ff16838260ff1660058110613d7157613d706146ff565b5b602002015160ff161115613e09575f838360ff1660058110613d9657613d956146ff565b5b60200201519050838260ff1660058110613db357613db26146ff565b5b6020020151848460ff1660058110613dce57613dcd6146ff565b5b602002019060ff16908160ff168152505080848360ff1660058110613df657613df56146ff565b5b602002019060ff16908160ff1681525050505b8080600101915050613d31565b508080600101915050613d14565b5050565b5f600182600160058110613e3f57613e3e6146ff565b5b6020020151613e4e91906158c4565b60ff16825f60058110613e6457613e636146ff565b5b602002015160ff16148015613eba5750600182600260058110613e8a57613e896146ff565b5b6020020151613e9991906158c4565b60ff1682600160058110613eb057613eaf6146ff565b5b602002015160ff16145b8015613f075750600182600360058110613ed757613ed66146ff565b5b6020020151613ee691906158c4565b60ff1682600260058110613efd57613efc6146ff565b5b602002015160ff16145b8015613f545750600182600460058110613f2457613f236146ff565b5b6020020151613f3391906158c4565b60ff1682600360058110613f4a57613f496146ff565b5b602002015160ff16145b15613f62576001905061402e565b600e825f60058110613f7757613f766146ff565b5b602002015160ff16148015613fa75750600582600160058110613f9d57613f9c6146ff565b5b602002015160ff16145b8015613fce5750600482600260058110613fc457613fc36146ff565b5b602002015160ff16145b8015613ff55750600382600360058110613feb57613fea6146ff565b5b602002015160ff16145b801561401c5750600282600460058110614012576140116146ff565b5b602002015160ff16145b1561402a576001905061402e565b5f90505b919050565b826002601f0160209004810192821561406d5791601f016020900482015b8281111561406c578254825591600101919060010190614051565b5b50905061407a91906142a6565b5090565b6040518060400160405280600290602082028036833780820191505090505090565b505f9055565b6040518060a00160405280600590602082028036833780820191505090505090565b826005601f0160209004810192821561414e579160200282015f5b8382111561412057835183826101000a81548160ff021916908360ff16021790555092602001926001016020815f010492830192600103026140e3565b801561414c5782816101000a81549060ff02191690556001016020815f01049283019260010302614120565b505b50905061415b91906142a6565b5090565b5080545f8255905f5260205f209081019061417a91906142a6565b50565b826002601f01602090048101928215614203579160200282015f5b838211156141d557835183826101000a81548160ff021916908360ff16021790555092602001926001016020815f01049283019260010302614198565b80156142015782816101000a81549060ff02191690556001016020815f010492830192600103026141d5565b505b50905061421091906142a6565b5090565b6040518060e00160405280600790602082028036833780820191505090505090565b6040518061012001604052805f81526020015f81526020015f8152602001606081526020016060815260200161426a6140a6565b8152602001606081526020015f81526020015f81525090565b604051806101e00160405280600f90602082028036833780820191505090505090565b5b808211156142bd575f815f9055506001016142a7565b5090565b5f5ffd5b5f819050919050565b6142d7816142c5565b81146142e1575f5ffd5b50565b5f813590506142f2816142ce565b92915050565b5f6020828403121561430d5761430c6142c1565b5b5f61431a848285016142e4565b91505092915050565b61432c816142c5565b82525050565b5f6020820190506143455f830184614323565b92915050565b5f60ff82169050919050565b6143608161434b565b82525050565b5f6020820190506143795f830184614357565b92915050565b5f81519050919050565b5f82825260208201905092915050565b5f819050602082019050919050565b5f73ffffffffffffffffffffffffffffffffffffffff82169050919050565b5f6143d1826143a8565b9050919050565b6143e1816143c7565b82525050565b5f6143f283836143d8565b60208301905092915050565b5f602082019050919050565b5f6144148261437f565b61441e8185614389565b935061442983614399565b805f5b8381101561445957815161444088826143e7565b975061444b836143fe565b92505060018101905061442c565b5085935050505092915050565b5f6020820190508181035f83015261447e818461440a565b905092915050565b61448f816143c7565b8114614499575f5ffd5b50565b5f813590506144aa81614486565b92915050565b5f602082840312156144c5576144c46142c1565b5b5f6144d28482850161449c565b91505092915050565b5f8115159050919050565b6144ef816144db565b82525050565b5f60029050919050565b5f81905092915050565b5f819050919050565b61451b8161434b565b82525050565b5f61452c8383614512565b60208301905092915050565b5f602082019050919050565b61454d816144f5565b61455781846144ff565b925061456282614509565b805f5b838110156145925781516145798782614521565b965061458483614538565b925050600181019050614565565b505050505050565b5f60a0820190506145ad5f8301876144e6565b6145ba60208301866144e6565b6145c76040830185614323565b6145d46060830184614544565b95945050505050565b6145e6816143c7565b82525050565b5f6020820190506145ff5f8301846145dd565b92915050565b5f6020820190506146185f8301846144e6565b92915050565b5f60e0820190506146315f83018a614323565b61463e6020830189614323565b61464b6040830188614323565b6146586060830187614323565b6146656080830186614323565b61467260a0830185614323565b61467f60c08301846144e6565b98975050505050505050565b5f819050919050565b5f6146ae6146a96146a4846143a8565b61468b565b6143a8565b9050919050565b5f6146bf82614694565b9050919050565b5f6146d0826146b5565b9050919050565b6146e0816146c6565b82525050565b5f6020820190506146f95f8301846146d7565b92915050565b7f4e487b71000000000000000000000000000000000000000000000000000000005f52603260045260245ffd5b7f4e487b71000000000000000000000000000000000000000000000000000000005f52604160045260245ffd5b614762816142c5565b82525050565b5f82825260208201905092915050565b5f6147828261437f565b61478c8185614768565b935061479783614399565b805f5b838110156147c75781516147ae88826143e7565b97506147b9836143fe565b92505060018101905061479a565b5085935050505092915050565b5f81519050919050565b5f82825260208201905092915050565b5f819050602082019050919050565b5f6148088383614759565b60208301905092915050565b5f602082019050919050565b5f61482a826147d4565b61483481856147de565b935061483f836147ee565b805f5b8381101561486f57815161485688826147fd565b975061486183614814565b925050600181019050614842565b5085935050505092915050565b5f60059050919050565b5f81905092915050565b5f819050919050565b5f602082019050919050565b6148ae8161487c565b6148b88184614886565b92506148c382614890565b805f5b838110156148f35781516148da8782614521565b96506148e583614899565b9250506001810190506148c6565b505050505050565b5f6101a083015f8301516149115f860182614759565b5060208301516149246020860182614759565b5060408301516149376040860182614759565b506060830151848203606086015261494f8282614778565b915050608083015184820360808601526149698282614820565b91505060a083015161497e60a08601826148a5565b5060c08301518482036101408601526149978282614778565b91505060e08301516149ad610160860182614759565b506101008301516149c2610180860182614759565b508091505092915050565b5f6020820190508181035f8301526149e581846148fb565b905092915050565b7f4e487b71000000000000000000000000000000000000000000000000000000005f52601160045260245ffd5b5f614a24826142c5565b9150614a2f836142c5565b9250828203905081811115614a4757614a466149ed565b5b92915050565b5f614a57826142c5565b91507fffffffffffffffffffffffffffffffffffffffffffffffffffffffffffffffff8203614a8957614a886149ed565b5b600182019050919050565b5f60029050919050565b5f819050919050565b5f815f1c9050919050565b5f60ff82169050919050565b5f614ad0614acb83614aa7565b614ab2565b9050919050565b5f8160081c9050919050565b5f614af5614af083614ad7565b614ab2565b9050919050565b5f8160101c9050919050565b5f614b1a614b1583614afc565b614ab2565b9050919050565b5f8160181c9050919050565b5f614b3f614b3a83614b21565b614ab2565b9050919050565b5f8160201c9050919050565b5f614b64614b5f83614b46565b614ab2565b9050919050565b5f8160281c9050919050565b5f614b89614b8483614b6b565b614ab2565b9050919050565b5f8160301c9050919050565b5f614bae614ba983614b90565b614ab2565b9050919050565b5f8160381c9050919050565b5f614bd3614bce83614bb5565b614ab2565b9050919050565b5f8160401c9050919050565b5f614bf8614bf383614bda565b614ab2565b9050919050565b5f8160481c9050919050565b5f614c1d614c1883614bff565b614ab2565b9050919050565b5f8160501c9050919050565b5f614c42614c3d83614c24565b614ab2565b9050919050565b5f8160581c9050919050565b5f614c67614c6283614c49565b614ab2565b9050919050565b5f8160601c9050919050565b5f614c8c614c8783614c6e565b614ab2565b9050919050565b5f8160681c9050919050565b5f614cb1614cac83614c93565b614ab2565b9050919050565b5f8160701c9050919050565b5f614cd6614cd183614cb8565b614ab2565b9050919050565b5f8160781c9050919050565b5f614cfb614cf683614cdd565b614ab2565b9050919050565b5f8160801c9050919050565b5f614d20614d1b83614d02565b614ab2565b9050919050565b5f8160881c9050919050565b5f614d45614d4083614d27565b614ab2565b9050919050565b5f8160901c9050919050565b5f614d6a614d6583614d4c565b614ab2565b9050919050565b5f8160981c9050919050565b5f614d8f614d8a83614d71565b614ab2565b9050919050565b5f8160a01c9050919050565b5f614db4614daf83614d96565b614ab2565b9050919050565b5f8160a81c9050919050565b5f614dd9614dd483614dbb565b614ab2565b9050919050565b5f8160b01c9050919050565b5f614dfe614df983614de0565b614ab2565b9050919050565b5f8160b81c9050919050565b5f614e23614e1e83614e05565b614ab2565b9050919050565b5f8160c01c9050919050565b5f614e48614e4383614e2a565b614ab2565b9050919050565b5f8160c81c9050919050565b5f614e6d614e6883614e4f565b614ab2565b9050919050565b5f8160d01c9050919050565b5f614e92614e8d83614e74565b614ab2565b9050919050565b5f8160d81c9050919050565b5f614eb7614eb283614e99565b614ab2565b9050919050565b5f8160e01c9050919050565b5f614edc614ed783614ebe565b614ab2565b9050919050565b5f8160e81c9050919050565b5f614f01614efc83614ee3565b614ab2565b9050919050565b5f8160f01c9050919050565b5f614f26614f2183614f08565b614ab2565b9050919050565b5f8160f81c9050919050565b5f614f4b614f4683614f2d565b614ab2565b9050919050565b614f5b81614a94565b614f6581846144ff565b925082614f7183614a9e565b5f5f1561529c575b8360016020038201101561529b578154614f9b87614f9683614abe565b614512565b602087019650614fb387614fae83614ae3565b614512565b602087019650614fcb87614fc683614b08565b614512565b602087019650614fe387614fde83614b2d565b614512565b602087019650614ffb87614ff683614b52565b614512565b6020870196506150138761500e83614b77565b614512565b60208701965061502b8761502683614b9c565b614512565b6020870196506150438761503e83614bc1565b614512565b60208701965061505b8761505683614be6565b614512565b6020870196506150738761506e83614c0b565b614512565b60208701965061508b8761508683614c30565b614512565b6020870196506150a38761509e83614c55565b614512565b6020870196506150bb876150b683614c7a565b614512565b6020870196506150d3876150ce83614c9f565b614512565b6020870196506150eb876150e683614cc4565b614512565b602087019650615103876150fe83614ce9565b614512565b60208701965061511b8761511683614d0e565b614512565b6020870196506151338761512e83614d33565b614512565b60208701965061514b8761514683614d58565b614512565b6020870196506151638761515e83614d7d565b614512565b60208701965061517b8761517683614da2565b614512565b6020870196506151938761518e83614dc7565b614512565b6020870196506151ab876151a683614dec565b614512565b6020870196506151c3876151be83614e11565b614512565b6020870196506151db876151d683614e36565b614512565b6020870196506151f3876151ee83614e5b565b614512565b60208701965061520b8761520683614e80565b614512565b6020870196506152238761521e83614ea5565b614512565b60208701965061523b8761523683614eca565b614512565b6020870196506152538761524e83614eef565b614512565b60208701965061526b8761526683614f14565b614512565b6020870196506152838761527e83614f39565b614512565b60208701965060018301925050602081019050614f79565b5b6001156157495781546001156152cb576152be876152b983614abe565b614512565b6020870196506001820191505b6001156152f1576152e4876152df83614ae3565b614512565b6020870196506001820191505b5f15615316576153098761530483614b08565b614512565b6020870196506001820191505b5f1561533b5761532e8761532983614b2d565b614512565b6020870196506001820191505b5f15615360576153538761534e83614b52565b614512565b6020870196506001820191505b5f15615385576153788761537383614b77565b614512565b6020870196506001820191505b5f156153aa5761539d8761539883614b9c565b614512565b6020870196506001820191505b5f156153cf576153c2876153bd83614bc1565b614512565b6020870196506001820191505b5f156153f4576153e7876153e283614be6565b614512565b6020870196506001820191505b5f156154195761540c8761540783614c0b565b614512565b6020870196506001820191505b5f1561543e576154318761542c83614c30565b614512565b6020870196506001820191505b5f15615463576154568761545183614c55565b614512565b6020870196506001820191505b5f156154885761547b8761547683614c7a565b614512565b6020870196506001820191505b5f156154ad576154a08761549b83614c9f565b614512565b6020870196506001820191505b5f156154d2576154c5876154c083614cc4565b614512565b6020870196506001820191505b5f156154f7576154ea876154e583614ce9565b614512565b6020870196506001820191505b5f1561551c5761550f8761550a83614d0e565b614512565b6020870196506001820191505b5f15615541576155348761552f83614d33565b614512565b6020870196506001820191505b5f15615566576155598761555483614d58565b614512565b6020870196506001820191505b5f1561558b5761557e8761557983614d7d565b614512565b6020870196506001820191505b5f156155b0576155a38761559e83614da2565b614512565b6020870196506001820191505b5f156155d5576155c8876155c383614dc7565b614512565b6020870196506001820191505b5f156155fa576155ed876155e883614dec565b614512565b6020870196506001820191505b5f1561561f576156128761560d83614e11565b614512565b6020870196506001820191505b5f15615644576156378761563283614e36565b614512565b6020870196506001820191505b5f156156695761565c8761565783614e5b565b614512565b6020870196506001820191505b5f1561568e576156818761567c83614e80565b614512565b6020870196506001820191505b5f156156b3576156a6876156a183614ea5565b614512565b6020870196506001820191505b5f156156d8576156cb876156c683614eca565b614512565b6020870196506001820191505b5f156156fd576156f0876156eb83614eef565b614512565b6020870196506001820191505b5f15615722576157158761571083614f14565b614512565b6020870196506001820191505b5f156157475761573a8761573583614f39565b614512565b6020870196506001820191505b505b505050505050565b5f6040820190506157645f830184614f52565b92915050565b5f615774826142c5565b915061577f836142c5565b9250828201905080821115615797576157966149ed565b5b92915050565b5f6040820190506157b05f830185614323565b6157bd6020830184614323565b9392505050565b5f6040820190506157d75f830184614544565b92915050565b5f81905092915050565b50565b5f6157f55f836157dd565b9150615800826157e7565b5f82019050919050565b5f615814826157ea565b9150819050919050565b5f81905092915050565b6158318161487c565b61583b818461581e565b925061584682614890565b805f5b8381101561587657815161585d8782614521565b965061586883614899565b925050600181019050615849565b505050505050565b5f60a0820190506158915f830184615828565b92915050565b7f4e487b71000000000000000000000000000000000000000000000000000000005f52602160045260245ffd5b5f6158ce8261434b565b91506158d98361434b565b9250828201905060ff8111156158f2576158f16149ed565b5b92915050565b5f819050919050565b61591261590d826142c5565b6158f8565b82525050565b5f8160601b9050919050565b5f61592e82615918565b9050919050565b5f61593f82615924565b9050919050565b615957615952826143c7565b615935565b82525050565b5f6159688287615901565b6020820191506159788286615901565b6020820191506159888285615946565b6014820191506159988284615901565b60208201915081905095945050505050565b7f4e487b71000000000000000000000000000000000000000000000000000000005f52601260045260245ffd5b5f6159e1826142c5565b91506159ec836142c5565b9250826159fc576159fb6159aa565b5b828206905092915050565b5f615a118261434b565b91505f8203615a2357615a226149ed565b5b600182039050919050565b5f615a398285615901565b602082019150615a498284615901565b6020820191508190509392505050565b5f82825260208201905092915050565b7f4661696c656420746f2066696e6420617661696c61626c6520636172640000005f82015250565b5f615a9d601d83615a59565b9150615aa882615a69565b602082019050919050565b5f6020820190508181035f830152615aca81615a91565b9050919050565b5f615adb826142c5565b9150615ae6836142c5565b9250828202615af4816142c5565b91508282048414831517615b0b57615b0a6149ed565b5b5092915050565b5f615b1c826142c5565b9150615b27836142c5565b925082615b3757615b366159aa565b5b828204905092915050565b5f615b4c8261434b565b915060ff8203615b5f57615b5e6149ed565b5b600182019050919050565b7f496e76616c6964206361726420696e64657800000000000000000000000000005f82015250565b5f615b9e601283615a59565b9150615ba982615b6a565b602082019050919050565b5f6020820190508181035f830152615bcb81615b92565b9050919050565b5f615bdc8261434b565b9150615be78361434b565b925082615bf757615bf66159aa565b5b828206905092915050565b5f615c0c8261434b565b9150615c178361434b565b925082615c2757615c266159aa565b5b82820490509291505056fea264697066735822122005a594876c3066d058464e888317941c2c77097339a9e427d426eeb6355ed3eb64736f6c634300081d0033",
  "linkReferences": {},
  "deployedLinkReferences": {},
  "immutableReferences": {},
  "inputSourceName": "project/contracts/SimpleTexasHoldem.sol",
  "buildInfoId": "solc-0_8_29-acadeb31acbdf09a07f950dac6c80a8aa3b2d7d6"
}